:020000040800F2
:1000000000500020CD1400083110000837100008FF
:100010003D100008431000084910000800000000CF
:100020000000000000000000000000004F10000869
:100030005B10000800000000671000087310000843
:1000400015150008151500081515000815150008E8
:1000500015150008151500081515000815150008D8
:1000600015150008151500081515000815150008C8
:1000700015150008151500081515000815150008B8
:1000800015150008151500081515000815150008A8
:100090001515000815150008151500081515000898
:1000A0001515000815150008151500081515000888
:1000B0001515000815150008151500081515000878
:1000C0001515000815150008151500081515000868
:1000D0001515000815150008151500081515000858
:1000E000151500081515000815150008000000007A
:1000F0000000000000000000000000000000000000
:0C01000000000000000000005FF808F1A3
:10010C0010B5054C237833B9044B13B10448AFF345
:10011C0000800123237010BD680000200000000047
:10012C00C846000808B5034B1BB103490348AFF39D
:10013C00008008BD000000006C000020C8460008CC
:10014C004FF0FF0C1CEAD0521EBF1CEAD15392EAAE
:10015C000C0F93EA0C0F6FD01A4480EA010C40028A
:10016C0018BF5FEA41211ED04FF0006343EA5010E4
:10017C0043EA5111A0FB01310CF00040B1F5000F26
:10018C003EBF490041EAD3715B0040EA010062F1D5
:10019C007F02FD2A1DD8B3F1004F40EBC25008BFBF
:1001AC0020F00100704790F0000F0CF0004C08BFDD
:1001BC0049024CEA502040EA51207F3AC2BFD2F1AA
:1001CC00FF0340EAC250704740F400004FF00003B8
:1001DC00013A5DDC12F1190FDCBF00F000407047F2
:1001EC00C2F10002410021FA02F1C2F1200200FA30
:1001FC0002FC5FEA310040F1000053EA4C0308BFF7
:10020C0020EADC70704792F0000F00F0004C02BF47
:10021C00400010F4000F013AF9D040EA0C0093F0C2
:10022C00000F01F0004C02BF490011F4000F013B1C
:10023C00F9D041EA0C018FE70CEAD15392EA0C0F8A
:10024C0018BF93EA0C0F0AD030F0004C18BF31F0F5
:10025C00004CD8D180EA010000F00040704790F0CB
:10026C00000F17BF90F0004F084691F0000F91F06F
:10027C00004F14D092EA0C0F01D142020FD193EA35
:10028C000C0F03D14B0218BF084608D180EA0100BD
:10029C0000F0004040F0FE4040F40000704740F099
:1002AC00FE4040F44000704781F0004102E000BF86
:1002BC0083F0004330B54FEA41044FEA430594EA1A
:1002CC00050F08BF90EA020F1FBF54EA000C55EA55
:1002DC00020C7FEA645C7FEA655C00F0E2804FEA26
:1002EC005454D4EB5555B8BF6D420CDD2C4480EA08
:1002FC00020281EA030382EA000083EA010180EA38
:10030C00020281EA0303362D88BF30BD11F0004F85
:10031C004FEA01314FF4801C4CEA113102D04042BB
:10032C0061EB410113F0004F4FEA03334CEA1333F6
:10033C0002D0524263EB430394EA050F00F0A7800E
:10034C00A4F10104D5F1200E0DDB02FA0EFC22FA09
:10035C0005F2801841F1000103FA0EF2801843FAFD
:10036C0005F359410EE0A5F120050EF1200E012AEE
:10037C0003FA0EFC28BF4CF0020C43FA05F3C0182C
:10038C0051EBE37101F0004507D54FF0000EDCF1A5
:10039C00000C7EEB00006EEB0101B1F5801F1BD34E
:1003AC00B1F5001F0CD349085FEA30004FEA3C0C52
:1003BC0004F101044FEA445212F5800F80F09A8048
:1003CC00BCF1004F08BF5FEA500C50F1000041EB4C
:1003DC00045141EA050130BD5FEA4C0C404141EB50
:1003EC000101013C28BFB1F5801FE9D291F0000F4B
:1003FC0004BF01460020B1FA81F308BF2033A3F1FA
:10040C000B03B3F120020CDA0C3208DD02F1140CF0
:10041C00C2F10C0201FA0CF021FA02F10CE002F12B
:10042C001402D8BFC2F1200C01FA02F120FA0CFC24
:10043C00DCBF41EA0C019040E41AA2BF01EB04516D
:10044C00294330BD6FEA04041F3C1CDA0C340EDC6B
:10045C0004F11404C4F1200220FA04F001FA02F3AE
:10046C0040EA030021FA04F345EA030130BDC4F16C
:10047C000C04C4F1200220FA02F001FA04F340EA61
:10048C000300294630BD21FA04F0294630BD94F012
:10049C00000F83F4801306BF81F480110134013DF9
:1004AC004EE77FEA645C18BF7FEA655C29D094EA6A
:1004BC00050F08BF90EA020F05D054EA000C04BFE8
:1004CC001946104630BD91EA030F1EBF00210020D3
:1004DC0030BD5FEA545C05D14000494128BF41F072
:1004EC00004130BD14F580043CBF01F5801130BDD6
:1004FC0001F0004545F0FE4141F470014FF0000061
:10050C0030BD7FEA645C1ABF194610467FEA655C11
:10051C001CBF0B46024650EA013406BF52EA0335B3
:10052C0091EA030F41F4002130BD00BF90F0000FA1
:10053C0004BF0021704730B54FF4806404F13204DD
:10054C004FF000054FF0000150E700BF90F0000F96
:10055C0004BF0021704730B54FF4806404F13204BD
:10056C0010F0004548BF40424FF000013EE700BF8D
:10057C0042004FEAE2014FEA31014FEA02701FBF1D
:10058C0012F07F4393F07F4F81F06051704732F04F
:10059C007F4208BF704793F07F4F04BF41F40021A6
:1005AC00704730B54FF4607401F0004521F0004104
:1005BC001CE700BF50EA010208BF704730B54FF08E
:1005CC0000050AE050EA010208BF704730B511F08F
:1005DC00004502D5404261EB41014FF4806404F1C7
:1005EC0032045FEA915C3FF4D8AE4FF003025FEA4D
:1005FC00DC0C18BF03325FEADC0C18BF033202EBD1
:10060C00DC02C2F1200300FA03FC20FA02F001FA2A
:10061C0003FE40EA0E0021FA02F11444BDE600BFCD
:10062C0070B54FF0FF0C4CF4E06C1CEA11541DBF7C
:10063C001CEA135594EA0C0F95EA0C0F00F0DEF847
:10064C002C4481EA030621EA4C5123EA4C5350EA2C
:10065C00013518BF52EA033541F4801143F480137D
:10066C0038D0A0FB02CE4FF00005E1FB02E506F00E
:10067C000042E0FB03E54FF00006E1FB03569CF063
:10068C00000F18BF4EF0010EA4F1FF04B6F5007F69
:10069C0064F5407404D25FEA4E0E6D4146EB0606DB
:1006AC0042EAC62141EA55514FEAC52040EA5E5064
:1006BC004FEACE2EB4F1FD0C88BFBCF5E06F1ED80E
:1006CC00BEF1004F08BF5FEA500E50F1000041EB45
:1006DC00045170BD06F0004646EA010140EA0200F2
:1006EC0081EA0301B4EB5C04C2BFD4EB0C0541EA14
:1006FC00045170BD41F480114FF0000E013C00F329
:10070C00AB8014F1360FDEBF002001F0004170BD4C
:10071C00C4F10004203C35DA0C341BDC04F1140465
:10072C00C4F1200500FA05F320FA04F001FA05F2F1
:10073C0040EA020001F0004221F0004110EBD370BE
:10074C0021FA04F642EB06015EEA430E08BF20EAEA
:10075C00D37070BDC4F10C04C4F1200500FA04F38D
:10076C0020FA05F001FA04F240EA020001F000411F
:10077C0010EBD37041F100015EEA430E08BF20EA92
:10078C00D37070BDC4F1200500FA05F24EEA020EDA
:10079C0020FA04F301FA05F243EA020321FA04F009
:1007AC0001F0004121FA04F220EA020000EBD370C0
:1007BC005EEA430E08BF20EAD37070BD94F0000FC0
:1007CC000FD101F00046400041EB010111F4801FF4
:1007DC0008BF013CF7D041EA060195F0000F18BFA5
:1007EC00704703F00046520043EB030313F4801FE1
:1007FC0008BF013DF7D043EA0603704794EA0C0F9B
:10080C000CEA135518BF95EA0C0F0CD050EA4106B0
:10081C0018BF52EA4306D1D181EA030101F000412D
:10082C004FF0000070BD50EA410606BF1046194655
:10083C0052EA430619D094EA0C0F02D150EA013661
:10084C0013D195EA0C0F05D152EA03361CBF1046A2
:10085C0019460AD181EA030101F0004141F0FE4141
:10086C0041F470014FF0000070BD41F0FE4141F4C5
:10087C00780170BD70B54FF0FF0C4CF4E06C1CEAC5
:10088C0011541DBF1CEA135594EA0C0F95EA0C0F7A
:10089C0000F0A7F8A4EB050481EA030E52EA033535
:1008AC004FEA013100F088804FEA03334FF0805556
:1008BC0045EA131343EA12634FEA022245EA111583
:1008CC0045EA10654FEA00260EF000419D4208BF34
:1008DC00964244F1FD0404F5407402D25B084FEAE1
:1008EC003202B61A65EB03055B084FEA32024FF48D
:1008FC0080104FF4002CB6EB020E75EB030E22BFEA
:10090C00B61A754640EA0C005B084FEA3202B6EBA9
:10091C00020E75EB030E22BFB61A754640EA5C0058
:10092C005B084FEA3202B6EB020E75EB030E22BFE8
:10093C00B61A754640EA9C005B084FEA3202B6EBE9
:10094C00020E75EB030E22BFB61A754640EADC00A8
:10095C0055EA060E18D04FEA051545EA16754FEA0A
:10096C0006164FEAC30343EA52734FEAC2025FEA28
:10097C001C1CC0D111F4801F0BD141EA00014FF0B7
:10098C0000004FF0004CB6E711F4801F04BF014388
:10099C000020B4F1FD0C88BFBCF5E06F3FF6AFAEA4
:1009AC00B5EB030C04BFB6EB020C5FEA500C50F134
:1009BC00000041EB045170BD0EF0004E4EEA1131B7
:1009CC0014EB5C04C2BFD4EB0C0541EA045170BDBE
:1009DC0041F480114FF0000E013C90E645EA060E02
:1009EC008DE60CEA135594EA0C0F08BF95EA0C0F30
:1009FC003FF43BAF94EA0C0F0AD150EA01347FF478
:100A0C0034AF95EA0C0F7FF425AF104619462CE74E
:100A1C0095EA0C0F06D152EA03353FF4FDAE1046B1
:100A2C00194622E750EA410618BF52EA43067FF402
:100A3C00C5AE50EA41047FF40DAF52EA43057FF492
:100A4C00EBAE12E74A0011D212F5001211D20DD5FD
:100A5C006FF47873B3EB62520ED44FEAC12343F0B8
:100A6C00004343EA505323FA02F070474FF0000062
:100A7C00704750EA013002D14FF0FF3070474FF011
:100A8C000000704780F0004002E000BF81F00041A0
:100A9C0042001FBF5FEA410392EA030F7FEA226C18
:100AAC007FEA236C6AD04FEA1262D2EB1363C1BFA8
:100ABC00D218414048404140B8BF5B42192B88BF17
:100ACC00704710F0004F40F4000020F07F4018BF3A
:100ADC00404211F0004F41F4000121F07F4118BF5A
:100AEC00494292EA030F3FD0A2F1010241FA03FC02
:100AFC0010EB0C00C3F1200301FA03F100F00043EA
:100B0C0002D5494260EB4000B0F5000F13D3B0F1B1
:100B1C00807F06D340084FEA310102F10102FE2A20
:100B2C0051D2B1F1004F40EBC25008BF20F0010090
:100B3C0040EA03007047490040EB0000013A28BF2F
:100B4C00B0F5000FEDD2B0FA80FCACF1080CB2EBB2
:100B5C000C0200FA0CF0AABF00EBC2505242184330
:100B6C00BCBFD0401843704792F0000F81F40001D5
:100B7C0006BF80F400000132013BB5E74FEA4103A8
:100B8C007FEA226C18BF7FEA236C21D092EA030F14
:100B9C0004D092F0000F08BF0846704790EA010F8E
:100BAC001CBF0020704712F07F4F04D1400028BFBB
:100BBC0040F00040704712F100723CBF00F500009D
:100BCC00704700F0004343F0FE4040F400007047D3
:100BDC007FEA226216BF08467FEA2363014642027F
:100BEC0006BF5FEA412390EA010F40F48000704792
:100BFC004FF0000304E000BF10F0004348BF404238
:100C0C005FEA000C08BF704743F0964301464FF073
:100C1C0000001CE050EA010208BF70474FF00003CF
:100C2C000AE000BF50EA010208BF704711F0004310
:100C3C0002D5404261EB41015FEA010C02BF8446E0
:100C4C000146002043F0B64308BFA3F18053A3F53F
:100C5C000003BCFA8CF2083AA3EBC25310DB01FA86
:100C6C0002FC634400FA02FCC2F12002BCF1004F0A
:100C7C0020FA02F243EB020008BF20F0010070479B
:100C8C0002F1200201FA02FCC2F1200250EA4C00EF
:100C9C0021FA02F243EB020008BF20EADC70704735
:100CAC0080B582B000AF78600B467B807B8819469C
:100CBC00786801F075FE00BF0837BD4680BD0000A6
:100CCC0080B582B000AF78603960104BDB6A184693
:100CDC00FFF78EFF034639681846FFF731FA0346D3
:100CEC001846FFF745FC4FF00002094BFFF7C2FD19
:100CFC0002460B4610461946FFF7A4FE02467B68D7
:100D0C001A6000BF0837BD4680BD00BF002C0140F3
:100D1C000000594080B584B000AF3B1D00221A6022
:100D2C005A609A60184B194A1A60174B00229A6045
:100D3C00154B00221A73144B00221A75124B4FF4E8
:100D4C006022DA61104B00225A600F4B01221A61AB
:100D5C000D4800F03DFC0346002B01D000F02BF9B0
:100D6C0000237B600123BB600023FB603B1D194605
:100D7C00054800F005FD0346002B01D000F01BF9DF
:100D8C0000BF1037BD4680BD840000200024014008
:100D9C0080B588B000AF786007F1100300221A60AC
:100DAC005A609A60DA607B681B68144A934221D1BE
:100DBC00134B9B69124A43F400739361104B9B696C
:100DCC0003F40073FB60FB680D4B9B690C4A43F00A
:100DDC00040393610A4B9B6903F00403BB60BB687B
:100DEC0001233B6103237B6107F11003194605487E
:100DFC0000F0E4FE00BF2037BD4680BD002401405A
:100E0C00001002400008014080B485B000AF144BC4
:100E1C009B69134A43F020039361114B9B6903F0C8
:100E2C002003FB60FB680E4B9B690D4A43F00403E7
:100E3C0093610B4B9B6903F00403BB60BB68084BCD
:100E4C009B69074A43F008039361054B9B6903F0C8
:100E5C0008037B607B6800BF1437BD4680BC7047BD
:100E6C000010024080B582B000AF7860391D4FF69B
:100E7C00FF730122034802F062FB7B6818460837B7
:100E8C00BD4680BD0001002080B500AF00F03EFBE8
:100E9C0000F036F8FFF7B8FFFFF73CFF00F08CFAD4
:100EAC0000F08CF900210E48FFF7FAFE04210C48E3
:100EBC00FFF7F6FE0B490C48FFF702FF0B490C48F5
:100ECC00FFF7FEFE0B4BDB6A5A2202FB03F30A4AC6
:100EDC00A2FB03235B091946084802F071FDF1E7F8
:100EEC00B800002000002041342C01400000484292
:100EFC00382C0140002C01401F85EB51E0460008C6
:100F0C0080B594B000AF07F12803282200211846C1
:100F1C0002F0ABFD07F1140300221A605A609A60CC
:100F2C00DA601A613B1D00221A605A609A60DA601E
:100F3C000123BB624FF48033FB6200233B6301232C
:100F4C00BB6302237B644FF48033BB644FF4E01328
:100F5C00FB6407F12803184600F0B4FF0346002B8E
:100F6C0001D000F028F80F237B610223BB61002322
:100F7C00FB614FF480633B6200237B6207F1140337
:100F8C000221184601F020FA0346002B01D000F094
:100F9C0012F802237B604FF40043FB603B1D1846A4
:100FAC0001F0A0FB0346002B01D000F004F800BFB9
:100FBC005037BD4680BD80B400AF72B600BFFEE7AF
:100FCC0080B485B000AF154B9B69144A43F0010304
:100FDC009361124B9B6903F00103BB60BB680F4B21
:100FEC00DB690E4A43F08053D3610C4BDB6903F091
:100FFC0080537B607B680A4B5B68FB60FB6823F06B
:10100C00E063FB60FB6843F00073FB60044AFB6821
:10101C00536000BF1437BD4680BC704700100240BF
:10102C000000014080B400AFFEE780B400AFFEE7E3
:10103C0080B400AFFEE780B400AFFEE780B400AF31
:10104C00FEE780B400AF00BFBD4680BC704780B4E3
:10105C0000AF00BFBD4680BC704780B400AF00BF7E
:10106C00BD4680BC704780B500AF00F095FA00BF5C
:10107C0080BD80B586B000AFF860B9607A6000239F
:10108C007B610AE0AFF300800146BB685A1CBA6072
:10109C00CAB21A707B6901337B617A697B689A42A8
:1010AC00F0DB7B6818461837BD4680BD80B586B02E
:1010BC0000AFF860B9607A6000237B6109E0BB681F
:1010CC005A1CBA601B781846FFF7CCFE7B690133BB
:1010DC007B617A697B689A42F1DB7B68184618372A
:1010EC00BD4680BD80B483B000AF78604FF0FF3355
:1010FC0018460C37BD4680BC704780B483B000AF37
:10110C00786039603B684FF400525A6000231846EF
:10111C000C37BD4680BC704780B483B000AF78609C
:10112C00012318460C37BD4680BC704780B485B08F
:10113C0000AFF860B9607A60002318461437BD46DA
:10114C0080BC704780B586B000AF7860144A154BF0
:10115C00D31A7B617B693B61134B1B68002B02D15B
:10116C00114B124A1A60104B1A687B6813443A6987
:10117C009A4207D202F0C8FC03460C221A604FF0C8
:10118C00FF3309E0084B1B68FB60074B1A687B6850
:10119C001344054A1360FB6818461837BD4680BDDA
:1011AC000050002000040000B40000209802002031
:1011BC0080B400AF00BFBD4680BC704780B596B010
:1011CC0000AF07F1480300221A605A609A60DA6097
:1011DC0007F1400300221A605A6007F12403002231
:1011EC001A605A609A60DA601A615A619A613B1D02
:1011FC0020220021184602F038FC444B444A1A6065
:10120C00424B47225A60414B10229A603F4B40F2AE
:10121C00E732DA603D4B00221A613C4B00225A61E6
:10122C003A4B00229A61394801F012FB0346002B1D
:10123C0001D0FFF7C0FE4FF48053BB6407F14803A5
:10124C001946324801F010FD0346002B01D0FFF780
:10125C00B2FE2E4801F04BFB0346002B01D0FFF7EA
:10126C00AAFE00233B6400237B6407F1400319466C
:10127C00264802F065F80346002B01D0FFF79BFED1
:10128C0060237B620023BB620023FB6200233B6371
:10129C0000237B630023BB630023FB6307F1240360
:1012AC0000221946194801F01DFC0346002B01D001
:1012BC00FFF781FE07F1240304221946134801F0BD
:1012CC0011FC0346002B01D0FFF775FE00237B6059
:1012DC000023BB600023FB6000233B6100237B6188
:1012EC004FF40053BB6100233B623B1D194607487A
:1012FC0002F084F80346002B01D0FFF75CFE034894
:10130C0000F026F800BF5837BD4680BDB80000205D
:10131C00002C014080B485B000AF78607B681B68FE
:10132C00094A93420BD1094B9B69084A43F4006369
:10133C009361064B9B6903F40063FB60FB6800BF81
:10134C001437BD4680BC7047002C01400010024091
:10135C0080B588B000AF786007F1100300221A60E6
:10136C005A609A60DA607B681B68104A934218D105
:10137C000F4B9B690E4A43F0040393610C4B9B6922
:10138C0003F00403FB60FB684FF440733B610223E2
:10139C007B610223FB6107F110031946054800F03D
:1013AC000DFC00BF2037BD4680BD00BF002C0140A6
:1013BC00001002400008014080B500AF114B124AEA
:1013CC001A60104B4FF416525A600E4B00229A6062
:1013DC000C4B0022DA600B4B00221A61094B0C22D9
:1013EC005A61084B00229A61064B0022DA610548CB
:1013FC0002F055F80346002B01D0FFF7DCFD00BFCF
:10140C0080BD00BF000100200038014080B58AB0CB
:10141C0000AF786007F1140300221A605A609A60DA
:10142C00DA607B681B68224A93423DD1214B9B6951
:10143C00204A43F4804393611E4B9B6903F4804321
:10144C003B613B691B4B9B691A4A43F00803936150
:10145C00184B9B6903F00803FB60FB6840237B611E
:10146C000223BB6103233B6207F1140319461248A4
:10147C0000F0A4FB80237B610023BB610023FB6194
:10148C0007F1140319460C4800F098FB0B4B5B68F2
:10149C007B627B6A43F0E0637B627B6A43F004030C
:1014AC007B62064A7B6A536000BF2837BD4680BD0D
:1014BC000038014000100240000C014000000140C7
:1014CC00FFF776FE0B480C490C4A002302E0D45877
:1014DC00C4500433C4188C42F9D3094A094C002374
:1014EC0001E013600432A242FBD302F013FBFFF7BE
:1014FC00CBFC704700000020680000205847000813
:10150C006800002098020020FEE7000080B500AFC4
:10151C00084B1B68074A43F010031360032000F0CC
:10152C0019FB0F2000F008F8FFF74AFD00231846BE
:10153C0080BD00BF0020024080B582B000AF786053
:10154C00124B1A68124B1B7819464FF47A73B3FB83
:10155C00F1F3B2FBF3F3184600F023FB0346002B28
:10156C0001D001230EE07B680F2B0AD8002279688A
:10157C004FF0FF3000F0F9FA064A7B681360002345
:10158C0000E0012318460837BD4680BD000000204E
:10159C00080000200400002080B400AF054B1B782D
:1015AC001A46054B1B681344034A136000BFBD4623
:1015BC0080BC7047080000204801002080B400AFB8
:1015CC00024B1B681846BD4680BC70474801002082
:1015DC0080B586B000AF78600023FB7500233B61BB
:1015EC000023BB600023FB607B68002B01D101232F
:1015FC00BEE07B689B68002B7B689B6A002B09D143
:10160C007B680022DA627B68002283F824207868E9
:10161C00FFF7BEFB786800F0ABF90346FB757B68FF
:10162C009B6A03F01003002B40F09980FB7D002B8C
:10163C0040F095807B689B6A23F4885323F0020367
:10164C0043F002027B689A627B685A687B68DB69AC
:10165C001A437B681B7B5B001343BA681343BB6064
:10166C007B689B68B3F5807F03D07B689B68012BFC
:10167C0002D14FF4807300E000233A6913433B61BD
:10168C007B681B7D012B19D17B681B7B002B09D13F
:10169C007B689B69013B5A033B69134343F400632A
:1016AC003B610BE07B689B6A43F020027B689A628B
:1016BC007B68DB6A43F001027B68DA627B681B683B
:1016CC005B6823F469417B681B683A690A435A607A
:1016DC007B681B689A68284B13407A681268B96853
:1016EC000B4393607B689B68B3F5807F03D07B686A
:1016FC009B68012B04D17B681B69013B1B05FB60BC
:10170C007B681B68DB6A23F470017B681B68FA68D2
:10171C000A43DA627B681B689A68184B1340BA68F4
:10172C009A420BD17B680022DA627B689B6A23F0B9
:10173C00030343F001027B689A6218E07B689B6AA2
:10174C0023F0120343F010027B689A627B68DB6A19
:10175C0043F001027B68DA620123FB7507E07B68CA
:10176C009B6A43F010027B689A620123FB75FB7D38
:10177C0018461837BD4680BDFDF7E1FFFE0E1FFF72
:10178C0080B485B000AF786039600023FB73002310
:10179C00BB607B6893F82430012B01D10223DCE081
:1017AC007B68012283F824203B685B68062B1CD8DD
:1017BC007B681B68596B3B685A6813469B00134443
:1017CC00053B1F2202FA03F3DB4319403B68186800
:1017DC003B685A6813469B001344053B00FA03F21E
:1017EC007B681B680A435A633CE03B685B680C2BC4
:1017FC001CD87B681B68196B3B685A6813469B00A6
:10180C001344233B1F2202FA03F3DB4319403B68CA
:10181C0018683B685A6813469B001344233B00FA34
:10182C0003F27B681B680A431A631BE07B681B6826
:10183C00D96A3B685A6813469B001344413B1F22EC
:10184C0002FA03F3DB4319403B6818683B685A689B
:10185C0013469B001344413B00FA03F27B681B6860
:10186C000A43DA623B681B68092B1CD97B681B682E
:10187C00D9683B681A6813465B0013441E3B072269
:10188C0002FA03F3DB4319403B6898683B681A681B
:10189C0013465B0013441E3B00FA03F27B681B6883
:1018AC000A43DA6019E07B681B6819693B681A689F
:1018BC0013465B001344072202FA03F3DB4319407F
:1018CC003B6898683B681A6813465B00134400FA3F
:1018DC0003F27B681B680A431A613B681B68102B78
:1018EC0003D03B681B68112B32D17B681B681D4AE7
:1018FC00934225D17B681B689B6803F40003002B83
:10190C0026D17B681B689A687B681B6842F40002CE
:10191C009A603B681B68102B1AD1134B1B68134A37
:10192C00A2FB03239A0C13469B0013445B00BB6081
:10193C0002E0BB68013BBB60BB68002BF9D107E040
:10194C007B689B6A43F020027B689A620123FB73DD
:10195C007B68002283F82420FB7B18461437BD4695
:10196C0080BC7047002401400000002083DE1B4334
:10197C0080B584B000AF78600023FB607B681B6887
:10198C009B6803F00103012B2ED17B681B689A68BE
:10199C007B681B6822F001029A60FFF70FFEF8606B
:1019AC001BE0FFF70BFE0246FB68D31A022B14D97F
:1019BC007B681B689B6803F00103012B0DD17B68CE
:1019CC009B6A43F010027B689A627B68DB6A43F087
:1019DC0001027B68DA62012307E07B681B689B6865
:1019EC0003F00103012BDCD0002318461037BD4651
:1019FC0080BD000080B485B000AF78607B6803F0D8
:101A0C000703FB600C4BDB68BB60BA684FF6FF0347
:101A1C001340BB60FB681A02BB68134343F0BF63FF
:101A2C0043F40033BB60044ABB68D36000BF143777
:101A3C00BD4680BC704700BF00ED00E080B400AF35
:101A4C00044BDB681B0A03F007031846BD4680BC39
:101A5C00704700BF00ED00E080B483B000AF0346D8
:101A6C003960FB7197F90730002B0ADB3B68DAB25F
:101A7C000C4997F907301201D2B20B4483F80023BA
:101A8C000AE03B68DAB20849FB7903F00F03043B28
:101A9C001201D2B20B441A7600BF0C37BD4680BC83
:101AAC00704700BF00E100E000ED00E080B489B0B9
:101ABC0000AFF860B9607A60FB6803F00703FB6164
:101ACC00FB69C3F10703042B28BF0423BB61FB692B
:101ADC000433062B02D9FB69033B00E000237B6136
:101AEC004FF0FF32BB6902FA03F3DA43BB681A40CA
:101AFC007B699A404FF0FF317B6901FA03F3D943BC
:101B0C007B680B40134318462437BD4680BC704796
:101B1C0080B582B000AF78607B68013BB3F1807F09
:101B2C0001D301230FE00A4A7B68013B53600F216C
:101B3C004FF0FF30FFF790FF054B00229A60044BEB
:101B4C0007221A60002318460837BD4680BD00BF27
:101B5C0010E000E080B582B000AF78607868FFF7E5
:101B6C0049FF00BF0837BD4680BD80B586B000AFC9
:101B7C000346B9607A60FB7300237B61FFF75EFF5D
:101B8C0078617A68B9687869FFF790FF024697F92F
:101B9C000F3011461846FFF75FFF00BF1837BD46E0
:101BAC0080BD80B582B000AF78607868FFF7B0FF79
:101BBC00034618460837BD4680BD000080B48BB084
:101BCC0000AF7860396000237B6200233B6269E1DF
:101BDC0001227B6A02FA03F3FB613B681B68FA691A
:101BEC001340BB61BA69FB699A4240F058813B686B
:101BFC005B689A4A93425ED0984A934275D8984A49
:101C0C00934258D0964A93426FD8964A934252D0F8
:101C1C00944A934269D8944A93424CD0924A934244
:101C2C0063D8924A934246D0904A93425DD8122B85
:101C3C002AD8122B59D801A252F823F0C31C000841
:101C4C009D1C0008AF1C0008F11C0008F71C0008C4
:101C5C00F71C0008F71C0008F71C0008F71C00080C
:101C6C00F71C0008F71C0008F71C0008F71C0008FC
:101C7C00F71C0008F71C0008F71C0008F71C0008EC
:101C8C00A51C0008B91C0008794A934213D02CE01B
:101C9C003B68DB683B6229E03B68DB6804333B62F2
:101CAC0024E03B68DB6808333B621FE03B68DB6881
:101CBC000C333B621AE03B689B68002B02D1042377
:101CCC003B6213E03B689B68012B05D108233B6208
:101CDC007B68FA691A6109E008233B627B68FA6940
:101CEC005A6103E000233B6200E000BFBB69FF2B9D
:101CFC0001D87B6801E07B6804337B61BB69FF2BF7
:101D0C0002D87B6A9B0002E07B6A083B9B003B612C
:101D1C007B691A680F213B6901FA03F3DB431A4014
:101D2C00396A3B6901FA03F31A437B691A603B6811
:101D3C005B6803F08053002B00F0B1804D4B9B6926
:101D4C004C4A43F0010393614A4B9B6903F0010336
:101D5C00BB60BB68484A7B6A9B08023352F823304D
:101D6C00FB607B6A03F003039B000F2202FA03F370
:101D7C00DB43FA681340FB607B68404A934213D004
:101D8C007B683F4A93420DD07B683E4A934207D012
:101D9C007B683D4A934201D1032306E0042304E00F
:101DAC00022302E0012300E000237A6A02F003021E
:101DBC0092009340FA681343FB602F497B6A9B089F
:101DCC000233FA6841F823203B685B6803F4801304
:101DDC00002B06D02D4B9A682C49BB6913438B60A2
:101DEC0006E02A4B9A68BB69DB43284913408B6099
:101DFC003B685B6803F40013002B06D0234BDA68B6
:101E0C002249BB691343CB6006E0204BDA68BB69FF
:101E1C00DB431E491340CB603B685B6803F4003323
:101E2C00002B06D0194B5A681849BB6913434B60F9
:101E3C0006E0164B5A68BB69DB43144913404B60F0
:101E4C003B685B6803F48033002B21D00F4B1A687E
:101E5C000E49BB6913430B6021E000BF0000321038
:101E6C0000003110000022100000211000001210A0
:101E7C000000111000100240000001400008014059
:101E8C00000C01400010014000140140000401400E
:101E9C000B4B1A68BB69DB43094913400B607B6A27
:101EAC0001337B623B681A687B6A22FA03F3002BCE
:101EBC007FF48EAE00BF00BF2C37BD4680BC704790
:101ECC000004014080B586B000AF78607B68002BC1
:101EDC0001D1012372E27B681B6803F00103002B24
:101EEC0000F08780924B5B6803F00C03042B0CD042
:101EFC008F4B5B6803F00C03082B12D18C4B5B6887
:101F0C0003F48033B3F5803F0BD1894B1B6803F48A
:101F1C000033002B6CD07B685B68002B68D10123ED
:101F2C004CE27B685B68B3F5803F06D1804B1B6845
:101F3C007F4A43F4803313602EE07B685B68002B90
:101F4C000CD17B4B1B687A4A23F480331360784B9B
:101F5C001B68774A23F4802313601DE07B685B6861
:101F6C00B3F5A02F0CD1724B1B68714A43F480233C
:101F7C0013606F4B1B686E4A43F4803313600BE0A5
:101F8C006B4B1B686A4A23F480331360684B1B68E5
:101F9C00674A23F4802313607B685B68002B13D0A3
:101FAC00FFF70CFB386108E0FFF708FB02463B69C2
:101FBC00D31A642B01D9032300E25D4B1B6803F495
:101FCC000033002BF0D014E0FFF7F8FA386108E08A
:101FDC00FFF7F4FA02463B69D31A642B01D90323A9
:101FEC00ECE1534B1B6803F40033002BF0D100E001
:101FFC0000BF7B681B6803F00203002B63D04C4BC3
:10200C005B6803F00C03002B0BD0494B5B6803F0AF
:10201C000C03082B1CD1464B5B6803F48033002B5C
:10202C0016D1434B1B6803F00203002B05D07B68D1
:10203C001B69012B01D00123C0E13D4B1B6823F030
:10204C00F8027B685B69DB00394913430B603AE0AB
:10205C007B681B69002B20D0364B01221A60FFF7DE
:10206C00ADFA386108E0FFF7A9FA02463B69D31ACA
:10207C00022B01D90323A1E12D4B1B6803F00203B2
:10208C00002BF0D02A4B1B6823F0F8027B685B69AD
:10209C00DB00274913430B6015E0264B00221A6026
:1020AC00FFF78CFA386108E0FFF788FA02463B69C3
:1020BC00D31A022B01D9032380E11D4B1B6803F0BB
:1020CC000203002BF0D17B681B6803F00803002B84
:1020DC003AD07B689B69002B19D0174B01221A60F0
:1020EC00FFF76CFA386108E0FFF768FA02463B69C3
:1020FC00D31A022B01D9032360E10D4B5B6A03F069
:10210C000203002BF0D0012000F0CEFA1CE00A4BA9
:10211C0000221A60FFF752FA38610FE0FFF74EFA0F
:10212C0002463B69D31A022B08D9032346E100BFB0
:10213C00001002400000424280044242924B5B6A13
:10214C0003F00203002BE9D17B681B6803F0040346
:10215C00002B00F0A6800023FB758B4BDB6903F092
:10216C008053002B0DD1884BDB69874A43F0805399
:10217C00D361854BDB6903F08053BB60BB680123E3
:10218C00FB75824B1B6803F48073002B18D17F4BBB
:10219C001B687E4A43F480731360FFF70FFA3861B3
:1021AC0008E0FFF70BFA02463B69D31A642B01D9FE
:1021BC00032303E1754B1B6803F48073002BF0D0F1
:1021CC007B68DB68012B06D16F4B1B6A6E4A43F0B0
:1021DC00010313622DE07B68DB68002B0CD16A4B8A
:1021EC001B6A694A23F001031362674B1B6A664A38
:1021FC0023F0040313621CE07B68DB68052B0CD115
:10220C00614B1B6A604A43F0040313625E4B1B6A0A
:10221C005D4A43F0010313620BE05B4B1B6A5A4AA5
:10222C0023F001031362584B1B6A574A23F0040333
:10223C0013627B68DB68002B15D0FFF7BFF93861A0
:10224C000AE0FFF7BBF902463B69D31A41F2883228
:10225C00934201D90323B1E04B4B1B6A03F00203F9
:10226C00002BEED014E0FFF7A9F938610AE0FFF774
:10227C00A5F902463B69D31A41F28832934201D93F
:10228C0003239BE0404B1B6A03F00203002BEED1AF
:10229C00FB7D012B05D13C4BDB693B4A23F0805382
:1022AC00D3617B68DB69002B00F08780364B5B6861
:1022BC0003F00C03082B61D07B68DB69022B46D141
:1022CC00334B00221A60FFF779F9386108E0FFF709
:1022DC0075F902463B69D31A022B01D903236DE031
:1022EC00294B1B6803F00073002BF0D17B681B6A31
:1022FC00B3F5803F08D1244B5B6823F400327B6834
:10230C009B68214913434B601F4B5B6823F4741289
:10231C007B68196A7B685B6A0B431B4913434B60F0
:10232C001B4B01221A60FFF749F9386108E0FFF7EF
:10233C0045F902463B69D31A022B01D903233DE030
:10234C00114B1B6803F00073002BF0D035E0104BE1
:10235C0000221A60FFF732F9386108E0FFF72EF916
:10236C0002463B69D31A022B01D9032326E0064B04
:10237C001B6803F00073002BF0D11EE07B68DB6957
:10238C00012B07D1012319E000100240007000401E
:10239C00600042420B4B5B68FB60FB6803F48032CD
:1023AC007B681B6A9A4206D1FB6803F470127B6847
:1023BC005B6A9A4201D0012300E0002318461837CB
:1023CC00BD4680BD0010024080B584B000AF78607F
:1023DC0039607B68002B01D10123D0E06A4B1B686C
:1023EC0003F007033A689A4210D9674B1B6823F035
:1023FC00070265493B6813430B60634B1B6803F092
:10240C0007033A689A4201D00123B8E07B681B6845
:10241C0003F00203002B20D07B681B6803F004033D
:10242C00002B05D0594B5B68584A43F4E06353606A
:10243C007B681B6803F00803002B05D0534B5B68CB
:10244C00524A43F460535360504B5B6823F0F002E4
:10245C007B689B684D4913434B607B681B6803F09A
:10246C000103002B40D07B685B68012B07D1474BE5
:10247C001B6803F40033002B15D101237FE07B682C
:10248C005B68022B07D1414B1B6803F00073002BD8
:10249C0009D1012373E03D4B1B6803F00203002BB1
:1024AC0001D101236BE0394B5B6823F003027B689D
:1024BC005B68364913434B60FFF780F8F8600AE01D
:1024CC00FFF77CF80246FB68D31A41F2883293423C
:1024DC0001D9032353E02D4B5B6803F00C027B689E
:1024EC005B689B009A42EBD1274B1B6803F00703F8
:1024FC003A689A4210D2244B1B6823F007022249F7
:10250C003B6813430B60204B1B6803F007033A68CE
:10251C009A4201D0012332E07B681B6803F004036C
:10252C00002B08D0194B5B6823F4E0627B68DB68F6
:10253C00164913434B607B681B6803F00803002BA0
:10254C0009D0124B5B6823F460527B681B69DB007B
:10255C000E4913434B6000F021F802460B4B5B68AD
:10256C001B0903F00F030A49CB5C22FA03F3094A57
:10257C001360094B1B681846FEF7DEFF0023184654
:10258C001037BD4680BD00BF002002400010024045
:10259C00F0460008000000200400002080B487B042
:1025AC0000AF0023FB600023BB6000237B61002392
:1025BC007B6000233B611E4B5B68FB60FB6803F098
:1025CC000C03042B02D0082B03D027E0194B3B61E2
:1025DC0027E0FB689B0C03F00F03174AD35C7B606E
:1025EC00FB6803F48033002B10D0114B5B685B0C41
:1025FC0003F00103114AD35CBB607B680D4A03FBFB
:10260C0002F2BB68B2FBF3F37B6104E07B680C4A1B
:10261C0002FB03F37B617B693B6102E0054B3B6191
:10262C0000BF3B6918461C37BD4680BC704700BFD5
:10263C000010024000127A000847000818470008F2
:10264C0000093D0080B400AF024B1B681846BD4624
:10265C0080BC70470000002080B500AFFFF7F2FF90
:10266C000246054B5B681B0A03F007030349CB5C6E
:10267C0022FA03F3184680BD001002400047000800
:10268C0080B500AFFFF7DEFF0246054B5B68DB0A47
:10269C0003F007030349CB5C22FA03F3184680BD11
:1026AC00001002400047000880B485B000AF78608D
:1026BC000A4B1B680A4AA2FB03235B0A7A6802FBDB
:1026CC0003F3FB6000BFFB685A1EFA60002BF9D1C4
:1026DC0000BF00BF1437BD4680BC7047000000200F
:1026EC00D34D621080B586B000AF786000233B619B
:1026FC000023FB607B681B6803F00103002B7DD07B
:10270C000023FB754F4BDB6903F08053002B0DD17D
:10271C004C4BDB694B4A43F08053D361494BDB692B
:10272C0003F08053BB60BB680123FB75464B1B68F1
:10273C0003F48073002B18D1434B1B68424A43F4BB
:10274C0080731360FEF73AFF386108E0FEF736FF3E
:10275C0002463B69D31A642B01D903236DE03A4B33
:10276C001B6803F48073002BF0D0364B1B6A03F408
:10277C004073FB60FB68002B2ED07B685B6803F416
:10278C004073FA689A4227D02E4B1B6A23F440738D
:10279C00FB602E4B01221A602C4B00221A60294A36
:1027AC00FB681362FB6803F00103002B14D0FEF7E7
:1027BC0005FF38610AE0FEF701FF02463B69D31AB8
:1027CC0041F28832934201D9032336E01D4B1B6A38
:1027DC0003F00203002BEED01A4B1B6A23F4407259
:1027EC007B685B68174913430B62FB7D012B05D19A
:1027FC00144BDB69134A23F08053D3617B681B684D
:10280C0003F00203002B08D00E4B5B6823F440420C
:10281C007B689B680B4913434B607B681B6803F018
:10282C001003002B08D0074B5B6823F480027B68F5
:10283C00DB68044913434B60002318461837BD4628
:10284C0080BD00BF001002400070004040044242B6
:10285C0080B582B000AF78607B68002B01D101237A
:10286C0041E07B6893F83D30DBB2002B06D17B68EE
:10287C00002283F83C207868FEF74CFD7B6802222E
:10288C0083F83D207B681A687B6804331946104630
:10289C0000F0B2FA7B68012283F846207B680122A3
:1028AC0083F83E207B68012283F83F207B6801225D
:1028BC0083F840207B68012283F841207B68012249
:1028CC0083F842207B68012283F843207B68012235
:1028DC0083F844207B68012283F845207B68012221
:1028EC0083F83D20002318460837BD4680BD80B5CF
:1028FC0082B000AF78607B68002B01D1012341E0EE
:10290C007B6893F83D30DBB2002B06D17B6800224C
:10291C0083F83C20786800F039F87B68022283F851
:10292C003D207B681A687B6804331946104600F01A
:10293C0063FA7B68012283F846207B68012283F8C6
:10294C003E207B68012283F83F207B68012283F8BC
:10295C0040207B68012283F841207B68012283F8A8
:10296C0042207B68012283F843207B68012283F894
:10297C0044207B68012283F845207B68012283F880
:10298C003D20002318460837BD4680BD80B483B077
:10299C0000AF786000BF0C37BD4680BC70470000AC
:1029AC0080B584B000AF786039603B68002B09D1EA
:1029BC007B6893F83E30DBB2012B14BF012300235C
:1029CC00DBB222E03B68042B09D17B6893F83F30E3
:1029DC00DBB2012B14BF01230023DBB215E03B68F3
:1029EC00082B09D17B6893F84030DBB2012B14BF64
:1029FC0001230023DBB208E07B6893F84130DBB2A3
:102A0C00012B14BF01230023DBB2002B01D00123C7
:102A1C005EE03B68002B04D17B68022283F83E20E9
:102A2C0013E03B68042B04D17B68022283F83F201F
:102A3C000BE03B68082B04D17B68022283F8402012
:102A4C0003E07B68022283F841207B681B6801222B
:102A5C003968184600F050FC7B681B681E4A93428C
:102A6C0007D17B681B685A6C7B681B6842F4004278
:102A7C005A647B681B68184A93420ED07B681B68AB
:102A8C00B3F1804F09D07B681B68144A934204D081
:102A9C007B681B68124A934211D17B681B689B6848
:102AAC0003F00703FB60FB68062B10D07B681B68E8
:102ABC001A687B681B6842F001021A6007E07B68A9
:102ACC001B681A687B681B6842F001021A600023BD
:102ADC0018461037BD4680BD002C01400004004054
:102AEC000008004080B586B000AFF860B9607A602D
:102AFC000023FB75FB6893F83C30012B01D10223BA
:102B0C00AEE0FB68012283F83C207B680C2B00F2C2
:102B1C009F8001A252F823F0592B00085D2C00086D
:102B2C005D2C00085D2C0008992B00085D2C00081A
:102B3C005D2C00085D2C0008DB2B00085D2C0008C8
:102B4C005D2C00085D2C00081B2C0008FB681B6822
:102B5C00B968184600F0B2F9FB681B689A69FB6803
:102B6C001B6842F008029A61FB681B689A69FB6853
:102B7C001B6822F004029A61FB681B689969BB68A8
:102B8C001A69FB681B680A439A6164E0FB681B685E
:102B9C00B968184600F0F8F9FB681B689A69FB687D
:102BAC001B6842F400629A61FB681B689A69FB68B7
:102BBC001B6822F480629A61FB681B689969BB6888
:102BCC001B691A02FB681B680A439A6143E0FB68A5
:102BDC001B68B968184600F041FAFB681B68DA6993
:102BEC00FB681B6842F00802DA61FB681B68DA6953
:102BFC00FB681B6822F00402DA61FB681B68D96968
:102C0C00BB681A69FB681B680A43DA6123E0FB683E
:102C1C001B68B968184600F08BFAFB681B68DA6908
:102C2C00FB681B6842F40062DA61FB681B68DA69B6
:102C3C00FB681B6822F48062DA61FB681B68D96947
:102C4C00BB681B691A02FB681B680A43DA6102E065
:102C5C000123FB7500BFFB68002283F83C20FB7D41
:102C6C0018461837BD4680BD80B584B000AF78607B
:102C7C0039600023FB737B6893F83C30012B01D146
:102C8C000223B4E07B68012283F83C207B6802229B
:102C9C0083F83D207B681B689B68BB60BB6823F096
:102CAC007703BB60BB6823F47F43BB607B681B6806
:102CBC00BA689A603B681B68B3F5005F3ED0B3F509
:102CCC00005F00F28780B3F5805F00F08680B3F57B
:102CDC00805F7FD8702B1AD0702B7BD8602B50D094
:102CEC00602B77D8502B3CD0502B73D8402B58D01E
:102CFC00402B6FD8302B64D0302B6BD8202B60D06E
:102D0C00202B67D8002B5CD0102B5AD062E07B684C
:102D1C0018683B6899683B685A683B68DB6800F048
:102D2C00CCFA7B681B689B68BB60BB6843F077037D
:102D3C00BB607B681B68BA689A604FE07B68186858
:102D4C003B6899683B685A683B68DB6800F0B5FAE9
:102D5C007B681B689A687B681B6842F480429A60A7
:102D6C003CE07B6818683B6859683B68DB681A462E
:102D7C0000F02CFA7B681B685021184600F083FA8F
:102D8C002CE07B6818683B6859683B68DB681A461E
:102D9C0000F04AFA7B681B686021184600F073FA51
:102DAC001CE07B6818683B6859683B68DB681A460E
:102DBC0000F00CFA7B681B684021184600F063FA9F
:102DCC000CE07B681A683B681B681946104600F0DB
:102DDC005AFA03E00123FB7300E000BF7B68012279
:102DEC0083F83D207B68002283F83C20FB7B18464F
:102DFC001037BD4680BD000080B485B000AF786050
:102E0C0039607B681B68FB607B68294A93420BD056
:102E1C007B68B3F1804F07D07B68264A934203D07E
:102E2C007B68254A934208D1FB6823F07003FB6052
:102E3C003B685B68FA681343FB607B681C4A9342EF
:102E4C000BD07B68B3F1804F07D07B68194A934253
:102E5C0003D07B68184A934208D1FB6823F4407373
:102E6C00FB603B68DB68FA681343FB60FB6823F08C
:102E7C0080023B685B691343FB607B68FA681A60ED
:102E8C003B689A687B68DA623B681A687B689A626E
:102E9C007B68074A934203D13B681A697B681A63C3
:102EAC007B6801225A6100BF1437BD4680BC704755
:102EBC00002C0140000400400008004080B487B0A2
:102ECC0000AF786039607B681B6A7B617B681B6A2A
:102EDC0023F001027B681A627B685B683B617B684C
:102EEC009B69FB60FB6823F07003FB60FB6823F0BD
:102EFC000303FB603B681B68FA681343FB607B6948
:102F0C0023F002037B613B689B687A6913437B6106
:102F1C007B681C4A93420CD17B6923F008037B61CC
:102F2C003B68DB687A6913437B617B6923F004039C
:102F3C007B617B68134A934211D13B6923F4807304
:102F4C003B613B6923F400733B613B685B693A6905
:102F5C0013433B613B689B693A6913433B617B6854
:102F6C003A695A607B68FA689A613B685A687B6870
:102F7C005A637B687A691A6200BF1C37BD4680BCF5
:102F8C00704700BF002C014080B487B000AF786060
:102F9C0039607B681B6A7B617B681B6A23F01002BB
:102FAC007B681A627B685B683B617B689B69FB6032
:102FBC00FB6823F4E043FB60FB6823F44073FB6085
:102FCC003B681B681B02FA681343FB607B6923F0A8
:102FDC0020037B613B689B681B017A6913437B610F
:102FEC007B681D4A93420DD17B6923F080037B6182
:102FFC003B68DB681B017A6913437B617B6923F0B7
:10300C0040037B617B68144A934213D13B6923F4E0
:10301C0080633B613B6923F400633B613B685B6904
:10302C009B003A6913433B613B689B699B003A697F
:10303C0013433B617B683A695A607B68FA689A6112
:10304C003B685A687B689A637B687A691A6200BF2E
:10305C001C37BD4680BC7047002C014080B487B043
:10306C0000AF786039607B681B6A7B617B681B6A88
:10307C0023F480727B681A627B685B683B617B68B7
:10308C00DB69FB60FB6823F07003FB60FB6823F0DB
:10309C000303FB603B681B68FA681343FB607B69A6
:1030AC0023F400737B613B689B681B027A691343B2
:1030BC007B617B681D4A93420DD17B6923F40063CD
:1030CC007B613B68DB681B027A6913437B617B691C
:1030DC0023F480637B617B68144A934213D13B6970
:1030EC0023F480533B613B6923F400533B613B6801
:1030FC005B691B013A6913433B613B689B691B018C
:10310C003A6913433B617B683A695A607B68FA6899
:10311C00DA613B685A687B68DA637B687A691A62A1
:10312C0000BF1C37BD4680BC704700BF002C01405F
:10313C0080B487B000AF786039607B681B6A3B61F4
:10314C007B681B6A23F480527B681A627B685B681D
:10315C007B617B68DB69FB60FB6823F4E043FB600D
:10316C00FB6823F44073FB603B681B681B02FA6826
:10317C001343FB603B6923F400533B613B689B6842
:10318C001B033A6913433B617B680F4A934209D195
:10319C007B6923F480437B613B685B699B017A69A3
:1031AC0013437B617B687A695A607B68FA68DA61E1
:1031BC003B685A687B681A647B683A691A6200BF7C
:1031CC001C37BD4680BC7047002C014080B487B0D2
:1031DC0000AFF860B9607A60FB681B6A7B61FB68C2
:1031EC001B6A23F00102FB681A62FB689B693B6156
:1031FC003B6923F0F0033B617B681B013A69134385
:10320C003B617B6923F00A037B617A69BB681343DA
:10321C007B61FB683A699A61FB687A691A6200BF44
:10322C001C37BD4680BC704780B487B000AFF860D7
:10323C00B9607A60FB681B6A7B61FB681B6A23F0D0
:10324C001002FB681A62FB689B693B613B6923F4C3
:10325C0070433B617B681B033A6913433B617B6999
:10326C0023F0A0037B61BB681B017A6913437B616C
:10327C00FB683A699A61FB687A691A6200BF1C376D
:10328C00BD4680BC704780B485B000AF78603960B3
:10329C007B689B68FB60FB6823F07003FB603A68FB
:1032AC00FB68134343F00703FB607B68FA689A6082
:1032BC0000BF1437BD4680BC704780B487B000AFE8
:1032CC00F860B9607A603B60FB689B687B617B69E6
:1032DC0023F47F437B613B681A027B681A43BB680B
:1032EC0013437A6913437B61FB687A699A6000BF68
:1032FC001C37BD4680BC704780B487B000AFF86007
:10330C00B9607A60BB6803F01F03012202FA03F371
:10331C007B61FB681A6A7B69DB431A40FB681A62A3
:10332C00FB681A6ABB6803F01F03796801FA03F3A0
:10333C001A43FB681A6200BF1C37BD4680BC70473D
:10334C0080B485B000AF786039607B6893F83C300E
:10335C00012B01D1022346E07B68012283F83C203B
:10336C007B68022283F83D207B681B685B68FB60EE
:10337C007B681B689B68BB60FB6823F07003FB6079
:10338C003B681B68FA681343FB607B681B68FA6830
:10339C005A607B681B68164A93420ED07B681B6888
:1033AC00B3F1804F09D07B681B68124A934204D05A
:1033BC007B681B68104A93420CD1BB6823F08003D6
:1033CC00BB603B685B68BA681343BB607B681B6877
:1033DC00BA689A607B68012283F83D207B680022E2
:1033EC0083F83C20002318461437BD4680BC704738
:1033FC00002C0140000400400008004080B485B05F
:10340C0000AF786039600023FB607B6893F83C3038
:10341C00012B01D102233DE07B68012283F83C2083
:10342C00FB6823F0FF023B68DB681343FB60FB681F
:10343C0023F440723B689B681343FB60FB6823F4E6
:10344C0080623B685B681343FB60FB6823F400629B
:10345C003B681B681343FB60FB6823F480523B689A
:10346C001B691343FB60FB6823F400523B685B69E8
:10347C001343FB60FB6823F480423B68DB69134316
:10348C00FB607B681B68FA685A647B68002283F8CF
:10349C003C20002318461437BD4680BC704780B5CD
:1034AC0082B000AF78607B68002B01D1012342E031
:1034BC007B6893F84130DBB2002B06D17B6800228D
:1034CC0083F840207868FDF7A1FF7B68242283F8FD
:1034DC0041207B681B68DA687B681B6822F4005209
:1034EC00DA60786800F01CF97B681B681A697B68E5
:1034FC001B6822F490421A617B681B685A697B68CE
:10350C001B6822F02A025A617B681B68DA687B68A8
:10351C001B6842F40052DA607B6800225A647B68B4
:10352C00202283F841207B68202283F842207B688C
:10353C0000225A63002318460837BD4680BD80B56B
:10354C008AB002AFF860B9603B601346FB80002381
:10355C007B61FB6893F84130DBB2202B6DD1BB68EB
:10356C00002B02D0FB88002B01D1012366E0FB6805
:10357C0000225A64FB68212283F84120FEF71EF8D2
:10358C007861FB68FA889A84FB68FA88DA84FB68AD
:10359C009B68B3F5805F08D1FB681B69002B04D1D5
:1035AC000023FB61BB68BB6103E0BB68FB610023CC
:1035BC00BB612AE03B6800937B6900228021F8689C
:1035CC0000F040F80346002B01D0032336E0FB69E2
:1035DC00002B0BD1BB691B881A46FB681B68C2F316
:1035EC0008025A60BB690233BB6107E0FB691A78B9
:1035FC00FB681B685A60FB690133FB61FB68DB8C61
:10360C009BB2013B9AB2FB68DA84FB68DB8C9BB201
:10361C00002BCFD13B6800937B6900224021F868D6
:10362C0000F010F80346002B01D0032306E0FB68E2
:10363C00202283F84120002300E002231846203783
:10364C00BD4680BD80B590B000AFF860B9603B60FE
:10365C001346FB7150E0BB6CB3F1FF3F4CD0BB6C1D
:10366C00002B07D0FDF7AAFF02463B68D31ABA6CB1
:10367C009A4241D2FB681B680C33BB62BB6A53E8AD
:10368C00003F7B627B6A23F4D073FB63FB681B688F
:10369C000C33FA6B7A633B63396B7A6B41E800232A
:1036AC00FB62FB6A002BE5D1FB681B6814337B6162
:1036BC007B6953E8003F3B613B6923F00103BB632B
:1036CC00FB681B681433BA6B3A62FB61F9693A6A9E
:1036DC0041E80023BB61BB69002BE5D1FB682022CC
:1036EC0083F84120FB68202283F84220FB680022EB
:1036FC0083F8402003230FE0FB681B681A68BB6843
:10370C001340BA689A420CBF01230023DBB21A465D
:10371C00FB799A429FD0002318464037BD4680BDA6
:10372C0080B584B000AF78607B681B681B6923F49C
:10373C0040517B68DA687B681B680A431A617B68B6
:10374C009A687B681B691A437B685B691343BB608F
:10375C007B681B68DB6823F4B05323F00C037A6896
:10376C001268B9680B43D3607B681B685B6923F4F0
:10377C0040717B689A697B681B680A435A617B6855
:10378C001B682C4A934203D1FEF77AFFF86002E0E3
:10379C00FEF762FFF860FA6813469B0013449A0028
:1037AC001A447B685B689B00B2FBF3F3224AA2FBD2
:1037BC0003235B091901FA6813469B0013449A0012
:1037CC001A447B685B689B00B2FBF3F21A4BA3FBB9
:1037DC0002035B09642000FB03F3D31A1B01323391
:1037EC00154AA2FB03235B0903F0F0031944FA68A2
:1037FC0013469B0013449A001A447B685B689B0039
:10380C00B2FBF3F20C4BA3FB02035B09642000FB3D
:10381C0003F3D31A1B013233074AA2FB03235B09C0
:10382C0003F00F027B681B680A449A6000BF1037D4
:10383C00BD4680BD003801401F85EB51002310B5FB
:10384C000446C0E90033C0E90433836081814366D8
:10385C00C2818361194608225C3000F006F90D4BD9
:10386C00246263620C4BA3620C4BE3620C4B23632C
:10387C000C4B9C4206D003F16802944202D0D03328
:10388C009C4205D104F15800BDE8104000F066B927
:10389C0010BD00BFF1390008133A00084B3A00087C
:1038AC006F3A00084C010020024A0349034800F01B
:1038BC0069B800BF0C000020094400081800002063
:1038CC0041680C4B10B59942044601D000F096FDAE
:1038DC00A168094B994202D0204600F08FFDE168A7
:1038EC00064B994204D02046BDE8104000F086BD3E
:1038FC0010BD00BF4C010020B40100201C020020B0
:10390C0010B50B4B0B4C0C4A20461A6004210022BC
:10391C00FFF794FF04F1680001220921FFF78EFFE5
:10392C0004F1D0000222BDE810401221FFF786BF3F
:10393C00840200204C010020B5380008014800F03A
:10394C000EB900BF8D020020014800F009B900BF7C
:10395C008D02002010B50446FFF7F0FF236A1BB15F
:10396C00BDE81040FFF7F0BF044B2362044B1B680B
:10397C00002BF5D1FFF7C4FFF2E700BFCD380008EC
:10398C00840200202DE9F843074688461446002699
:10399C00D4E90195B9F1010905D52468002CF7D1BA
:1039AC003046BDE8F883AB89012B07D9B5F90E3049
:1039BC00013303D029463846C04706436835E9E74A
:1039CC000FB407B5064904AB086853F8042B81689B
:1039DC00019300F0E3F903B05DF804EB04B0704719
:1039EC006400002010B50C46B1F90E1000F068F818
:1039FC000028ABBF636DA3891B1823F48053ACBFA5
:103A0C006365A38110BD2DE9F0411F468B890546E6
:103A1C00DB050C46164605D502230022B1F90E1023
:103A2C0000F03CF8A389324623F48053A381284646
:103A3C003B46B4F90E10BDE8F04100F053B810B598
:103A4C000C46B1F90E1000F029F8431CA38915BFE0
:103A5C00606523F4805343F48053A38118BFA38182
:103A6C0010BDB1F90E1000F009B8034602449342A0
:103A7C0000D1704703F8011BF9E7000038B50023AB
:103A8C00054D044608462B60FDF72CFB431C02D168
:103A9C002B6803B1236038BD8802002038B504467A
:103AAC00084611460022054D2A601A46FDF73EFBDA
:103ABC00431C02D12B6803B1236038BD880200205F
:103ACC0038B50446084611460022054D2A601A46B0
:103ADC00FDF7CFFA431C02D12B6803B1236038BD2C
:103AEC008802002038B50446084611460022054DD0
:103AFC002A601A46FDF7DAFA431C02D12B6803B18F
:103B0C00236038BD88020020014B1868704700BF45
:103B1C006400002070B500260C4D0D4C641BA410E5
:103B2C00A64209D100F0CAFD00260A4D0A4C641BBE
:103B3C00A410A64205D170BD55F8043B9847013638
:103B4C00EEE755F8043B98470136F2E7504700087A
:103B5C00504700085047000854470008704770470A
:103B6C007047000038B50546002940D051F8043C98
:103B7C000C1F002BB8BFE41800F0DCF81C4A1368CB
:103B8C0033B9636014602846BDE8384000F0D8B8FB
:103B9C00A34208D9206821188B4201BF19685B68C1
:103BAC0009182160EDE71A465B680BB1A342FAD9FC
:103BBC0011685018A0420BD1206801445018834260
:103BCC001160E0D118685B68084410605360DAE754
:103BDC0002D90C232B60D6E7206821188B4201BF39
:103BEC0019685B680918216063605460CBE738BDC5
:103BFC009002002070B50E4E0C463168054611B986
:103C0C0000F0BAFC30602146284600F0B5FC431C9D
:103C1C000AD0C41C24F00304A04207D0211A284661
:103C2C0000F0AAFC013001D14FF0FF34204670BDEA
:103C3C00940200202DE9F843CD1C25F0030508352E
:103C4C000C2D38BF0C25002D074601DBA94205D9E8
:103C5C000C2300263B603046BDE8F883DFF8D080AB
:103C6C0000F068F8D8F800301C465CBB2946384692
:103C7C00FFF7C0FF431C044655D1D8F80040264638
:103C8C00002E45D1002C48D023683146384604EB31
:103C9C00030900F071FC81453FD1216838466D1A4B
:103CAC002946FFF7A7FF013037D023682B44236048
:103CBC00D8F80030002B38D05A68A2422BD1002201
:103CCC005A600FE02268521B1FD40B2A17D96119B6
:103CDC00A342256018BF5960636808BFC8F800107C
:103CEC0062514B60384604F10B0600F029F826F0BF
:103CFC000706231DF21AAED09B1BA350ABE7A342C1
:103D0C006268DDD1C8F80020ECE723466468ACE7B4
:103D1C0034467668B4E71346CCE70C2338463B6050
:103D2C0000F00EF897E72560DCE75B60FFDE00BF74
:103D3C00900200200148FFF712BF00BF8C02002048
:103D4C000148FFF70DBF00BF8C020020936810B430
:103D5C00013B002B936007DA9469A34201DB0A292B
:103D6C0002D110BC00F072BB1368581C10601970A3
:103D7C00084610BC7047F8B506460F461446D518D1
:103D8C00AC4201D1002007E03A46304614F8011B42
:103D9C00FFF7DCFF431CF3D1F8BD00002DE9F04F19
:103DAC000D461446984606469DB018B1036A0BB9E9
:103DBC00FFF7D0FD6B6ED90705D4AB899A0502D4F9
:103DCC00A86DFFF7CCFEAB891B0701D52B699BB9FE
:103DDC002946304600F078FB70B16B6EDC0704D5D9
:103DEC004FF0FF301DB0BDE8F08FAB899805F7D4CC
:103DFC00A86DFFF7B5FEF3E70023099320238DF898
:103E0C00293030234FF00109CDF80C80DFF8AC815C
:103E1C008DF82A3023469A4613F8012B0AB1252A2D
:103E2C00F9D1BAEB040B0BD05B462246294630463F
:103E3C00FFF7A1FF013000F0A980099A5A440992BA
:103E4C009AF80030002B00F0A18000234FF0FF32D5
:103E5C00CDE905230AF1010A049307938DF8533039
:103E6C001A935446052214F8011B544800F094FB95
:103E7C00049AD8B9D10644BF20238DF853301307C8
:103E8C0044BF2B238DF853309AF800302A2B15D0D1
:103E9C00544600204FF00A0C079A214611F8013BBA
:103EAC00303B092B4DD9B0B1079214E0A0EB0803BD
:103EBC0009FA03F31343A2460493D2E7039B191D9B
:103ECC001B680391002BBBBF5B4242F002020793BD
:103EDC000793B8BF049223782E2B0CD163782A2B2E
:103EEC0034D1039B02341A1D1B680392002BB8BFFC
:103EFC004FF0FF330593DFF8C8A00322504621781A
:103F0C0000F04AFB38B14022049BA0EB0A0082402F
:103F1C0013430134049314F8011B062229488DF82D
:103F2C00281000F039FB00283FD0274B1BBB039B0C
:103F3C00073323F0070308330393099B3B4409938E
:103F4C0068E70C4601200CFB0232A6E700234FF079
:103F5C000A0C194601340593204610F8012B303A0F
:103F6C00092A03D9002BC6D00591C4E704460123C6
:103F7C000CFB0121F0E703AB00932A463046134BB0
:103F8C0004A9AFF300800746781CD6D16B6ED90715
:103F9C0005D4AB899A0502D4A86DFFF7E1FDAB8976
:103FAC005B063FF51DAF09981CE703AB00932A464F
:103FBC003046064B04A900F07DF8E4E71A470008E8
:103FCC00204700082447000800000000833D00083B
:103FDC002DE9F047164699468A680B6907469342C5
:103FEC00B8BF1346336091F843200C46DDF82080AF
:103FFC000AB1013333602368990642BF3368023338
:10400C003360256815F0060506D104F1190AE3683A
:10401C0032689B1AAB422BDC94F84320131E2268A7
:10402C0018BF0123920630D44946384604F14302A6
:10403C00C047013023D02368226903F00603042B08
:10404C0014BF002533684FF0000608BFE56804F183
:10405C001A0408BFED1A54F8123C08BF25EAE5759E
:10406C009342C4BF9B1AED18B5421AD1002008E048
:10407C000123524649463846C047013003D14FF020
:10408C00FF30BDE8F0870135C1E73020E11881F839
:10409C0043005A1C94F845102244023382F8431012
:1040AC00C2E70123224649463846C0470130E6D0D4
:1040BC000136D9E72DE9FF470F7E9146782F8046D0
:1040CC000C469A460C9D01F1430207D8622F0AD880
:1040DC00002F00F0D580582F00F0C18004F142056C
:1040EC0084F842703AE0A7F16303152BF6D801A1CE
:1040FC0051F823F0594100086D410008E9400008CF
:10410C00E9400008E9400008E94000086D4100085A
:10411C00E9400008E9400008E9400008E9400008CF
:10412C0073420008994100082D420008E94000083C
:10413C00E940000895420008E94000089941000850
:10414C00E9400008E9400008354200082B681A1DB8
:10415C001B682A6004F1420584F842300123A0E078
:10416C0020682B68070603F10401296001D51E683D
:10417C0003E04606FBD5B3F90060002E03DA2D23CD
:10418C00764284F843300A23594812E02B682068A1
:10419C00191D2960050601D51E6802E04106FBD5F4
:1041AC001E886F2F0CBF08230A235148002184F866
:1041BC0043106568002DA8BF2168A560A4BF21F03D
:1041CC00040121600EB9002D4BD01546B6FBF3F15E
:1041DC0003FB1167C75D05F8017D3746BB420E46F0
:1041EC00F4D9082B0BD12368DE0708D52369616845
:1041FC009942DEBF302305F8013C05F1FF35521B17
:10420C0022614B4621464046CDF800A003AAFFF799
:10421C00DFFE01304AD14FF0FF3004B0BDE8F0872B
:10422C00236843F0200323607827324884F84570D4
:10423C00236829681F0651F8046B02D45F0648BF37
:10424C00B6B2DF0748BF43F02003296048BF2360A4
:10425C001EB9236823F0200323601023A6E724480B
:10426C00E4E71546BDE72B682668181D61692860D0
:10427C0035061B6801D5196002E07006FBD5198064
:10428C00002315462361BCE72B6800211A1D2A6008
:10429C001D686268284600F07FF908B1401B606019
:1042AC0063682361002384F84330AAE72A46494611
:1042BC0040462369D0470130ADD023689B0713D407
:1042CC00E068039B9842B8BF1846A6E70123324624
:1042DC0049464046D04701309DD00135E3680399EB
:1042EC005B1AAB42F2DCEBE7002504F11906F5E7AB
:1042FC002B4700083C4700088A89F8B5054610078B
:10430C000C4657D44B68002B04DC0B6C002B01DCE7
:10431C000020F8BDE66A002EFAD0002312F4805279
:10432C002F68216A2B6032D0606DA3895A0705D59E
:10433C006368C01A636B0BB1236CC01A002302466E
:10434C00E66A2846216AB047431CA38906D129682E
:10435C001D292BD8284A0A41D60727D4002262608F
:10436C002269D904226004D5421C01D12B6803B9FF
:10437C006065616B2F600029CAD004F14403994237
:10438C0002D02846FFF7EEFB00206063C1E7012353
:10439C002846B047411CC8D12B68002BC5D01D2B1B
:1043AC0001D0162B01D12F60B2E7A38943F0400353
:1043BC00A381AEE70F69002FAAD0930718BF002383
:1043CC000E6808BF4B69F61B0F608B60002E9FDDDB
:1043DC0033463A462846216AD4F828C0E0470028DC
:1043EC0006DCA3894FF0FF3043F04003A38190E734
:1043FC000744361AEAE700BFFEFFBFDF38B50B698A
:10440C0005460C4613B90025284638BD18B1036A79
:10441C000BB9FFF79FFAB4F90C30002BF3D0626E96
:10442C00D00704D4990502D4A06DFFF798FB284659
:10443C002146FFF761FF636E0546DA07E4D4A389D2
:10444C009B05E1D4A06DFFF78BFBDDE7F8B50E46BD
:10445C001446054618B1036A0BB9FFF77BFAA3693A
:10446C00A360A3891A0725D523691BB32368226986
:10447C00F6B2981A63693746834204DC2146284613
:10448C00FFF7BCFFE0B9A368013BA36023685A1C8B
:10449C0022601E706269431C9A4204D0A389DB0718
:1044AC0006D50A2E04D121462846FFF7A7FF38B9B6
:1044BC003846F8BD2146284600F006F80028D5D02D
:1044CC004FF0FF37F4E7000038B52A4B0546186863
:1044DC000C4618B1036A0BB9FFF73CFAA389B4F97F
:1044EC000C20180722D4D90607D409232B6042F0DC
:1044FC0040034FF0FF30A38134E0580712D5616BB5
:10450C0041B104F14403994202D02846FFF72AFB3B
:10451C0000236363A38923F02403A3810023636036
:10452C0023692360A38943F00803A38123694BB952
:10453C00A38903F42073B3F5007F03D021462846EA
:10454C0000F05DF8A089B4F90C2010F001030AD03A
:10455C000023A36063695B42A361236943B910F034
:10456C008000C4D138BD810758BF6369A360F4E7EC
:10457C000020F7E76400002038B50023054D044601
:10458C0008462B60FCF7DEFD431C02D12B6803B1FF
:10459C00236038BD88020020034610B5C9B202441E
:1045AC009342184601D1002003E0047801338C4279
:1045BC00F6D110BD70B50C46B1F90E101546002998
:1045CC001E4696B00CDAA389002113F0800F0CBFA5
:1045DC004FF480634023002031602B6016B070BD17
:1045EC006A4600F049F80028EDDB019901F47041AE
:1045FC00A1F50053594259414FF48063EBE78B8985
:10460C0073B59D0706460C4607D504F14703236096
:10461C0023610123636102B070BD6A4601ABFFF7F1
:10462C00C9FF009905463046FFF704FB48B9B4F9B9
:10463C000C309A05EFD423F0030343F00203A3815B
:10464C00E3E7A389206043F08003A381009B2061F2
:10465C006361019B5BB13046B4F90E1000F01EF89B
:10466C0028B1A38923F0030343F00103A381A38999
:10467C001D43A581CFE7000038B50023064D044645
:10468C00084611462B60FCF738FD431C02D12B6801
:10469C0003B1236038BD00BF8802002038B5002369
:1046AC00054D044608462B60FCF736FD431C02D131
:1046BC002B6803B1236038BD88020020F8B500BF19
:1046CC00F8BC08BC9E467047F8B500BFF8BC08BCE7
:0446DC009E4670473F
:1046E00056616C6F723A20256C640D0A0000000060
:1046F0000000000000000000010203040607080992
:104700000000000001020304020304050607080973
:104710000A0B0C0D0E0F10100102232D302B200060
:10472000686C4C006566674546470030313233346B
:10473000353637383941424344454600303132330B
:1047400034353637383961626364656600000000CD
:04475000310100082B
:044754000D0100084B
:104758000024F40010000000010000000000000028
:10476800030000004C010020000000004C01002064
:10477800B40100201C02002000000000000000001E
:104788000000000000000000000000000000000021
:104798000000000000000000000000000000000011
:1047A8000000000000000000000000000000000001
:0847B8000000000018000020C1
:04000005080014CD0E
:00000001FF
