:020000040800F2
:1000000000500020E10C0008490C00084F0C0008CB
:10001000550C00085B0C0008610C00080000000093
:10002000000000000000000000000000670C000855
:10003000730C0008000000007F0C00088B0C000807
:10004000290D0008290D0008290D0008290D0008B8
:10005000290D0008290D0008290D0008290D0008A8
:10006000290D0008290D0008290D0008990C000829
:10007000290D0008290D0008290D0008290D000888
:10008000290D0008290D0008AD0C0008290D0008F5
:10009000290D0008290D0008290D0008290D000868
:1000A000290D0008290D0008290D0008290D000858
:1000B000290D0008290D0008290D0008290D000848
:1000C000290D0008290D0008290D0008290D000838
:1000D000290D0008C10C0008290D0008290D000891
:1000E000290D0008290D0008290D00080000000056
:1000F0000000000000000000000000000000000000
:0C01000000000000000000005FF808F1A3
:10010C0010B5054C237833B9044B13B10448AFF345
:10011C0000800123237010BD0C00002000000000A3
:10012C00F042000808B5034B1BB103490348AFF379
:10013C00008008BD0000000010000020F042000804
:10014C0080B500AF00F0ECFD00F03EF800F050FA86
:10015C0000F030FA00F094F800F034F900F000FAF6
:10016C0000F0B0F9114B1B221A70104B00225A7080
:10017C000F4802F02BFD08220E490F4800F00AFF31
:10018C0018220E490E4803F049FB00210D4802F0DD
:10019C00C7FD04210B4802F0C3FD4FF08043002241
:1001AC005A634FF0804300229A63FEE78C010020D3
:1001BC00E4000020A401002028000020740100208D
:1001CC002C0100209C00002080B594B000AF07F1FA
:1001DC00280328220021184604F058F807F11403CC
:1001EC0000221A605A609A60DA601A613B1D002284
:1001FC001A605A609A60DA600123BB624FF4803354
:10020C00FB6200233B630123BB6302237B644FF43B
:10021C008033BB644FF4E013FB6407F128031846EA
:10022C0001F0BEFF0346002B01D000F085FB0F232D
:10023C007B610223BB610023FB614FF480633B6253
:10024C0000237B6207F114030221184602F02AFAFC
:10025C000346002B01D000F06FFB02237B604FF4B0
:10026C000043FB603B1D184602F0AAFB0346002B23
:10027C0001D000F061FB00BF5037BD4680BD0000CF
:10028C0080B584B000AF3B1D00221A605A609A60A2
:10029C004A4B4B4A1A60494B4FF480729A60474B59
:1002AC0001221A73454B00221A75444B4FF46022FD
:1002BC00DA61424B00225A60404B08221A613F48D7
:1002CC0000F090FD0346002B01D000F035FB02231B
:1002DC007B600123BB600023FB603B1D1946374844
:1002EC0001F010F80346002B01D000F025FB03238E
:1002FC007B600223BB603B1D1946304801F002F8BD
:10030C000346002B01D000F017FB04237B60032372
:10031C00BB603B1D1946294800F0F4FF0346002B37
:10032C0001D000F009FB05237B600423BB603B1D5F
:10033C001946224800F0E6FF0346002B01D000F0DE
:10034C00FBFA06237B600523BB603B1D19461B484B
:10035C0000F0D8FF0346002B01D000F0EDFA072384
:10036C007B600623BB603B1D1946144800F0CAFF96
:10037C000346002B01D000F0DFFA08237B60072333
:10038C00BB603B1D19460D4800F0BCFF0346002B1B
:10039C0001D000F0D1FA09237B600823BB603B1D20
:1003AC001946064800F0AEFF0346002B01D000F0C2
:1003BC00C3FA00BF1037BD4680BD00BF2800002027
:1003CC000024014080B58EB000AF07F12803002255
:1003DC001A605A609A60DA6007F1200300221A60F2
:1003EC005A603B1D00221A605A609A60DA601A61EA
:1003FC005A619A61324B4FF080421A60304B0022A6
:10040C005A602F4B00229A602D4B4FF6FF72DA6028
:10041C002B4B00221A612A4B80229A61284802F049
:10042C0085FB0346002B01D000F086FA4FF4805375
:10043C00BB6207F128031946214802F0D5FD03469B
:10044C00002B01D000F078FA1D4802F011FC034695
:10045C00002B01D000F070FA00233B6200237B627A
:10046C0007F120031946164803F02AF90346002B1E
:10047C0001D000F061FA60237B600023BB60002395
:10048C00FB6000237B613B1D002219460C4802F0E7
:10049C00E9FC0346002B01D000F04EFA3B1D042270
:1004AC001946074802F0DEFC0346002B01D000F091
:1004BC0043FA034800F030FB00BF3837BD4680BD1F
:1004CC009C00002080B586B000AF07F10803002225
:1004DC001A605A609A60DA603B4600221A605A60D1
:1004EC001D4B1E4A1A601C4B48F69F425A601A4B11
:1004FC0000229A60184B0822DA60174B00221A610E
:10050C00154B80229A61144802F010FB0346002B15
:10051C0001D000F011FA4FF48053BB6007F10803CF
:10052C0019460D4802F060FD0346002B01D000F087
:10053C0003FA00233B6000237B603B4619460648C8
:10054C0003F0BEF80346002B01D000F0F5F900BF14
:10055C001837BD4680BD00BFE400002000040040F9
:10056C0080B500AF114B124A1A60104B4FF4E132B8
:10057C005A600E4B00229A600C4B0022DA600B4B37
:10058C0000221A61094B0C225A61084B00229A6115
:10059C00064B0022DA61054803F0F0F80346002B05
:1005AC0001D000F0C9F900BF80BD00BF2C010020B4
:1005BC000038014080B582B000AF0C4B5B690B4A30
:1005CC0043F001035361094B5B6903F001037B604A
:1005DC007B68002200210B2001F06DF90B2001F04B
:1005EC0086F900BF0837BD4680BD00BF0010024031
:1005FC0080B588B000AF07F1100300221A605A6072
:10060C009A60DA60464B9B69454A43F0100393614C
:10061C00434B9B6903F01003FB60FB68404B9B69E9
:10062C003F4A43F0200393613D4B9B6903F0200349
:10063C00BB60BB683A4B9B69394A43F00403936136
:10064C00374B9B6903F004037B607B68344B9B69DD
:10065C00334A43F008039361314B9B6903F0080361
:10066C003B603B6800224FF400412E4801F080FDB6
:10067C0000224FF410412C4801F07AFD00224FF477
:10068C004E712A4801F074FD4FF400433B61012385
:10069C007B610023BB610223FB6107F11003194648
:1006AC00204801F0E1FB4FF470433B6100237B6178
:1006BC000023BB6107F1100319461C4801F0D4FB61
:1006CC004FF470633B6100237B610023BB6107F136
:1006DC0010031946144801F0C7FB4FF410433B615B
:1006EC0001237B610023BB610223FB6107F1100333
:1006FC0019460D4801F0B8FB4FF44E733B610123D2
:10070C007B610023BB610223FB6107F110031946D7
:10071C00064801F0A9FB00BF2037BD4680BD00BFD5
:10072C00001002400010014000080140000C014084
:10073C0080B483B000AF78601A4B1B689AB21A4B26
:10074C00A3F80320174B5B689AB2174BA3F805204C
:10075C00144B9B689AB2144BA3F80720114BDB681F
:10076C009AB2114BA3F809200E4B1B699AB20E4B8F
:10077C00A3F80B200B4B5B699AB20B4BA3F80D2023
:10078C00084B9B699AB2084BA3F80F20054BDB6909
:10079C009AB2054BA3F8112000BF0C37BD4680BCA4
:1007AC00704700BFA40100208C01002080B582B0EE
:1007BC0000AF78605B4B1B781B2B40F0AA80594B29
:1007CC00DB7C03F00103002B06D001224FF4805197
:1007DC00554801F0CDFC05E000224FF48051524801
:1007EC0001F0C6FC4F4BDB7C5B08DBB203F0010372
:1007FC00002B06D001224FF400414B4801F0B8FC0D
:10080C0005E000224FF40041474801F0B1FC454B94
:10081C00DB7C9B08DBB203F00103002B05D001222B
:10082C000821424801F0A4FC04E0002208213F48C2
:10083C0001F09EFC3B4BDB7CDB08DBB203F00103DD
:10084C00002B05D001221021384801F091FC04E066
:10085C0000221021354801F08BFC324BDB7C1B094C
:10086C00DBB203F00103002B05D0012220212F481D
:10087C0001F07EFC04E0002220212C4801F078FCE1
:10088C00284BDB7C5B09DBB203F00103002B06D0A9
:10089C0001224FF48071254801F06AFC05E000222A
:1008AC004FF48071214801F063FC1E4BDB7C9B09EB
:1008BC00DBB203F00103002B06D001224FF40071D0
:1008CC001A4801F055FC05E000224FF4007117485E
:1008DC0001F04EFC134BDB7CDB09DBB203F00103B4
:1008EC00002B06D001224FF40041114801F040FCCE
:1008FC0005E000224FF400410D4801F039FC094B92
:10090C009A8A4FF080435A63064BDA8A4FF0804341
:10091C009A6318220349074802F080FF00BF08378A
:10092C00BD4680BD7401002000080140000C014050
:10093C00001001402C01002080B400AF72B600BF43
:10094C00FEE7000080B485B000AF154B9B69144ADC
:10095C0043F001039361124B9B6903F00103BB60ED
:10096C00BB680F4BDB690E4A43F08053D3610C4BD1
:10097C00DB6903F080537B607B680A4B5B68FB6030
:10098C00FB6823F0E063FB60FB6843F00073FB60E3
:10099C00044AFB68536000BF1437BD4680BC7047E7
:1009AC00001002400000014080B58AB000AF7860B2
:1009BC0007F1180300221A605A609A60DA607B68AB
:1009CC001B68374A934267D1364B9B69354A43F4CF
:1009DC0000739361334B9B6903F400737B617B69F8
:1009EC00304B9B692F4A43F0040393612D4B9B6959
:1009FC0003F004033B613B692A4B9B69294A43F092
:100A0C0008039361274B9B6903F00803FB60FB68A9
:100A1C00FC23BB610323FB6107F118031946224831
:100A2C0001F022FA0323BB610323FB6107F11803D6
:100A3C0019461E4801F018FA1D4B1E4A1A601C4B31
:100A4C0000225A601A4B00229A60194B8022DA60FD
:100A5C00174B4FF400721A61154B4FF400625A6138
:100A6C00134B00229A61124B0022DA61104800F0FD
:100A7C0059FF0346002B01D0FFF75EFF7B680C4A41
:100A8C001A620B4A7B68536200220021122000F08C
:100A9C0012FF122000F02BFF00BF2837BD4680BD8F
:100AAC00002401400010024000080140000C0140ED
:100ABC00580000200800024080B485B000AF786078
:100ACC007B681B68B3F1804F0CD1114BDB69104A6A
:100ADC0043F00103D3610E4BDB6903F00103FB60B0
:100AEC00FB6810E07B681B680A4A93420BD1084BE9
:100AFC00DB69074A43F00203D361054BDB6903F062
:100B0C000203BB60BB6800BF1437BD4680BC704796
:100B1C00001002400004004080B588B000AF78603F
:100B2C0007F1100300221A605A609A60DA607B6841
:100B3C001B68B3F1804F17D10D4B9B690C4A43F0E6
:100B4C00040393610A4B9B6903F00403FB60FB688D
:100B5C0003233B6102237B610223FB6107F110033A
:100B6C001946044801F080F900BF2037BD4680BD0E
:100B7C00001002400008014080B58AB000AF7860D8
:100B8C0007F1140300221A605A609A60DA607B68DD
:100B9C001B68264A934245D1254B9B69244A43F452
:100BAC0080439361224B9B6903F480433B613B6917
:100BBC001F4B9B691E4A43F0080393611C4B9B69B6
:100BCC0003F00803FB60FB6840237B610223BB61DD
:100BDC0003233B6207F114031946164801F044F94C
:100BEC0080237B610023BB610023FB6107F11403AD
:100BFC001946104801F038F90F4B5B687B627B6A31
:100C0C0043F0E0637B627B6A43F004037B620A4A35
:100C1C007B6A536000220021252000F04CFE252029
:100C2C0000F065FE00BF2837BD4680BD003801408E
:100C3C0000100240000C01400000014080B400AFE5
:100C4C00FEE780B400AFFEE780B400AFFEE780B4EF
:100C5C0000AFFEE780B400AFFEE780B400AF00BF8A
:100C6C00BD4680BC704780B400AF00BFBD4680BCA1
:100C7C00704780B400AF00BFBD4680BC704780B5E4
:100C8C0000AF00F093F800BF80BD000080B500AF4E
:100C9C00024800F0B5FF00BF80BD00BF5800002027
:100CAC0080B500AF024800F053FA00BF80BD00BF12
:100CBC002800002080B500AF024802F0D5FD00BF2F
:100CCC0080BD00BF2C01002080B400AF00BFBD462A
:100CDC0080BC7047FFF7F8FF0B480C490C4A002307
:100CEC0002E0D458C4500433C4188C42F9D3094AD6
:100CFC00094C002301E013600432A242FBD303F041
:100D0C00CDFAFFF71DFA7047000000200C00002000
:100D1C003C4300080C000020C8010020FEE7000046
:100D2C0080B500AF084B1B68074A43F010031360F3
:100D3C00032000F0B5FD0F2000F008F8FFF702FECD
:100D4C000023184680BD00BF0020024080B582B051
:100D5C0000AF7860124B1A68124B1B7819464FF48F
:100D6C007A73B3FBF1F3B2FBF3F3184600F0CDFD4D
:100D7C000346002B01D001230EE07B680F2B0AD811
:100D8C00002279684FF0FF3000F095FD064A7B6831
:100D9C001360002300E0012318460837BD4680BDD0
:100DAC0000000020080000200400002080B400AFE8
:100DBC00054B1B781A46054B1B681344034A1360FA
:100DCC0000BFBD4680BC704708000020C401002055
:100DDC0080B400AF024B1B681846BD4680BC704700
:100DEC00C401002080B586B000AF78600023FB758D
:100DFC0000233B610023BB600023FB607B68002B5E
:100E0C0001D10123BEE07B689B68002B7B689B6A49
:100E1C00002B09D17B680022DA627B68002283F800
:100E2C0024207868FFF7C0FD786800F0BDFB03460E
:100E3C00FB757B689B6A03F01003002B40F09980D4
:100E4C00FB7D002B40F095807B689B6A23F48853D4
:100E5C0023F0020343F002027B689A627B685A68B3
:100E6C007B68DB691A437B681B7B5B001343BA68A6
:100E7C001343BB607B689B68B3F5807F03D07B68B2
:100E8C009B68012B02D14FF4807300E000233A6978
:100E9C0013433B617B681B7D012B19D17B681B7B4A
:100EAC00002B09D17B689B69013B5A033B691343B7
:100EBC0043F400633B610BE07B689B6A43F02002C8
:100ECC007B689A627B68DB6A43F001027B68DA62BA
:100EDC007B681B685B6823F469417B681B683A6913
:100EEC000A435A607B681B689A68284B13407A68DF
:100EFC001268B9680B4393607B689B68B3F5807F7D
:100F0C0003D07B689B68012B04D17B681B69013B78
:100F1C001B05FB607B681B68DB6A23F470017B6834
:100F2C001B68FA680A43DA627B681B689A68184B7C
:100F3C001340BA689A420BD17B680022DA627B6854
:100F4C009B6A23F0030343F001027B689A6218E06A
:100F5C007B689B6A23F0120343F010027B689A6251
:100F6C007B68DB6A43F001027B68DA620123FB7564
:100F7C0007E07B689B6A43F010027B689A6201234E
:100F8C00FB75FB7D18461837BD4680BDFDF7E1FFAC
:100F9C00FE0E1FFF80B586B000AFF860B9607A60B6
:100FAC000023FB75FB681B68644A934204D0FB6802
:100FBC001B68634A934206D1604B5B6803F4702351
:100FCC00002B40F0B380FB6893F82430012B01D147
:100FDC000223AEE0FB68012283F82420F86800F0BD
:100FEC0089FA0346FB75FB7D002B40F09A80FB6869
:100FFC009B6A23F4706323F0010343F48072FB6853
:10100C009A62FB681B684E4A934205D14B4B5B6856
:10101C0003F47023002B15D1FB689B6A23F4801218
:10102C00FB689A62FB681B685B6803F48063002BA7
:10103C0026D0FB689B6A23F4405343F48052FB6830
:10104C009A621DE0FB689B6A43F48012FB689A620B
:10105C00FB681B68394A934204D0FB681B68384A0A
:10106C0093420DD1354B5B6803F48063002B07D0A2
:10107C00FB689B6A23F4405343F48052FB689A62EA
:10108C00FB689B6A03F48053002B06D0FB68DB6A79
:10109C0023F00602FB68DA6202E0FB680022DA62E7
:1010AC00FB68002283F82420FB681B6A254A9A629D
:1010BC00FB681B6A244ADA62FB681B6A234A1A63C0
:1010CC00FB681B686FF002021A60FB681B689A6869
:1010DC00FB681B6842F480729A60FB68186AFB68B4
:1010EC001B684C331946BA687B6800F075FCFB68CA
:1010FC001B689B6803F46023B3F5602F08D1FB6871
:10110C001B689A68FB681B6842F4A0029A600FE0A7
:10111C00FB681B689A68FB681B6842F480129A6033
:10112C0006E0FB68002283F8242001E00123FB7514
:10113C00FB7D18461837BD4680BD00BF002401401A
:10114C000028014037160008B3160008CF16000817
:10115C0080B584B000AF78607B681B681B68FB604F
:10116C007B681B685B68BB60BB6803F02003002BCB
:10117C003ED0FB6803F00203002B39D07B689B6ADE
:10118C0003F01003002B05D17B689B6A43F40072BB
:10119C007B689A627B681B689B6803F46023B3F5D9
:1011AC00602F1DD17B681B7B002B19D17B681B68C2
:1011BC005A687B681B6822F020025A607B689B6A25
:1011CC0023F480727B689A627B689B6A03F4805379
:1011DC00002B05D17B689B6A43F001027B689A6205
:1011EC007868FFF7A5FA7B681B686FF012021A602B
:1011FC00BB6803F08003002B4DD0FB6803F00403A5
:10120C00002B48D07B689B6A03F01003002B05D1A0
:10121C007B689B6A43F400527B689A627B681B680C
:10122C009B6803F4E043B3F5E04F12D07B681B6876
:10123C005B6803F48063002B25D17B681B689B687B
:10124C0003F46023B3F5602F1DD17B681B7B002B4F
:10125C0019D17B681B685A687B681B6822F0800276
:10126C005A607B689B6A23F480527B689A627B6825
:10127C009B6A03F48073002B05D17B689B6A43F057
:10128C0001027B689A62786800F035FA7B681B680B
:10129C006FF00C021A60BB6803F04003002B12D0F5
:1012AC00FB6803F00103002B0DD07B689B6A43F4B1
:1012BC0080327B689A62786800F012F87B681B6851
:1012CC006FF001021A6000BF1037BD4680BD80B4BC
:1012DC0083B000AF786000BF0C37BD4680BC704750
:1012EC0080B483B000AF786000BF0C37BD4680BCC3
:1012FC00704780B483B000AF786000BF0C37BD4638
:10130C0080BC704780B485B000AF78603960002332
:10131C00FB730023BB607B6893F82430012B01D155
:10132C000223DCE07B68012283F824203B685B68A5
:10133C00062B1CD87B681B68596B3B685A68134694
:10134C009B001344053B1F2202FA03F3DB431940B5
:10135C003B6818683B685A6813469B001344053B6E
:10136C0000FA03F27B681B680A435A633CE03B6853
:10137C005B680C2B1CD87B681B68196B3B685A6824
:10138C0013469B001344233B1F2202FA03F3DB4357
:10139C0019403B6818683B685A6813469B00134415
:1013AC00233B00FA03F27B681B680A431A631BE0B9
:1013BC007B681B68D96A3B685A6813469B001344C8
:1013CC00413B1F2202FA03F3DB4319403B681868C8
:1013DC003B685A6813469B001344413B00FA03F2E6
:1013EC007B681B680A43DA623B681B68092B1CD9B3
:1013FC007B681B68D9683B681A6813465B0013440A
:10140C001E3B072202FA03F3DB4319403B68986842
:10141C003B681A6813465B0013441E3B00FA03F248
:10142C007B681B680A43DA6019E07B681B681969E2
:10143C003B681A6813465B001344072202FA03F355
:10144C00DB4319403B6898683B681A6813465B009D
:10145C00134400FA03F27B681B680A431A613B6869
:10146C001B68102B03D03B681B68112B32D17B6897
:10147C001B681D4A934225D17B681B689B6803F44B
:10148C000003002B26D17B681B689A687B681B685D
:10149C0042F400029A603B681B68102B1AD1134B64
:1014AC001B68134AA2FB03239A0C13469B0013449C
:1014BC005B00BB6002E0BB68013BBB60BB68002B00
:1014CC00F9D107E07B689B6A43F020027B689A6243
:1014DC000123FB737B68002283F82420FB7B1846D6
:1014EC001437BD4680BC704700240140000000202A
:1014FC0083DE1B4380B584B000AF78600023FB60B3
:10150C000023BB607B681B689B6803F00103012B05
:10151C0040D07B681B689A687B681B6842F00102AC
:10152C009A601F4B1B681F4AA2FB03239B0CBB60DA
:10153C0002E0BB68013BBB60BB68002BF9D1FFF735
:10154C0047FCF8601FE0FFF743FC0246FB68D31A28
:10155C00022B18D97B681B689B6803F00103012BD5
:10156C0011D07B689B6A43F010027B689A627B689F
:10157C00DB6A43F001027B68DA627B68002283F845
:10158C002420012307E07B681B689B6803F00103A0
:10159C00012BD8D1002318461037BD4680BD00BFA3
:1015AC000000002083DE1B4380B584B000AF786060
:1015BC000023FB607B681B689B6803F00103012B15
:1015CC002ED17B681B689A687B681B6822F001022D
:1015DC009A60FFF7FDFBF8601BE0FFF7F9FB024692
:1015EC00FB68D31A022B14D97B681B689B6803F029
:1015FC000103012B0DD17B689B6A43F010027B68C1
:10160C009A627B68DB6A43F001027B68DA62012331
:10161C0007E07B681B689B6803F00103012BDCD09F
:10162C00002318461037BD4680BD80B584B000AF8E
:10163C0078607B685B6AFB60FB689B6A03F0500315
:10164C00002B27D1FB689B6A43F40072FB689A62FB
:10165C00FB681B689B6803F46023B3F5602F15D1FE
:10166C00FB681B7B002B11D1FB689B6A23F48072F7
:10167C00FB689A62FB689B6A03F48053002B05D1CC
:10168C00FB689B6A43F00102FB689A62F868FFF7FB
:10169C004FF804E0FB681B6A1B6B7868984700BF27
:1016AC001037BD4680BD80B584B000AF78607B68D4
:1016BC005B6AFB60F868FFF70AFE00BF1037BD4697
:1016CC0080BD80B584B000AF78607B685B6AFB60DE
:1016DC00FB689B6A43F04002FB689A62FB68DB6A1A
:1016EC0043F00402FB68DA62F868FFF702FE00BF01
:1016FC001037BD4680BD80B483B000AF786000BFAA
:10170C000C37BD4680BC704780B485B000AF7860A4
:10171C007B6803F00703FB600C4BDB68BB60BA68AB
:10172C004FF6FF031340BB60FB681A02BB68134300
:10173C0043F0BF6343F40033BB60044ABB68D3601F
:10174C0000BF1437BD4680BC704700BF00ED00E001
:10175C0080B400AF044BDB681B0A03F00703184688
:10176C00BD4680BC704700BF00ED00E080B483B084
:10177C0000AF0346FB7197F90730002B0BDBFB79AD
:10178C0003F01F02064997F907305B09012000FAA4
:10179C0002F241F8232000BF0C37BD4680BC7047D5
:1017AC0000E100E080B483B000AF03463960FB7108
:1017BC0097F90730002B0ADB3B68DAB20C4997F932
:1017CC0007301201D2B20B4483F800230AE03B68C5
:1017DC00DAB20849FB7903F00F03043B1201D2B2D1
:1017EC000B441A7600BF0C37BD4680BC704700BF57
:1017FC0000E100E000ED00E080B489B000AFF860DB
:10180C00B9607A60FB6803F00703FB61FB69C3F105
:10181C000703042B28BF0423BB61FB690433062B8D
:10182C0002D9FB69033B00E000237B614FF0FF32E0
:10183C00BB6902FA03F3DA43BB681A407B699A402E
:10184C004FF0FF317B6901FA03F3D9437B680B40FE
:10185C00134318462437BD4680BC704780B582B010
:10186C0000AF78607B68013BB3F1807F01D301232B
:10187C000FE00A4A7B68013B53600F214FF0FF30A9
:10188C00FFF790FF054B00229A60044B07221A6069
:10189C00002318460837BD4680BD00BF10E000E0AD
:1018AC0080B582B000AF78607868FFF72DFF00BF7D
:1018BC000837BD4680BD80B586B000AF0346B96021
:1018CC007A60FB7300237B61FFF742FF78617A68D3
:1018DC00B9687869FFF790FF024697F90F30114607
:1018EC001846FFF75FFF00BF1837BD4680BD80B5B7
:1018FC0082B000AF0346FB7197F907301846FFF72B
:10190C0035FF00BF0837BD4680BD80B582B000AF43
:10191C0078607868FFF7A2FF034618460837BD4683
:10192C0080BD000080B485B000AF78600023FB6000
:10193C007B68002B01D1012343E07B681B681A46AE
:10194C00224B1344224AA2FB03231B099A007B68F7
:10195C001A647B681F4ADA637B68022283F82120B1
:10196C007B681B681B68FB60FB6823F47F5323F0C8
:10197C003003FB607B685A687B689B681A437B6802
:10198C00DB681A437B681B691A437B685B691A43E3
:10199C007B689B691A437B68DB691343FA681343C2
:1019AC00FB607B681B68FA681A607B6800229A638C
:1019BC007B68012283F821207B68002283F8202099
:1019CC00002318461437BD4680BC7047F8FFFDBF96
:1019DC00CDCCCCCC0000024080B586B000AFF86016
:1019EC00B9607A603B600023FB75FB6893F820308C
:1019FC00012B01D102234BE0FB68012283F820204C
:101A0C00FB6893F82130DBB2012B3AD1FB68022240
:101A1C0083F82120FB6800229A63FB681B681A6814
:101A2C00FB681B6822F001021A603B687A68B9688F
:101A3C00F86800F0EBF9FB68DB6A002B08D0FB6858
:101A4C001B681A68FB681B6842F00E021A600FE0F4
:101A5C00FB681B681A68FB681B6822F004021A609A
:101A6C00FB681B681A68FB681B6842F00A021A6064
:101A7C00FB681B681A68FB681B6842F001021A605D
:101A8C0005E0FB68002283F820200223FB75FB7D18
:101A9C0018461837BD4680BD80B485B000AF78605D
:101AAC000023FB737B6893F82130DBB2022B08D048
:101ABC007B6804229A637B68002283F82020012330
:101ACC0020E07B681B681A687B681B6822F00E029A
:101ADC001A607B681B681A687B681B6822F001021D
:101AEC001A607B681A6C7B68DB6B012101FA02F2CD
:101AFC005A607B68012283F821207B68002283F8DE
:101B0C002020FB7B18461437BD4680BC7047000074
:101B1C0080B584B000AF78600023FB737B6893F8CA
:101B2C002130DBB2022B05D07B6804229A6301239F
:101B3C00FB7351E07B681B681A687B681B6822F09A
:101B4C000E021A607B681B681A687B681B6822F09F
:101B5C0001021A607B681B68224A934229D07B6879
:101B6C001B68214A934222D07B681B681F4A934210
:101B7C001AD07B681B681E4A934212D07B681B6884
:101B8C001C4A93420AD07B681B681B4A934202D1C1
:101B9C004FF480130EE04FF080730BE04FF4803362
:101BAC0008E04FF4805305E04FF4807302E01023FB
:101BBC0000E00123114A53607B68012283F8212045
:101BCC007B68002283F820207B685B6B002B03D0A2
:101BDC007B685B6B78689847FB7B18461037BD4673
:101BEC0080BD00BF080002401C00024030000240D3
:101BFC0044000240580002406C00024000000240C9
:101C0C0080B584B000AF78607B68DB6B1B68FB60D1
:101C1C007B681B681B68BB607B681B6C04229A404A
:101C2C00FB681340002B4FD0BB6803F00403002B60
:101C3C004AD07B681B681B6803F02003002B07D17C
:101C4C007B681B681A687B681B6822F004021A60A8
:101C5C007B681B68664A934229D07B681B68654A7F
:101C6C00934222D07B681B68634A93421AD07B68EC
:101C7C001B68624A934212D07B681B68604A93428D
:101C8C000AD07B681B685F4A934202D14FF48003F1
:101C9C000EE04FF080630BE04FF4802308E04FF42C
:101CAC00804305E04FF4806302E0402300E004230E
:101CBC00554A53607B68DB6A002B00F094807B688C
:101CCC00DB6A786898478EE07B681B6C02229A402E
:101CDC00FB681340002B56D0BB6803F00203002BAB
:101CEC0051D07B681B681B6803F02003002B0BD1C1
:101CFC007B681B681A687B681B6822F00A021A60F2
:101D0C007B68012283F821207B681B68384A934248
:101D1C0029D07B681B68374A934222D07B681B68AA
:101D2C00354A93421AD07B681B68344A934212D0CE
:101D3C007B681B68324A93420AD07B681B68314A25
:101D4C00934202D14FF400130EE04FF000730BE0FE
:101D5C004FF4003308E04FF4005305E04FF40073E8
:101D6C0002E0202300E00223274A53607B68002214
:101D7C0083F820207B689B6A002B34D07B689B6A9D
:101D8C00786898472FE07B681B6C08229A40FB68A8
:101D9C001340002B28D0BB6803F00803002B23D082
:101DAC007B681B681A687B681B6822F00E021A603D
:101DBC007B681A6C7B68DB6B012101FA02F25A60BA
:101DCC007B6801229A637B68012283F821207B685F
:101DDC00002283F820207B681B6B002B04D07B68CF
:101DEC001B6B7868984700BF00BF1037BD4680BD9D
:101DFC00080002401C000240300002404400024037
:101E0C00580002406C0002400000024080B485B0D3
:101E1C0000AFF860B9607A603B60FB681A6CFB68D5
:101E2C00DB6B012101FA02F25A60FB681B683A680D
:101E3C005A60FB685B68102B08D1FB681B687A68DA
:101E4C009A60FB681B68BA68DA6007E0FB681B687D
:101E5C00BA689A60FB681B687A68DA6000BF14374E
:101E6C00BD4680BC7047000080B48BB000AF78607A
:101E7C00396000237B6200233B6269E101227B6AAB
:101E8C0002FA03F3FB613B681B68FA691340BB6100
:101E9C00BA69FB699A4240F058813B685B689A4A80
:101EAC0093425ED0984A934275D8984A934258D040
:101EBC00964A93426FD8964A934252D0944A934290
:101ECC0069D8944A93424CD0924A934263D8924A2E
:101EDC00934246D0904A93425DD8122B2AD8122BAB
:101EEC0059D801A252F823F06F1F0008491F0008AF
:101EFC005B1F00089D1F0008A31F0008A31F0008FC
:101F0C00A31F0008A31F0008A31F0008A31F00089D
:101F1C00A31F0008A31F0008A31F0008A31F00088D
:101F2C00A31F0008A31F0008A31F0008511F0008CF
:101F3C00651F0008794A934213D02CE03B68DB689C
:101F4C003B6229E03B68DB6804333B6224E03B687E
:101F5C00DB6808333B621FE03B68DB680C333B6299
:101F6C001AE03B689B68002B02D104233B6213E010
:101F7C003B689B68012B05D108233B627B68FA699F
:101F8C001A6109E008233B627B68FA695A6103E035
:101F9C0000233B6200E000BFBB69FF2B01D87B68CC
:101FAC0001E07B6804337B61BB69FF2B02D87B6A41
:101FBC009B0002E07B6A083B9B003B617B691A68D3
:101FCC000F213B6901FA03F3DB431A40396A3B6981
:101FDC0001FA03F31A437B691A603B685B6803F0F0
:101FEC008053002B00F0B1804D4B9B694C4A43F061
:101FFC00010393614A4B9B6903F00103BB60BB680F
:10200C00484A7B6A9B08023352F82330FB607B6A98
:10201C0003F003039B000F2202FA03F3DB43FA687D
:10202C001340FB607B68404A934213D07B683F4A65
:10203C0093420DD07B683E4A934207D07B683D4A61
:10204C00934201D1032306E0042304E0022302E0BF
:10205C00012300E000237A6A02F00302920093400D
:10206C00FA681343FB602F497B6A9B080233FA68BA
:10207C0041F823203B685B6803F48013002B06D0E7
:10208C002D4B9A682C49BB6913438B6006E02A4B95
:10209C009A68BB69DB43284913408B603B685B68DB
:1020AC0003F40013002B06D0234BDA682249BB69DA
:1020BC001343CB6006E0204BDA68BB69DB431E4957
:1020CC001340CB603B685B6803F40033002B06D0F5
:1020DC00194B5A681849BB6913434B6006E0164B01
:1020EC005A68BB69DB43144913404B603B685B681F
:1020FC0003F48033002B21D00F4B1A680E49BB69B7
:10210C0013430B6021E000BF0000321000003110BF
:10211C00000022100000211000001210000011100D
:10212C00001002400000014000080140000C01407A
:10213C000010014000140140000401400B4B1A68D0
:10214C00BB69DB43094913400B607B6A01337B623B
:10215C003B681A687B6A22FA03F3002B7FF48EAE7D
:10216C0000BF00BF2C37BD4680BC70470004014047
:10217C0080B483B000AF78600B467B8013467B70D5
:10218C007B78002B03D07A887B681A6103E07B880C
:10219C001A047B681A6100BF0C37BD4680BC7047BF
:1021AC0080B586B000AF78607B68002B01D101232D
:1021BC0072E27B681B6803F00103002B00F0878040
:1021CC00924B5B6803F00C03042B0CD08F4B5B68B9
:1021DC0003F00C03082B12D18C4B5B6803F4803397
:1021EC00B3F5803F0BD1894B1B6803F40033002BF4
:1021FC006CD07B685B68002B68D101234CE27B6858
:10220C005B68B3F5803F06D1804B1B687F4A43F473
:10221C00803313602EE07B685B68002B0CD17B4B0A
:10222C001B687A4A23F480331360784B1B68774A17
:10223C0023F4802313601DE07B685B68B3F5A02F4B
:10224C000CD1724B1B68714A43F4802313606F4BA3
:10225C001B686E4A43F4803313600BE06B4B1B68B6
:10226C006A4A23F480331360684B1B68674A23F473
:10227C00802313607B685B68002B13D0FEF7A8FDEE
:10228C00386108E0FEF7A4FD02463B69D31A642BC3
:10229C0001D9032300E25D4B1B6803F40033002BD0
:1022AC00F0D014E0FEF794FD386108E0FEF790FDE5
:1022BC0002463B69D31A642B01D90323ECE1534B3F
:1022CC001B6803F40033002BF0D100E000BF7B68E7
:1022DC001B6803F00203002B63D04C4B5B6803F0CC
:1022EC000C03002B0BD0494B5B6803F00C03082B41
:1022FC001CD1464B5B6803F48033002B16D1434B47
:10230C001B6803F00203002B05D07B681B69012BB3
:10231C0001D00123C0E13D4B1B6823F0F8027B6820
:10232C005B69DB00394913430B603AE07B681B693E
:10233C00002B20D0364B01221A60FEF749FD386184
:10234C0008E0FEF745FD02463B69D31A022B01D982
:10235C000323A1E12D4B1B6803F00203002BF0D0EB
:10236C002A4B1B6823F0F8027B685B69DB0027496A
:10237C0013430B6015E0264B00221A60FEF728FD74
:10238C00386108E0FEF724FD02463B69D31A022BA4
:10239C0001D9032380E11D4B1B6803F00203002BC2
:1023AC00F0D17B681B6803F00803002B3AD07B68E4
:1023BC009B69002B19D0174B01221A60FEF708FD00
:1023CC00386108E0FEF704FD02463B69D31A022B84
:1023DC0001D9032360E10D4B5B6A03F00203002B70
:1023EC00F0D0012000F0CEFA1CE00A4B00221A605B
:1023FC00FEF7EEFC38610FE0FEF7EAFC02463B69A3
:10240C00D31A022B08D9032346E100BF0010024067
:10241C000000424280044242924B5B6A03F002038A
:10242C00002BE9D17B681B6803F00403002B00F040
:10243C00A6800023FB758B4BDB6903F08053002BCC
:10244C000DD1884BDB69874A43F08053D361854BB0
:10245C00DB6903F08053BB60BB680123FB75824BC7
:10246C001B6803F48073002B18D17F4B1B687E4ACA
:10247C0043F480731360FEF7ABFC386108E0FEF7A1
:10248C00A7FC02463B69D31A642B01D9032303E151
:10249C00754B1B6803F48073002BF0D07B68DB68F2
:1024AC00012B06D16F4B1B6A6E4A43F0010313627A
:1024BC002DE07B68DB68002B0CD16A4B1B6A694AE8
:1024CC0023F001031362674B1B6A664A23F0040373
:1024DC0013621CE07B68DB68052B0CD1614B1B6A1B
:1024EC00604A43F0040313625E4B1B6A5D4A43F07F
:1024FC00010313620BE05B4B1B6A5A4A23F0010386
:10250C001362584B1B6A574A23F0040313627B680F
:10251C00DB68002B15D0FEF75BFC38610AE0FEF798
:10252C0057FC02463B69D31A41F28832934201D9D7
:10253C000323B1E04B4B1B6A03F00203002BEED0DC
:10254C0014E0FEF745FC38610AE0FEF741FC024658
:10255C003B69D31A41F28832934201D903239BE0A1
:10256C00404B1B6A03F00203002BEED1FB7D012BC9
:10257C0005D13C4BDB693B4A23F08053D3617B682C
:10258C00DB69002B00F08780364B5B6803F00C0393
:10259C00082B61D07B68DB69022B46D1334B0022C0
:1025AC001A60FEF715FC386108E0FEF711FC0246D4
:1025BC003B69D31A022B01D903236DE0294B1B680D
:1025CC0003F00073002BF0D17B681B6AB3F5803FDE
:1025DC0008D1244B5B6823F400327B689B6821494B
:1025EC0013434B601F4B5B6823F474127B68196AAE
:1025FC007B685B6A0B431B4913434B601B4B0122EB
:10260C001A60FEF7E5FB386108E0FEF7E1FB0246D5
:10261C003B69D31A022B01D903233DE0114B1B68F4
:10262C0003F00073002BF0D035E0104B00221A6041
:10263C00FEF7CEFB386108E0FEF7CAFB02463B69A9
:10264C00D31A022B01D9032326E0064B1B6803F097
:10265C000073002BF0D11EE07B68DB69012B07D1E6
:10266C00012319E00010024000700040600042425B
:10267C000B4B5B68FB60FB6803F480327B681B6A66
:10268C009A4206D1FB6803F470127B685B6A9A422B
:10269C0001D0012300E0002318461837BD4680BD49
:1026AC000010024080B584B000AF786039607B6860
:1026BC00002B01D10123D0E06A4B1B6803F0070308
:1026CC003A689A4210D9674B1B6823F00702654998
:1026DC003B6813430B60634B1B6803F007033A68BA
:1026EC009A4201D00123B8E07B681B6803F0020317
:1026FC00002B20D07B681B6803F00403002B05D053
:10270C00594B5B68584A43F4E06353607B681B6821
:10271C0003F00803002B05D0534B5B68524A43F47B
:10272C0060535360504B5B6823F0F0027B689B68EE
:10273C004D4913434B607B681B6803F00103002B6E
:10274C0040D07B685B68012B07D1474B1B6803F4B7
:10275C000033002B15D101237FE07B685B68022BD3
:10276C0007D1414B1B6803F00073002B09D10123E7
:10277C0073E03D4B1B6803F00203002B01D10123D6
:10278C006BE0394B5B6823F003027B685B6836496E
:10279C0013434B60FEF71CFBF8600AE0FEF718FBD6
:1027AC000246FB68D31A41F28832934201D90323C3
:1027BC0053E02D4B5B6803F00C027B685B689B005D
:1027CC009A42EBD1274B1B6803F007033A689A42F5
:1027DC0010D2244B1B6823F0070222493B68134399
:1027EC000B60204B1B6803F007033A689A4201D038
:1027FC00012332E07B681B6803F00403002B08D034
:10280C00194B5B6823F4E0627B68DB681649134361
:10281C004B607B681B6803F00803002B09D0124B3C
:10282C005B6823F460527B681B69DB000E49134321
:10283C004B6000F021F802460B4B5B681B0903F060
:10284C000F030A49CB5C22FA03F3094A1360094BC4
:10285C001B681846FEF77AFA002318461037BD4657
:10286C0080BD00BF00200240001002400843000859
:10287C00000000200400002080B487B000AF0023CB
:10288C00FB600023BB6000237B6100237B60002383
:10289C003B611E4B5B68FB60FB6803F00C03042B75
:1028AC0002D0082B03D027E0194B3B6127E0FB68D3
:1028BC009B0C03F00F03174AD35C7B60FB6803F49B
:1028CC008033002B10D0114B5B685B0C03F00103C1
:1028DC00114AD35CBB607B680D4A03FB02F2BB68F8
:1028EC00B2FBF3F37B6104E07B680C4A02FB03F35D
:1028FC007B617B693B6102E0054B3B6100BF3B693F
:10290C0018461C37BD4680BC704700BF0010024003
:10291C0000127A00204300083043000800093D00F3
:10292C0080B400AF024B1B681846BD4680BC704794
:10293C000000002080B500AFFFF7F2FF0246054B08
:10294C005B681B0A03F007030349CB5C22FA03F311
:10295C00184680BD001002401843000880B500AF37
:10296C00FFF7DEFF0246054B5B68DB0A03F007034B
:10297C000349CB5C22FA03F3184680BD00100240D9
:10298C001843000880B485B000AF78600A4B1B6810
:10299C000A4AA2FB03235B0A7A6802FB03F3FB607F
:1029AC0000BFFB685A1EFA60002BF9D100BF00BFB4
:1029BC001437BD4680BC704700000020D34D621018
:1029CC0080B586B000AF786000233B610023FB60CC
:1029DC007B681B6803F00103002B7DD00023FB7583
:1029EC004F4BDB6903F08053002B0DD14C4BDB6953
:1029FC004B4A43F08053D361494BDB6903F080535E
:102A0C00BB60BB680123FB75464B1B6803F48073EA
:102A1C00002B18D1434B1B68424A43F4807313605C
:102A2C00FEF7D6F9386108E0FEF7D2F902463B69A9
:102A3C00D31A642B01D903236DE03A4B1B6803F4C2
:102A4C008073002BF0D0364B1B6A03F44073FB6091
:102A5C00FB68002B2ED07B685B6803F44073FA682C
:102A6C009A4227D02E4B1B6A23F44073FB602E4BEB
:102A7C0001221A602C4B00221A60294AFB6813624F
:102A8C00FB6803F00103002B14D0FEF7A1F93861A9
:102A9C000AE0FEF79DF902463B69D31A41F28832EF
:102AAC00934201D9032336E01D4B1B6A03F002034A
:102ABC00002BEED01A4B1B6A23F440727B685B68C8
:102ACC00174913430B62FB7D012B05D1144BDB69BA
:102ADC00134A23F08053D3617B681B6803F0020315
:102AEC00002B08D00E4B5B6823F440427B689B683C
:102AFC000B4913434B607B681B6803F01003002BDE
:102B0C0008D0074B5B6823F480027B68DB680449C0
:102B1C0013434B60002318461837BD4680BD00BFD9
:102B2C0000100240007000404004424280B582B068
:102B3C0000AF78607B68002B01D1012341E07B68FA
:102B4C0093F83D30DBB2002B06D17B68002283F872
:102B5C003C207868FDF7B0FF7B68022283F83D20AB
:102B6C007B681A687B6804331946104600F004FB36
:102B7C007B68012283F846207B68012283F83E2083
:102B8C007B68012283F83F207B68012283F8402078
:102B9C007B68012283F841207B68012283F8422064
:102BAC007B68012283F843207B68012283F8442050
:102BBC007B68012283F845207B68012283F83D2045
:102BCC00002318460837BD4680BD000080B485B090
:102BDC0000AF78607B6893F83D30DBB2012B01D0FD
:102BEC0001233AE07B68022283F83D207B681B6856
:102BFC00DA687B681B6842F00102DA607B681B684C
:102C0C00184A93420ED07B681B68B3F1804F09D0F1
:102C1C007B681B68144A934204D07B681B68134A78
:102C2C00934211D17B681B689B6803F00703FB6020
:102C3C00FB68062B10D07B681B681A687B681B68C6
:102C4C0042F001021A6007E07B681B681A687B6817
:102C5C001B6842F001021A60002318461437BD4667
:102C6C0080BC7047002C014000040040000800406C
:102C7C0080B582B000AF78607B68002B01D1012356
:102C8C0041E07B6893F83D30DBB2002B06D17B68CA
:102C9C00002283F83C20786800F039F87B68022227
:102CAC0083F83D207B681A687B680433194610460C
:102CBC0000F062FA7B68012283F846207B680122CF
:102CCC0083F83E207B68012283F83F207B68012239
:102CDC0083F840207B68012283F841207B68012225
:102CEC0083F842207B68012283F843207B68012211
:102CFC0083F844207B68012283F845207B680122FD
:102D0C0083F83D20002318460837BD4680BD80B4AB
:102D1C0083B000AF786000BF0C37BD4680BC7047F5
:102D2C0080B584B000AF786039603B68002B09D166
:102D3C007B6893F83E30DBB2012B14BF01230023D8
:102D4C00DBB222E03B68042B09D17B6893F83F305F
:102D5C00DBB2012B14BF01230023DBB215E03B686F
:102D6C00082B09D17B6893F84030DBB2012B14BFE0
:102D7C0001230023DBB208E07B6893F84130DBB21F
:102D8C00012B14BF01230023DBB2002B01D0012344
:102D9C005EE03B68002B04D17B68022283F83E2066
:102DAC0013E03B68042B04D17B68022283F83F209C
:102DBC000BE03B68082B04D17B68022283F840208F
:102DCC0003E07B68022283F841207B681B680122A8
:102DDC003968184600F050FC7B681B681E4A934209
:102DEC0007D17B681B685A6C7B681B6842F40042F5
:102DFC005A647B681B68184A93420ED07B681B6828
:102E0C00B3F1804F09D07B681B68144A934204D0FD
:102E1C007B681B68124A934211D17B681B689B68C4
:102E2C0003F00703FB60FB68062B10D07B681B6864
:102E3C001A687B681B6842F001021A6007E07B6825
:102E4C001B681A687B681B6842F001021A60002339
:102E5C0018461037BD4680BD002C014000040040D0
:102E6C000008004080B586B000AFF860B9607A60A9
:102E7C000023FB75FB6893F83C30012B01D1022336
:102E8C00AEE0FB68012283F83C207B680C2B00F23F
:102E9C009F8001A252F823F0D92E0008DD2F0008E4
:102EAC00DD2F0008DD2F0008192F0008DD2F00088A
:102EBC00DD2F0008DD2F00085B2F0008DD2F000838
:102ECC00DD2F0008DD2F00089B2F0008FB681B6816
:102EDC00B968184600F0B2F9FB681B689A69FB6880
:102EEC001B6842F008029A61FB681B689A69FB68D0
:102EFC001B6822F004029A61FB681B689969BB6825
:102F0C001A69FB681B680A439A6164E0FB681B68DA
:102F1C00B968184600F0F8F9FB681B689A69FB68F9
:102F2C001B6842F400629A61FB681B689A69FB6833
:102F3C001B6822F480629A61FB681B689969BB6804
:102F4C001B691A02FB681B680A439A6143E0FB6821
:102F5C001B68B968184600F041FAFB681B68DA690F
:102F6C00FB681B6842F00802DA61FB681B68DA69CF
:102F7C00FB681B6822F00402DA61FB681B68D969E4
:102F8C00BB681A69FB681B680A43DA6123E0FB68BB
:102F9C001B68B968184600F08BFAFB681B68DA6985
:102FAC00FB681B6842F40062DA61FB681B68DA6933
:102FBC00FB681B6822F48062DA61FB681B68D969C4
:102FCC00BB681B691A02FB681B680A43DA6102E0E2
:102FDC000123FB7500BFFB68002283F83C20FB7DBE
:102FEC0018461837BD4680BD80B584B000AF7860F8
:102FFC0039600023FB737B6893F83C30012B01D1C3
:10300C000223B4E07B68012283F83C207B68022217
:10301C0083F83D207B681B689B68BB60BB6823F012
:10302C007703BB60BB6823F47F43BB607B681B6882
:10303C00BA689A603B681B68B3F5005F3ED0B3F585
:10304C00005F00F28780B3F5805F00F08680B3F5F7
:10305C00805F7FD8702B1AD0702B7BD8602B50D010
:10306C00602B77D8502B3CD0502B73D8402B58D09A
:10307C00402B6FD8302B64D0302B6BD8202B60D0EA
:10308C00202B67D8002B5CD0102B5AD062E07B68C9
:10309C0018683B6899683B685A683B68DB6800F0C5
:1030AC00CCFA7B681B689B68BB60BB6843F07703FA
:1030BC00BB607B681B68BA689A604FE07B681868D5
:1030CC003B6899683B685A683B68DB6800F0B5FA66
:1030DC007B681B689A687B681B6842F480429A6024
:1030EC003CE07B6818683B6859683B68DB681A46AB
:1030FC0000F02CFA7B681B685021184600F083FA0C
:10310C002CE07B6818683B6859683B68DB681A469A
:10311C0000F04AFA7B681B686021184600F073FACD
:10312C001CE07B6818683B6859683B68DB681A468A
:10313C0000F00CFA7B681B684021184600F063FA1B
:10314C000CE07B681A683B681B681946104600F057
:10315C005AFA03E00123FB7300E000BF7B680122F5
:10316C0083F83D207B68002283F83C20FB7B1846CB
:10317C001037BD4680BD000080B485B000AF7860CC
:10318C0039607B681B68FB607B68294A93420BD0D3
:10319C007B68B3F1804F07D07B68264A934203D0FB
:1031AC007B68254A934208D1FB6823F07003FB60CF
:1031BC003B685B68FA681343FB607B681C4A93426C
:1031CC000BD07B68B3F1804F07D07B68194A9342D0
:1031DC0003D07B68184A934208D1FB6823F44073F0
:1031EC00FB603B68DB68FA681343FB60FB6823F009
:1031FC0080023B685B691343FB607B68FA681A606A
:10320C003B689A687B68DA623B681A687B689A62EA
:10321C007B68074A934203D13B681A697B681A633F
:10322C007B6801225A6100BF1437BD4680BC7047D1
:10323C00002C0140000400400008004080B487B01E
:10324C0000AF786039607B681B6A7B617B681B6AA6
:10325C0023F001027B681A627B685B683B617B68C8
:10326C009B69FB60FB6823F07003FB60FB6823F039
:10327C000303FB603B681B68FA681343FB607B69C4
:10328C0023F002037B613B689B687A6913437B6183
:10329C007B681C4A93420CD17B6923F008037B6149
:1032AC003B68DB687A6913437B617B6923F0040319
:1032BC007B617B68134A934211D13B6923F4807381
:1032CC003B613B6923F400733B613B685B693A6982
:1032DC0013433B613B689B693A6913433B617B68D1
:1032EC003A695A607B68FA689A613B685A687B68ED
:1032FC005A637B687A691A6200BF1C37BD4680BC72
:10330C00704700BF002C014080B487B000AF7860DC
:10331C0039607B681B6A7B617B681B6A23F0100237
:10332C007B681A627B685B683B617B689B69FB60AE
:10333C00FB6823F4E043FB60FB6823F44073FB6001
:10334C003B681B681B02FA681343FB607B6923F024
:10335C0020037B613B689B681B017A6913437B618B
:10336C007B681D4A93420DD17B6923F080037B61FE
:10337C003B68DB681B017A6913437B617B6923F033
:10338C0040037B617B68144A934213D13B6923F45D
:10339C0080633B613B6923F400633B613B685B6981
:1033AC009B003A6913433B613B689B699B003A69FC
:1033BC0013433B617B683A695A607B68FA689A618F
:1033CC003B685A687B689A637B687A691A6200BFAB
:1033DC001C37BD4680BC7047002C014080B487B0C0
:1033EC0000AF786039607B681B6A7B617B681B6A05
:1033FC0023F480727B681A627B685B683B617B6834
:10340C00DB69FB60FB6823F07003FB60FB6823F057
:10341C000303FB603B681B68FA681343FB607B6922
:10342C0023F400737B613B689B681B027A6913432E
:10343C007B617B681D4A93420DD17B6923F4006349
:10344C007B613B68DB681B027A6913437B617B6998
:10345C0023F480637B617B68144A934213D13B69EC
:10346C0023F480533B613B6923F400533B613B687D
:10347C005B691B013A6913433B613B689B691B0108
:10348C003A6913433B617B683A695A607B68FA6816
:10349C00DA613B685A687B68DA637B687A691A621E
:1034AC0000BF1C37BD4680BC704700BF002C0140DC
:1034BC0080B487B000AF786039607B681B6A3B6171
:1034CC007B681B6A23F480527B681A627B685B689A
:1034DC007B617B68DB69FB60FB6823F4E043FB608A
:1034EC00FB6823F44073FB603B681B681B02FA68A3
:1034FC001343FB603B6923F400533B613B689B68BF
:10350C001B033A6913433B617B680F4A934209D111
:10351C007B6923F480437B613B685B699B017A691F
:10352C0013437B617B687A695A607B68FA68DA615D
:10353C003B685A687B681A647B683A691A6200BFF8
:10354C001C37BD4680BC7047002C014080B487B04E
:10355C0000AFF860B9607A60FB681B6A7B61FB683E
:10356C001B6A23F00102FB681A62FB689B693B61D2
:10357C003B6923F0F0033B617B681B013A69134301
:10358C003B617B6923F00A037B617A69BB68134357
:10359C007B61FB683A699A61FB687A691A6200BFC1
:1035AC001C37BD4680BC704780B487B000AFF86054
:1035BC00B9607A60FB681B6A7B61FB681B6A23F04D
:1035CC001002FB681A62FB689B693B613B6923F440
:1035DC0070433B617B681B033A6913433B617B6916
:1035EC0023F0A0037B61BB681B017A6913437B61E9
:1035FC00FB683A699A61FB687A691A6200BF1C37EA
:10360C00BD4680BC704780B485B000AF786039602F
:10361C007B689B68FB60FB6823F07003FB603A6877
:10362C00FB68134343F00703FB607B68FA689A60FE
:10363C0000BF1437BD4680BC704780B487B000AF64
:10364C00F860B9607A603B60FB689B687B617B6962
:10365C0023F47F437B613B681A027B681A43BB6887
:10366C0013437A6913437B61FB687A699A6000BFE4
:10367C001C37BD4680BC704780B487B000AFF86083
:10368C00B9607A60BB6803F01F03012202FA03F3EE
:10369C007B61FB681A6A7B69DB431A40FB681A6220
:1036AC00FB681A6ABB6803F01F03796801FA03F31D
:1036BC001A43FB681A6200BF1C37BD4680BC7047BA
:1036CC0080B485B000AF786039607B6893F83C308B
:1036DC00012B01D1022346E07B68012283F83C20B8
:1036EC007B68022283F83D207B681B685B68FB606B
:1036FC007B681B689B68BB60FB6823F07003FB60F6
:10370C003B681B68FA681343FB607B681B68FA68AC
:10371C005A607B681B68164A93420ED07B681B6804
:10372C00B3F1804F09D07B681B68124A934204D0D6
:10373C007B681B68104A93420CD1BB6823F0800352
:10374C00BB603B685B68BA681343BB607B681B68F3
:10375C00BA689A607B68012283F83D207B6800225E
:10376C0083F83C20002318461437BD4680BC7047B4
:10377C00002C0140000400400008004080B582B0DD
:10378C0000AF78607B68002B01D1012342E07B689D
:10379C0093F84130DBB2002B06D17B68002283F812
:1037AC0040207868FDF7E8F97B68242283F84120F3
:1037BC007B681B68DA687B681B6822F40052DA604D
:1037CC00786800F0D5FC7B681B681A697B681B68FD
:1037DC0022F490421A617B681B685A697B681B68EB
:1037EC0022F02A025A617B681B68DA687B681B68C6
:1037FC0042F40052DA607B6800225A647B68202213
:10380C0083F841207B68202283F842207B680022C9
:10381C005A63002318460837BD4680BD80B584B076
:10382C0000AFF860B9601346FB80FB6893F8423038
:10383C00DBB2202B12D1BB68002B02D0FB88002BF3
:10384C0001D101230BE0FB6800221A63FB881A46A6
:10385C00B968F86800F0B7FA034600E0022318468E
:10386C001037BD4680BD000080B5BAB000AF78609F
:10387C007B681B681B68C7F8E4307B681B68DB68D7
:10388C00C7F8E0307B681B685B69C7F8DC30002345
:10389C00C7F8D8300023C7F8D430D7F8E43003F099
:1038AC000F03C7F8D830D7F8D830002B0FD1D7F882
:1038BC00E43003F02003002B09D0D7F8E03003F0FC
:1038CC002003002B03D0786800F093FB5BE2D7F861
:1038DC00D830002B00F0DE80D7F8DC3003F0010389
:1038EC00002B06D1D7F8E03003F49073002B00F0D6
:1038FC00D180D7F8E43003F00103002B0BD0D7F8BC
:10390C00E03003F48073002B05D07B685B6C43F0D4
:10391C0001027B685A64D7F8E43003F00403002BEF
:10392C000BD0D7F8DC3003F00103002B05D07B68FB
:10393C005B6C43F002027B685A64D7F8E43003F006
:10394C000203002B0BD0D7F8DC3003F00103002B63
:10395C0005D07B685B6C43F004027B685A64D7F833
:10396C00E43003F00803002B11D0D7F8E03003F05B
:10397C002003002B05D1D7F8DC3003F00103002B1A
:10398C0005D07B685B6C43F008027B685A647B68EB
:10399C005B6C002B00F0F281D7F8E43003F02003CD
:1039AC00002B08D0D7F8E03003F02003002B02D016
:1039BC00786800F01EFB7B681B685B6903F04003B2
:1039CC00002B14BF01230023DBB2C7F8D4307B6873
:1039DC005B6C03F00803002B03D1D7F8D430002B19
:1039EC004FD0786800F028FA7B681B685B6903F09D
:1039FC004003002B41D07B681B681433C7F89C3004
:103A0C00D7F89C3053E8003FC7F89830D7F8983077
:103A1C0023F04003C7F8D0307B681B681433D7F809
:103A2C00D020C7F8A820C7F8A430D7F8A410D7F82E
:103A3C00A82041E80023C7F8A030D7F8A030002B0D
:103A4C00D9D17B68DB6B002B13D07B68DB6B7E4A98
:103A5C005A637B68DB6B1846FEF75AF80346002B5B
:103A6C0016D07B68DB6B5B6B7A68D26B1046984721
:103A7C000EE0786800F093F90AE0786800F08FF9AE
:103A8C0006E0786800F08BF97B6800225A6475E1D7
:103A9C0000BF73E17B681B6B012B40F04F81D7F8A3
:103AAC00E43003F01003002B00F04881D7F8E0302D
:103ABC0003F01003002B00F041810023BB607B68F6
:103ACC001B681B68BB607B681B685B68BB60BB6862
:103ADC007B681B685B6903F04003002B00F0B68029
:103AEC007B68DB6B1B685B68A7F8BE30B7F8BE3031
:103AFC00002B00F045817B689B8DB7F8BE209A4265
:103B0C0080F03E817B68B7F8BE20DA857B68DB6B82
:103B1C009B69202B00F088807B681B680C33C7F8EE
:103B2C008830D7F8883053E8003FC7F88430D7F88E
:103B3C00843023F48073C7F8B8307B681B680C336F
:103B4C00D7F8B820C7F89420C7F89030D7F8901061
:103B5C00D7F8942041E80023C7F88C30D7F88C3084
:103B6C00002BD9D17B681B6814337B677B6F53E8C0
:103B7C00003F3B673B6F23F00103C7F8B4307B6811
:103B8C001B681433D7F8B420C7F88020FB67F96F93
:103B9C00D7F8802041E80023BB67BB6F002BE1D135
:103BAC007B681B6814333B663B6E53E8003FFB6538
:103BBC00FB6D23F04003C7F8B0307B681B681433EF
:103BCC00D7F8B020FA66BB66B96EFA6E41E80023EE
:103BDC007B667B6E002BE3D17B68202283F842202E
:103BEC007B6800221A637B681B680C33FB64FB6CDC
:103BFC0053E8003FBB64BB6C23F01003C7F8AC3038
:103C0C007B681B680C33D7F8AC20BA657B65796D83
:103C1C00BA6D41E800233B653B6D002BE3D17B681B
:103C2C00DB6B1846FDF738FF7B6802225A637B6812
:103C3C009A8D7B68DB8D9BB2D31A9BB21946786840
:103C4C0000F0B6F89CE000BF093F00087B689A8D35
:103C5C007B68DB8D9BB2D31AA7F8CE307B68DB8DEB
:103C6C009BB2002B00F08E80B7F8CE30002B00F00A
:103C7C0089807B681B680C33BB63BB6B53E8003FCC
:103C8C007B637B6B23F49073C7F8C8307B681B682D
:103C9C000C33D7F8C8207A643B64396C7A6C41E8F1
:103CAC000023FB63FB6B002BE3D17B681B68143395
:103CBC007B627B6A53E8003F3B623B6A23F0010363
:103CCC00C7F8C4307B681B681433D7F8C4203A6338
:103CDC00FB62F96A3A6B41E80023BB62BB6A002BBA
:103CEC00E3D17B68202283F842207B6800221A6390
:103CFC007B681B680C333B613B6953E8003FFB60FE
:103D0C00FB6823F01003C7F8C0307B681B680C33CA
:103D1C00D7F8C020FA61BB61B969FA6941E80023A0
:103D2C007B617B69002BE3D17B6802225A63B7F875
:103D3C00CE301946786800F03BF823E0D7F8E43031
:103D4C0003F08003002B09D0D7F8E03003F0800398
:103D5C00002B03D0786800F0E5F814E0D7F8E430D5
:103D6C0003F04003002B0ED0D7F8E03003F04003F3
:103D7C00002B08D0786800F024F904E000BF02E0C2
:103D8C0000BF00E000BFE837BD4680BD80B483B003
:103D9C0000AF786000BF0C37BD4680BC704780B464
:103DAC0083B000AF786000BF0C37BD4680BC704755
:103DBC0080B483B000AF78600B467B8000BF0C37BB
:103DCC00BD4680BC704780B485B000AFF860B96068
:103DDC001346FB80FB68BA689A62FB68FA889A857E
:103DEC00FB68FA88DA85FB6800225A64FB68222299
:103DFC0083F84220FB681B69002B07D0FB681B680B
:103E0C00DA68FB681B6842F48072DA60FB681B6836
:103E1C005A69FB681B6842F001025A61FB681B6817
:103E2C00DA68FB681B6842F02002DA60002318464F
:103E3C001437BD4680BC704780B495B000AF786035
:103E4C007B681B680C337B637B6B53E8003F3B63E5
:103E5C003B6B23F49073FB647B681B680C33FA6C2C
:103E6C003A64FB63F96B3A6C41E80023BB63BB6BB0
:103E7C00002BE5D17B681B6814333B623B6A53E82B
:103E8C00003FFB61FB6923F00103BB647B681B688B
:103E9C001433BA6CFA62BB62B96AFA6A41E800235D
:103EAC007B627B6A002BE5D17B681B6B012B19D1E4
:103EBC007B681B680C33FB60FB6853E8003FBB60FE
:103ECC00BB6823F010037B647B681B680C337A6C33
:103EDC00BA617B617969BA6941E800233B613B694E
:103EEC00002BE5D17B68202283F842207B680022DE
:103EFC001A6300BF5437BD4680BC704780B584B090
:103F0C0000AF78607B685B6AFB60FB680022DA8537
:103F1C00FB680022DA84F868FFF741FF00BF103716
:103F2C00BD4680BD80B485B000AF78607B6893F8E7
:103F3C004130DBB2212B3ED17B689B68B3F5805FAF
:103F4C0014D17B681B69002B10D17B681B6AFB604A
:103F5C00FB681B881A467B681B68C2F308025A6010
:103F6C007B681B6A9A1C7B681A6208E07B681B6A78
:103F7C00591C7A6811621A787B681B685A607B68D6
:103F8C00DB8C9BB2013B9BB27A681946D184002B27
:103F9C000FD17B681B68DA687B681B6822F0800293
:103FAC00DA607B681B68DA687B681B6842F0400249
:103FBC00DA60002300E0022318461437BD4680BCAB
:103FCC00704780B582B000AF78607B681B68DA6898
:103FDC007B681B6822F04002DA607B68202283F841
:103FEC0041207868FFF7D2FE002318460837BD46FB
:103FFC0080BD80B58CB000AF78607B6893F84230A0
:10400C00DBB2222B40F0AE807B689B68B3F5805FFF
:10401C0017D17B681B69002B13D10023FB627B68D3
:10402C009B6ABB627B681B685B689BB2C3F308032B
:10403C009AB2BB6A1A807B689B6A9A1C7B689A62EC
:10404C0026E07B689B6AFB620023BB627B689B68F3
:10405C00B3F5805F07D07B689B68002B0AD17B6827
:10406C001B69002B06D17B681B685B68DAB2FB6AA4
:10407C001A7008E07B681B685B68DBB203F07F0397
:10408C00DAB2FB6A1A707B689B6A5A1C7B689A626C
:10409C007B68DB8D9BB2013B9BB27A681946D1855C
:1040AC00002B5DD17B681B68DA687B681B6822F08B
:1040BC002002DA607B681B68DA687B681B6822F474
:1040CC008072DA607B681B685A697B681B6822F017
:1040DC0001025A617B68202283F842207B6800220F
:1040EC005A637B681B6B012B35D17B6800221A63EA
:1040FC007B681B680C337B617B6953E8003F3B6139
:10410C003B6923F010037B627B681B680C337A6A73
:10411C003A62FB61F9693A6A41E80023BB61BB6909
:10412C00002BE5D17B681B681B6803F01003102B78
:10413C000AD10023FB607B681B681B68FB607B68F3
:10414C001B685B68FB60FB687B689B8D1946786815
:10415C00FFF72EFE02E07868FCF728FB002302E054
:10416C00002300E0022318463037BD4680BD000016
:10417C0080B584B000AF78607B681B681B6923F442
:10418C0040517B68DA687B681B680A431A617B685C
:10419C009A687B681B691A437B685B691343BB6035
:1041AC007B681B68DB6823F4B05323F00C037A683C
:1041BC001268B9680B43D3607B681B685B6923F496
:1041CC0040717B689A697B681B680A435A617B68FB
:1041DC001B682C4A934203D1FEF7C0FBF86002E047
:1041EC00FEF7A8FBF860FA6813469B0013449A008C
:1041FC001A447B685B689B00B2FBF3F3224AA2FB78
:10420C0003235B091901FA6813469B0013449A00B7
:10421C001A447B685B689B00B2FBF3F21A4BA3FB5E
:10422C0002035B09642000FB03F3D31A1B01323336
:10423C00154AA2FB03235B0903F0F0031944FA6847
:10424C0013469B0013449A001A447B685B689B00DE
:10425C00B2FBF3F20C4BA3FB02035B09642000FBE3
:10426C0003F3D31A1B013233074AA2FB03235B0966
:10427C0003F00F027B681B680A449A6000BF10377A
:10428C00BD4680BD003801401F85EB5103460244FA
:10429C00934200D1704703F8011BF9E770B5002673
:1042AC000C4D0D4C641BA410A64209D100F01AF859
:1042BC0000260A4D0A4C641BA410A64205D170BD01
:1042CC0055F8043B98470136EEE755F8043B984700
:1042DC000136F2E734430008344300083443000845
:1042EC0038430008F8B500BFF8BC08BC9E467047C0
:0C42FC00F8B500BFF8BC08BC9E46704737
:10430800000000000000000001020304060708097D
:10431800000000000102030402030405060708095F
:0C4328000A0B0C0D0E0F1010010200001B
:04433400310100084B
:044338000D0100086B
:0C433C000024F40010000000010000004C
:0400000508000CE102
:00000001FF
