:020000040800F2
:1000000000500020A9080008050600080B0600089B
:1000100011060008170600081D0600080000000071
:10002000000000000000000000000000230600089F
:100030002F060008000000003B06000847060008E5
:10004000F1080008F1080008F1080008F1080008AC
:10005000F1080008F1080008F1080008F10800089C
:10006000F1080008F1080008F1080008F10800088C
:10007000F1080008F108000855060008F10800081A
:10008000F1080008F1080008F1080008F10800086C
:10009000F1080008F1080008F1080008F10800085C
:1000A000F1080008F1080008F1080008F10800084C
:1000B00069060008F1080008F1080008F1080008C6
:1000C000F1080008F1080008F1080008F10800082C
:1000D000F1080008F1080008F1080008F10800081C
:1000E000F1080008F1080008F1080008000000000D
:1000F0000000000000000000000000000000000000
:0C01000000000000000000005FF808F1A3
:10010C0010B5054C237833B9044B13B10448AFF345
:10011C0000800123237010BD10000020000000009F
:10012C002031000808B5034B1BB103490348AFF35A
:10013C00008008BD000000001400002020310008E1
:10014C0080B500AF064800F009FD0121044800F01D
:10015C00B3FD034800F0B6FE03469BB2184680BDC3
:10016C002C00002080B584B000AF3B1D00221A602B
:10017C005A609A60184B194A1A60174B00229A6001
:10018C00154B00221A73144B00221A75124B4FF4A4
:10019C006022DA61104B00225A600F4B01221A6167
:1001AC000D4800F003FC0346002B01D000F0ECF9E5
:1001BC0000237B600123BB600023FB603B1D1946C1
:1001CC00054800F08BFE0346002B01D000F0DCF953
:1001DC0000BF1037BD4680BD2C000020002401401C
:1001EC0080B588B000AF786007F1100300221A6068
:1001FC005A609A60DA607B681B68144A934221D17A
:10020C00134B9B69124A43F400739361104B9B6927
:10021C0003F40073FB60FB680D4B9B690C4A43F0C5
:10022C00040393610A4B9B6903F00403BB60BB6836
:10023C0001233B6103237B6107F110031946054839
:10024C0001F04EFA00BF2037BD4680BD00240140AE
:10025C00001002400008014080B582B000AF0C4B8A
:10026C005B690B4A43F001035361094B5B6903F073
:10027C0001037B607B68002200210E2001F099F8BD
:10028C000E2001F0B2F800BF0837BD4680BD00BF9C
:10029C000010024080B588B000AF07F110030022B7
:1002AC001A605A609A60DA601D4B9B691C4A43F0D5
:1002BC00200393611A4B9B6903F02003FB60FB68DE
:1002CC00174B9B69164A43F004039361144B9B69CB
:1002DC0003F00403BB60BB68114B9B69104A43F0ED
:1002EC00080393610E4B9B6903F008037B607B68EA
:1002FC00002207210B4801F077FB07233B61012308
:10030C007B610023BB610223FB6107F110031946DB
:10031C00044801F0E5F900BF2037BD4680BD00BFA1
:10032C0000100240000C014080B500AF00F0DCFA78
:10033C0000F012F8FFF7AEFFFFF714FF00F00EFA13
:10034C0000F09CF9FFF788FF024802F031F900F049
:10035C005FF8FCE77C00002080B594B000AF07F19B
:10036C00280328220021184602F0A8FE07F11403E6
:10037C0000221A605A609A60DA601A613B1D0022F2
:10038C001A605A609A60DA600123BB624FF48033C2
:10039C00FB6200233B630123BB6302237B644FF4AA
:1003AC008033BB644FF4E013FB6407F12803184659
:1003BC0001F032FB0346002B01D000F0E5F80F23CF
:1003CC007B610223BB610023FB614FF480633B62C2
:1003DC0000237B6207F114030221184601F09EFDF5
:1003EC000346002B01D000F0CFF802237B604FF4C2
:1003FC000043FB603B1D184601F01EFF0346002B1B
:10040C0001D000F0C1F800BF5037BD4680BD0000E0
:10041C0080B500AFFFF794FE03461A46364B1A80A0
:10042C00364B1B78013B072B5DD801A252F823F009
:10043C005D04000867040008710400087B040008D0
:10044C00850400088F04000899040008A304000820
:10045C00294B1A882A4B5A8045E0274B1A88284B7F
:10046C009A8040E0244B1A88254BDA803BE0224BE3
:10047C001A88234B1A8136E01F4B1A88204B5A815D
:10048C0031E01D4B1A881E4B9A812CE01A4B1A88AE
:10049C001B4BDA8127E0184B1A88194B1A82194B1F
:1004AC001B780133DAB2174B1A70154B1B221A70DA
:1004BC00144B1A78124B5A70114B05225A82104B5E
:1004CC0005229A820E4BDE229A750D4BDE22DA75CE
:1004DC000A4B00221A704FF6FF73182208490A487B
:1004EC0002F06CFC00BF094800F012F803461A46F3
:1004FC00024B1A7000BF80BD5C0000200000002081
:10050C006000002078000020C40000207C00002047
:10051C0080B582B000AF78607B681B68B3F1804F08
:10052C0027D1174B1B7803F00103DBB21A460121CC
:10053C00144801F059FA124B1B785B10DBB203F034
:10054C000103DBB21A4602210E4801F04DFA0C4BA6
:10055C001B789B10DBB203F00103DBB21A460421BB
:10056C00084801F041FA064B1B780133DAB2044B10
:10057C001A70034B1B7818460837BD4680BD00BF68
:10058C0001000020000C014080B400AF72B600BF27
:10059C00FEE7000080B485B000AF154B9B69144A90
:1005AC0043F001039361124B9B6903F00103BB60A1
:1005BC00BB680F4BDB690E4A43F08053D3610C4B85
:1005CC00DB6903F080537B607B680A4B5B68FB60E4
:1005DC00FB6823F0E063FB60FB6843F00073FB6097
:1005EC00044AFB68536000BF1437BD4680BC70479B
:1005FC00001002400000014080B400AFFEE780B460
:10060C0000AFFEE780B400AFFEE780B400AFFEE7BA
:10061C0080B400AFFEE780B400AF00BFBD4680BC25
:10062C00704780B400AF00BFBD4680BC704780B43B
:10063C0000AF00BFBD4680BC704780B500AF00F076
:10064C0099F900BF80BD000080B500AF024800F0F2
:10065C0041FF00BF80BD00BF0C01002080B500AF82
:10066C00024801F0F7FF00BF80BD00BF7C000020F6
:10067C0080B400AF00BFBD4680BC704780B586B06B
:10068C0000AF07F1080300221A605A609A60DA6022
:10069C003B4600221A605A601D4B4FF080421A6094
:1006AC001B4B00225A601A4B00229A60184B41F2E5
:1006BC007072DA60164B00221A61154B80229A6117
:1006CC00134801F025FF0346002B01D0FFF75CFF18
:1006DC004FF48053BB6007F1080319460C4802F035
:1006EC00C1F80346002B01D0FFF74EFF00233B60FF
:1006FC0000237B603B461946054802F09FFA0346EF
:10070C00002B01D0FFF740FF00BF1837BD4680BD5E
:10071C007C00002080B584B000AF78607B681B68DB
:10072C00B3F1804F13D10C4BDB690B4A43F001033F
:10073C00D361094BDB6903F00103FB60FB6800220A
:10074C0000211C2000F035FE1C2000F04EFE00BFE6
:10075C001037BD4680BD00BF0010024080B500AF11
:10076C00114B124A1A60104B4FF416525A600E4B32
:10077C0000229A600C4B0022DA600B4B00221A61AB
:10078C00094B0C225A61084B00229A61064B00223D
:10079C00DA61054802F0C2FA0346002B01D0FFF7DC
:1007AC00F3FE00BF80BD00BFC40000200038014034
:1007BC0080B588B000AF786007F1100300221A6092
:1007CC005A609A60DA607B681B682F4A934257D153
:1007DC002E4B9B692D4A43F4804393612B4B9B69B1
:1007EC0003F48043FB60FB68284B9B69274A43F06A
:1007FC0004039361254B9B6903F00403BB60BB6846
:10080C004FF400733B6102237B610323FB6107F10F
:10081C00100319461E4800F063FF4FF480633B61E0
:10082C0000237B610023BB6107F1100319461848B4
:10083C0000F056FF174B184A1A60164B10225A60DC
:10084C00144B00229A60134B8022DA60114B002269
:10085C001A61104B00225A610E4B20229A610D4BEB
:10086C000022DA610B4800F0DBFD0346002B01D0BF
:10087C00FFF78AFE7B68074A9A63064A7B685362D5
:10088C0000BF2037BD4680BD00380140001002403B
:10089C00000801400C01002044000240FFF7E8FE74
:1008AC000B480C490C4A002302E0D458C4500433C2
:1008BC00C4188C42F9D3094A094C002301E0136097
:1008CC000432A242FBD302F001FCFFF72DFD70476E
:1008DC0000000020100000208031000810000020D3
:1008EC0054010020FEE7000080B500AF084B1B68E8
:1008FC00074A43F010031360032000F04FFD0F2054
:10090C0000F008F8FFF746FE0023184680BD00BF34
:10091C000020024080B582B000AF7860124B1A689C
:10092C00124B1B7819464FF47A73B3FBF1F3B2FBFD
:10093C00F3F3184600F067FD0346002B01D00123AA
:10094C000EE07B680F2B0AD8002279684FF0FF303D
:10095C0000F02FFD064A7B681360002300E00123A2
:10096C0018460837BD4680BD040000200C0000204E
:10097C000800002080B400AF054B1B781A46054BCD
:10098C001B681344034A136000BFBD4680BC70470C
:10099C000C0000205001002080B400AF024B1B68FB
:1009AC001846BD4680BC70475001002080B586B00B
:1009BC0000AF78600023FB7500233B610023BB6014
:1009CC000023FB607B68002B01D10123BEE07B6818
:1009DC009B68002B7B689B6A002B09D17B680022EB
:1009EC00DA627B68002283F824207868FFF7F8FB32
:1009FC00786800F0C5FB0346FB757B689B6A03F0C7
:100A0C001003002B40F09980FB7D002B40F095806B
:100A1C007B689B6A23F4885323F0020343F00202A1
:100A2C007B689A627B685A687B68DB691A437B68CF
:100A3C001B7B5B001343BA681343BB607B689B68EA
:100A4C00B3F5807F03D07B689B68012B02D14FF4F8
:100A5C00807300E000233A6913433B617B681B7D84
:100A6C00012B19D17B681B7B002B09D17B689B69FF
:100A7C00013B5A033B69134343F400633B610BE0B6
:100A8C007B689B6A43F020027B689A627B68DB6A16
:100A9C0043F001027B68DA627B681B685B6823F4B5
:100AAC0069417B681B683A690A435A607B681B681A
:100ABC009A68284B13407A681268B9680B439360A4
:100ACC007B689B68B3F5807F03D07B689B68012BA8
:100ADC0004D17B681B69013B1B05FB607B681B68B1
:100AEC00DB6A23F470017B681B68FA680A43DA62DC
:100AFC007B681B689A68184B1340BA689A420BD1F2
:100B0C007B680022DA627B689B6A23F0030343F064
:100B1C0001027B689A6218E07B689B6A23F01203DF
:100B2C0043F010027B689A627B68DB6A43F0010237
:100B3C007B68DA620123FB7507E07B689B6A43F0F4
:100B4C0010027B689A620123FB75FB7D18461837EF
:100B5C00BD4680BDFDF7E1FFFE0E1FFF80B584B0E2
:100B6C0000AF78600023FB737B6893F82430012B73
:100B7C0001D1022398E07B68012283F82420786855
:100B8C0000F0A4FA0346FB73FB7B002B40F087803C
:100B9C007B689B6A23F4407323F0010343F4807257
:100BAC007B689A627B681B68414A934205D1414B32
:100BBC005B6803F47023002B15D17B689B6A23F4CC
:100BCC0080127B689A627B681B685B6803F48063A5
:100BDC00002B26D07B689B6A23F4405343F480524D
:100BEC007B689A621DE07B689B6A43F480127B6889
:100BFC009A627B681B682F4A934204D07B681B68FF
:100C0C002B4A93420DD12B4B5B6803F48063002B72
:100C1C0007D07B689B6A23F4405343F480527B6873
:100C2C009A627B689B6A03F48053002B06D07B6826
:100C3C00DB6A23F006027B68DA6202E07B68002242
:100C4C00DA627B68002283F824207B681B686FF0D3
:100C5C0002021A607B681B689B6803F46023B3F57F
:100C6C00602F13D17B681B68114A934205D1114B3D
:100C7C005B6803F47023002B08D17B681B689A68AF
:100C8C007B681B6842F4A0029A600CE07B681B68CE
:100C9C009A687B681B6842F480129A6003E07B6858
:100CAC00002283F82420FB7B18461037BD4680BDFC
:100CBC00002801400024014090B587B000AF786057
:100CCC00396000237B610023FB6000233B61FFF74D
:100CDC0063FE78617B681B689B6803F48073002B50
:100CEC000BD07B689B6A43F020027B689A627B681E
:100CFC00002283F824200123D3E07B681B685B6807
:100D0C0003F48073002B31D17B681B68DB6A03F41E
:100D1C007003002B2AD121E03B68B3F1FF3F1DD0BB
:100D2C003B68002B07D0FFF737FE02467B69D31ACE
:100D3C003A689A4212D27B681B681B6803F0020364
:100D4C00002B0BD17B689B6A43F004027B689A6290
:100D5C007B68002283F824200323A2E07B681B68B5
:100D6C001B6803F00203002BD6D070E04F4B1C68BD
:100D7C00022001F017FB0346B4FBF3F27B681B68FF
:100D8C0019694B4B0B40002B18D17B681B68D96839
:100D9C00484B0B40002B11D17B681B681969464BE3
:100DAC000B40002B08D17B681B68D968434B0B4068
:100DBC00002B01D1142320E029231EE07B681B6843
:100DCC0019693D4B0B40002B06D17B681B68D96819
:100DDC003A4B0B40002B0DD07B681B681969384BC4
:100DEC000B40002B08D17B681B68D968344B0B4037
:100DFC00002B01D1542300E0FC2302FB03F33B61E5
:100E0C0021E03B68B3F1FF3F1AD03B68002B07D0C1
:100E1C00FFF7C2FD02467B69D31A3A689A420FD299
:100E2C00FB683A699A420BD97B689B6A43F00402CF
:100E3C007B689A627B68002283F82420032330E0CD
:100E4C00FB680133FB60FB683A699A42D9D87B682E
:100E5C001B686FF012021A607B689B6A43F4007285
:100E6C007B689A627B681B689B6803F46023B3F50C
:100E7C00602F15D17B681B7B002B11D17B689B6A83
:100E8C0023F480727B689A627B689B6A03F48053BC
:100E9C00002B05D17B689B6A43F001027B689A6248
:100EAC00002318461C37BD4690BD00BF040000202F
:100EBC0024499224244992009224491292244900F4
:100ECC004992240080B483B000AF78607B681B68C3
:100EDC00DB6C18460C37BD4680BC704780B485B0BF
:100EEC0000AF786039600023FB730023BB607B6824
:100EFC0093F82430012B01D10223DCE07B68012222
:100F0C0083F824203B685B68062B1CD87B681B6825
:100F1C00596B3B685A6813469B001344053B1F22D0
:100F2C0002FA03F3DB4319403B6818683B685A68C4
:100F3C0013469B001344053B00FA03F27B681B68C5
:100F4C000A435A633CE03B685B680C2B1CD87B68FB
:100F5C001B68196B3B685A6813469B001344233B70
:100F6C001F2202FA03F3DB4319403B6818683B6805
:100F7C005A6813469B001344233B00FA03F27B6828
:100F8C001B680A431A631BE07B681B68D96A3B68C1
:100F9C005A6813469B001344413B1F2202FA03F389
:100FAC00DB4319403B6818683B685A6813469B0042
:100FBC001344413B00FA03F27B681B680A43DA6274
:100FCC003B681B68092B1CD97B681B68D9683B687C
:100FDC001A6813465B0013441E3B072202FA03F304
:100FEC00DB4319403B6898683B681A6813465B0002
:100FFC0013441E3B00FA03F27B681B680A43DA6059
:10100C0019E07B681B6819693B681A6813465B001A
:10101C001344072202FA03F3DB4319403B68986838
:10102C003B681A6813465B00134400FA03F27B68B2
:10103C001B680A431A613B681B68102B03D03B6882
:10104C001B68112B32D17B681B681D4A934225D13A
:10105C007B681B689B6803F40003002B26D17B681C
:10106C001B689A687B681B6842F400029A603B68B4
:10107C001B68102B1AD1134B1B68134AA2FB0323BA
:10108C009A0C13469B0013445B00BB6002E0BB68E8
:10109C00013BBB60BB68002BF9D107E07B689B6A06
:1010AC0043F020027B689A620123FB737B68002269
:1010BC0083F82420FB7B18461437BD4680BC704750
:1010CC00002401400400002083DE1B4380B584B063
:1010DC0000AF78600023FB600023BB607B681B685B
:1010EC009B6803F00103012B40D07B681B689A6856
:1010FC007B681B6842F001029A601F4B1B681F4AF9
:10110C00A2FB03239B0CBB6002E0BB68013BBB60F2
:10111C00BB68002BF9D1FFF73FFCF8601FE0FFF72D
:10112C003BFC0246FB68D31A022B18D97B681B6860
:10113C009B6803F00103012B11D07B689B6A43F081
:10114C0010027B689A627B68DB6A43F001027B6861
:10115C00DA627B68002283F82420012307E07B6895
:10116C001B689B6803F00103012BD8D100231846A0
:10117C001037BD4680BD00BF0400002083DE1B433A
:10118C0080B584B000AF78600023FB607B681B687F
:10119C009B6803F00103012B2ED17B681B689A68B6
:1011AC007B681B6822F001029A60FFF7F5FBF86080
:1011BC001BE0FFF7F1FB0246FB68D31A022B14D994
:1011CC007B681B689B6803F00103012B0DD17B68C6
:1011DC009B6A43F010027B689A627B68DB6A43F07F
:1011EC0001027B68DA62012307E07B681B689B685D
:1011FC0003F00103012BDCD0002318461037BD4649
:10120C0080BD000080B485B000AF78607B6803F0CF
:10121C000703FB600C4BDB68BB60BA684FF6FF033F
:10122C001340BB60FB681A02BB68134343F0BF63F7
:10123C0043F40033BB60044ABB68D36000BF14376F
:10124C00BD4680BC704700BF00ED00E080B400AF2D
:10125C00044BDB681B0A03F007031846BD4680BC31
:10126C00704700BF00ED00E080B483B000AF0346D0
:10127C00FB7197F90730002B0BDBFB7903F01F0296
:10128C00064997F907305B09012000FA02F241F890
:10129C00232000BF0C37BD4680BC704700E100E046
:1012AC0080B483B000AF03463960FB7197F9073007
:1012BC00002B0ADB3B68DAB20C4997F907301201B4
:1012CC00D2B20B4483F800230AE03B68DAB2084937
:1012DC00FB7903F00F03043B1201D2B20B441A76D4
:1012EC0000BF0C37BD4680BC704700BF00E100E07A
:1012FC0000ED00E080B489B000AFF860B9607A60AE
:10130C00FB6803F00703FB61FB69C3F10703042BC4
:10131C0028BF0423BB61FB690433062B02D9FB698C
:10132C00033B00E000237B614FF0FF32BB6902FA04
:10133C0003F3DA43BB681A407B699A404FF0FF31E4
:10134C007B6901FA03F3D9437B680B4013431846BE
:10135C002437BD4680BC704780B582B000AF786042
:10136C007B68013BB3F1807F01D301230FE00A4A74
:10137C007B68013B53600F214FF0FF30FFF790FF6C
:10138C00054B00229A60044B07221A600023184672
:10139C000837BD4680BD00BF10E000E080B582B0CC
:1013AC0000AF78607868FFF72DFF00BF0837BD46A7
:1013BC0080BD80B586B000AF0346B9607A60FB7320
:1013CC0000237B61FFF742FF78617A68B96878691E
:1013DC00FFF790FF024697F90F3011461846FFF7BA
:1013EC005FFF00BF1837BD4680BD80B582B000AF2F
:1013FC000346FB7197F907301846FFF735FF00BF1E
:10140C000837BD4680BD80B582B000AF7860786883
:10141C00FFF7A2FF034618460837BD4680BD000003
:10142C0080B485B000AF78600023FB607B68002B34
:10143C0001D1012343E07B681B681A46224B1344FD
:10144C00224AA2FB03231B099A007B681A647B685F
:10145C001F4ADA637B68022283F821207B681B68B1
:10146C001B68FB60FB6823F47F5323F03003FB60A5
:10147C007B685A687B689B681A437B68DB681A43F5
:10148C007B681B691A437B685B691A437B689B69A1
:10149C001A437B68DB691343FA681343FB607B6870
:1014AC001B68FA681A607B6800229A637B680122C9
:1014BC0083F821207B68002283F820200023184623
:1014CC001437BD4680BC7047F8FFFDBFCDCCCCCCEB
:1014DC000000024080B584B000AF78607B68DB6BA5
:1014EC001B68FB607B681B681B68BB607B681B6CA4
:1014FC0004229A40FB681340002B4FD0BB6803F0CA
:10150C000403002B4AD07B681B681B6803F0200384
:10151C00002B07D17B681B681A687B681B6822F05C
:10152C0004021A607B681B68664A934229D07B6868
:10153C001B68654A934222D07B681B68634A9342BE
:10154C001AD07B681B68624A934212D07B681B6876
:10155C00604A93420AD07B681B685F4A934202D16F
:10156C004FF480030EE04FF080630BE04FF48023C8
:10157C0008E04FF4804305E04FF4806302E0402321
:10158C0000E00423554A53607B68DB6A002B00F0B3
:10159C0094807B68DB6A786898478EE07B681B6C6C
:1015AC0002229A40FB681340002B56D0BB6803F014
:1015BC000203002B51D07B681B681B6803F02003CF
:1015CC00002B0BD17B681B681A687B681B6822F0A8
:1015DC000A021A607B68012283F821207B681B6851
:1015EC00384A934229D07B681B68374A934222D0F1
:1015FC007B681B68354A93421AD07B681B68344A57
:10160C00934212D07B681B68324A93420AD07B68A3
:10161C001B68314A934202D14FF400130EE04FF095
:10162C0000730BE04FF4003308E04FF4005305E077
:10163C004FF4007302E0202300E00223274A53609A
:10164C007B68002283F820207B689B6A002B34D0B7
:10165C007B689B6A786898472FE07B681B6C082234
:10166C009A40FB681340002B28D0BB6803F008039A
:10167C00002B23D07B681B681A687B681B6822F0E0
:10168C000E021A607B681A6C7B68DB6B012101FA15
:10169C0002F25A607B6801229A637B68012283F80C
:1016AC0021207B68002283F820207B681B6B002B99
:1016BC0004D07B681B6B7868984700BF00BF10375D
:1016CC00BD4680BD080002401C00024030000240B4
:1016DC0044000240580002406C00024000000240EE
:1016EC0080B48BB000AF7860396000237B6200233C
:1016FC003B6269E101227B6A02FA03F3FB613B68FE
:10170C001B68FA691340BB61BA69FB699A4240F0E5
:10171C0058813B685B689A4A93425ED0984A9342E0
:10172C0075D8984A934258D0964A93426FD8964AA5
:10173C00934252D0944A934269D8944A93424CD0E3
:10174C00924A934263D8924A934246D0904A93422B
:10175C005DD8122B2AD8122B59D801A252F823F09B
:10176C00E7170008C1170008D31700081518000860
:10177C001B1800081B1800081B1800081B18000871
:10178C001B1800081B1800081B1800081B18000861
:10179C001B1800081B1800081B1800081B18000851
:1017AC001B180008C9170008DD170008794A934276
:1017BC0013D02CE03B68DB683B6229E03B68DB68BC
:1017CC0004333B6224E03B68DB6808333B621FE078
:1017DC003B68DB680C333B621AE03B689B68002B70
:1017EC0002D104233B6213E03B689B68012B05D1BB
:1017FC0008233B627B68FA691A6109E008233B62A3
:10180C007B68FA695A6103E000233B6200E000BF89
:10181C00BB69FF2B01D87B6801E07B6804337B61DB
:10182C00BB69FF2B02D87B6A9B0002E07B6A083BFA
:10183C009B003B617B691A680F213B6901FA03F33A
:10184C00DB431A40396A3B6901FA03F31A437B699B
:10185C001A603B685B6803F08053002B00F0B1808A
:10186C004D4B9B694C4A43F0010393614A4B9B6976
:10187C0003F00103BB60BB68484A7B6A9B080233D8
:10188C0052F82330FB607B6A03F003039B000F22AA
:10189C0002FA03F3DB43FA681340FB607B68404AAF
:1018AC00934213D07B683F4A93420DD07B683E4AEB
:1018BC00934207D07B683D4A934201D1032306E053
:1018CC00042304E0022302E0012300E000237A6AEF
:1018DC0002F0030292009340FA681343FB602F4915
:1018EC007B6A9B080233FA6841F823203B685B68EB
:1018FC0003F48013002B06D02D4B9A682C49BB693E
:10190C0013438B6006E02A4B9A68BB69DB4328497A
:10191C0013408B603B685B6803F40013002B06D00C
:10192C00234BDA682249BB691343CB6006E0204B9A
:10193C00DA68BB69DB431E491340CB603B685B68CC
:10194C0003F40033002B06D0194B5A681849BB69B5
:10195C0013434B6006E0164B5A68BB69DB431449D2
:10196C0013404B603B685B6803F48033002B21D041
:10197C000F4B1A680E49BB6913430B6021E000BF83
:10198C000000321000003110000022100000211065
:10199C000000121000001110001002400000014065
:1019AC0000080140000C01400010014000140140EF
:1019BC00000401400B4B1A68BB69DB430949134017
:1019CC000B607B6A01337B623B681A687B6A22FA84
:1019DC0003F3002B7FF48EAE00BF00BF2C37BD4647
:1019EC0080BC70470004014080B483B000AF7860C5
:1019FC000B467B8013467B707B78002B03D07A8858
:101A0C007B681A6103E07B881A047B681A6100BF4B
:101A1C000C37BD4680BC704780B586B000AF78608F
:101A2C007B68002B01D1012372E27B681B6803F0F9
:101A3C000103002B00F08780924B5B6803F00C03D2
:101A4C00042B0CD08F4B5B6803F00C03082B12D1CA
:101A5C008C4B5B6803F48033B3F5803F0BD1894B1F
:101A6C001B6803F40033002B6CD07B685B68002B85
:101A7C0068D101234CE27B685B68B3F5803F06D1EB
:101A8C00804B1B687F4A43F4803313602EE07B68E5
:101A9C005B68002B0CD17B4B1B687A4A23F4803398
:101AAC001360784B1B68774A23F4802313601DE086
:101ABC007B685B68B3F5A02F0CD1724B1B68714A25
:101ACC0043F4802313606F4B1B686E4A43F48033DE
:101ADC0013600BE06B4B1B686A4A23F48033136072
:101AEC00684B1B68674A23F4802313607B685B6830
:101AFC00002B13D0FEF750FF386108E0FEF74CFFC7
:101B0C0002463B69D31A642B01D9032300E25D4BD7
:101B1C001B6803F40033002BF0D014E0FEF73CFFFD
:101B2C00386108E0FEF738FF02463B69D31A642B94
:101B3C0001D90323ECE1534B1B6803F40033002B56
:101B4C00F0D100E000BF7B681B6803F00203002BA0
:101B5C0063D04C4B5B6803F00C03002B0BD0494B50
:101B6C005B6803F00C03082B1CD1464B5B6803F439
:101B7C008033002B16D1434B1B6803F00203002B60
:101B8C0005D07B681B69012B01D00123C0E13D4BC3
:101B9C001B6823F0F8027B685B69DB00394913434F
:101BAC000B603AE07B681B69002B20D0364B01227E
:101BBC001A60FEF7F1FE386108E0FEF7EDFE024612
:101BCC003B69D31A022B01D90323A1E12D4B1B68CE
:101BDC0003F00203002BF0D02A4B1B6823F0F80211
:101BEC007B685B69DB00274913430B6015E0264BD0
:101BFC0000221A60FEF7D0FE386108E0FEF7CCFE3A
:101C0C0002463B69D31A022B01D9032380E11D4BF9
:101C1C001B6803F00203002BF0D17B681B6803F0F8
:101C2C000803002B3AD07B689B69002B19D0174B0B
:101C3C0001221A60FEF7B0FE386108E0FEF7ACFE38
:101C4C0002463B69D31A022B01D9032360E10D4BE9
:101C5C005B6A03F00203002BF0D0012000F0CEFAF7
:101C6C001CE00A4B00221A60FEF796FE38610FE06A
:101C7C00FEF792FE02463B69D31A022B08D90323C6
:101C8C0046E100BF00100240000042428004424284
:101C9C00924B5B6A03F00203002BE9D17B681B6853
:101CAC0003F00403002B00F0A6800023FB758B4B84
:101CBC00DB6903F08053002B0DD1884BDB69874A1D
:101CCC0043F08053D361854BDB6903F08053BB60D9
:101CDC00BB680123FB75824B1B6803F48073002BDC
:101CEC0018D17F4B1B687E4A43F480731360FEF758
:101CFC0053FE386108E0FEF74FFE02463B69D31AEB
:101D0C00642B01D9032303E1754B1B6803F4807327
:101D1C00002BF0D07B68DB68012B06D16F4B1B6A64
:101D2C006E4A43F0010313622DE07B68DB68002BE5
:101D3C000CD16A4B1B6A694A23F001031362674B8F
:101D4C001B6A664A23F0040313621CE07B68DB68A1
:101D5C00052B0CD1614B1B6A604A43F004031362E0
:101D6C005E4B1B6A5D4A43F0010313620BE05B4B55
:101D7C001B6A5A4A23F001031362584B1B6A574AD9
:101D8C0023F0040313627B68DB68002B15D0FEF78D
:101D9C0003FE38610AE0FEF7FFFD02463B69D31AE9
:101DAC0041F28832934201D90323B1E04B4B1B6AB9
:101DBC0003F00203002BEED014E0FEF7EDFD3861CA
:101DCC000AE0FEF7E9FD02463B69D31A41F288327C
:101DDC00934201D903239BE0404B1B6A03F002039F
:101DEC00002BEED1FB7D012B05D13C4BDB693B4A33
:101DFC0023F08053D3617B68DB69002B00F0878074
:101E0C00364B5B6803F00C03082B61D07B68DB69F5
:101E1C00022B46D1334B00221A60FEF7BDFD386110
:101E2C0008E0FEF7B9FD02463B69D31A022B01D933
:101E3C0003236DE0294B1B6803F00073002BF0D1DA
:101E4C007B681B6AB3F5803F08D1244B5B6823F495
:101E5C0000327B689B68214913434B601F4B5B68C6
:101E6C0023F474127B68196A7B685B6A0B431B4909
:101E7C0013434B601B4B01221A60FEF78DFD38613A
:101E8C0008E0FEF789FD02463B69D31A022B01D903
:101E9C0003233DE0114B1B6803F00073002BF0D0C3
:101EAC0035E0104B00221A60FEF776FD386108E031
:101EBC00FEF772FD02463B69D31A022B01D90323AC
:101ECC0026E0064B1B6803F00073002BF0D11EE0DC
:101EDC007B68DB69012B07D1012319E0001002405C
:101EEC0000700040600042420B4B5B68FB60FB687B
:101EFC0003F480327B681B6A9A4206D1FB6803F4B8
:101F0C0070127B685B6A9A4201D0012300E00023C7
:101F1C0018461837BD4680BD0010024080B584B00D
:101F2C0000AF786039607B68002B01D10123D0E0D1
:101F3C006A4B1B6803F007033A689A4210D9674B47
:101F4C001B6823F0070265493B6813430B60634B26
:101F5C001B6803F007033A689A4201D00123B8E0EA
:101F6C007B681B6803F00203002B20D07B681B6886
:101F7C0003F00403002B05D0594B5B68584A43F41B
:101F8C00E06353607B681B6803F00803002B05D0EB
:101F9C00534B5B68524A43F460535360504B5B683D
:101FAC0023F0F0027B689B684D4913434B607B68C0
:101FBC001B6803F00103002B40D07B685B68012B8E
:101FCC0007D1474B1B6803F40033002B15D10123B9
:101FDC007FE07B685B68022B07D1414B1B6803F0E9
:101FEC000073002B09D1012373E03D4B1B6803F0F8
:101FFC000203002B01D101236BE0394B5B6823F00A
:10200C0003027B685B68364913434B60FEF7C4FCE4
:10201C00F8600AE0FEF7C0FC0246FB68D31A41F2F6
:10202C008832934201D9032353E02D4B5B6803F0B4
:10203C000C027B685B689B009A42EBD1274B1B68B8
:10204C0003F007033A689A4210D2244B1B6823F022
:10205C00070222493B6813430B60204B1B6803F0BB
:10206C0007033A689A4201D0012332E07B681B686F
:10207C0003F00403002B08D0194B5B6823F4E062D7
:10208C007B68DB68164913434B607B681B6803F065
:10209C000803002B09D0124B5B6823F460527B6859
:1020AC001B69DB000E4913434B6000F021F802461C
:1020BC000B4B5B681B0903F00F030A49CB5C22FA3C
:1020CC0003F3094A1360094B1B681846FEF722FC00
:1020DC00002318461037BD4680BD00BF00200240CB
:1020EC0000100240383100080400002008000020D5
:1020FC0080B487B000AF0023FB600023BB600023DB
:10210C007B6100237B6000233B611E4B5B68FB60A3
:10211C00FB6803F00C03042B02D0082B03D027E040
:10212C00194B3B6127E0FB689B0C03F00F03174A2C
:10213C00D35C7B60FB6803F48033002B10D0114B15
:10214C005B685B0C03F00103114AD35CBB607B68DA
:10215C000D4A03FB02F2BB68B2FBF3F37B6104E0B4
:10216C007B680C4A02FB03F37B617B693B6102E0F9
:10217C00054B3B6100BF3B6918461C37BD4680BC14
:10218C00704700BF0010024000127A005031000866
:10219C006031000800093D0080B400AF024B1B68A1
:1021AC001846BD4680BC70470400002080B500AFC7
:1021BC00FFF7F2FF0246054B5B681B0A03F00703AF
:1021CC000349CB5C22FA03F3184680BD0010024091
:1021DC004831000880B500AFFFF7DEFF0246054B23
:1021EC005B68DB0A03F007030349CB5C22FA03F3B9
:1021FC00184680BD001002404831000880B485B0FC
:10220C0000AF78600A4B1B680A4AA2FB03235B0AE7
:10221C007A6802FB03F3FB6000BFFB685A1EFA608E
:10222C00002BF9D100BF00BF1437BD4680BC7047EE
:10223C0004000020D34D621080B586B000AF7860EA
:10224C0000233B610023FB607B681B6803F00103E8
:10225C00002B7DD00023FB754F4BDB6903F08053C3
:10226C00002B0DD14C4BDB694B4A43F08053D361AF
:10227C00494BDB6903F08053BB60BB680123FB75E2
:10228C00464B1B6803F48073002B18D1434B1B681F
:10229C00424A43F480731360FEF77EFB386108E01A
:1022AC00FEF77AFB02463B69D31A642B01D9032350
:1022BC006DE03A4B1B6803F48073002BF0D0364B67
:1022CC001B6A03F44073FB60FB68002B2ED07B6809
:1022DC005B6803F44073FA689A4227D02E4B1B6A52
:1022EC0023F44073FB602E4B01221A602C4B00220E
:1022FC001A60294AFB681362FB6803F00103002B88
:10230C0014D0FEF749FB38610AE0FEF745FB0246A4
:10231C003B69D31A41F28832934201D9032336E048
:10232C001D4B1B6A03F00203002BEED01A4B1B6AE9
:10233C0023F440727B685B68174913430B62FB7D87
:10234C00012B05D1144BDB69134A23F08053D36165
:10235C007B681B6803F00203002B08D00E4B5B68F4
:10236C0023F440427B689B680B4913434B607B68AA
:10237C001B6803F01003002B08D0074B5B6823F499
:10238C0080027B68DB68044913434B6000231846CA
:10239C001837BD4680BD00BF0010024000700040E1
:1023AC004004424280B588B000AF786000237B6166
:1023BC000023FB6100233B610023FB600023BB6116
:1023CC007B68102B0AD07B68102B00F28A807B680C
:1023DC00012B45D07B68022B75D082E0464B5B68A5
:1023EC00FB60454B1B6803F08073002B7BD0FB68B4
:1023FC009B0C03F00F03414AD35C3B61FB6803F475
:10240C008033002B15D03C4B5B685B0C03F0010355
:10241C003B4AD35C7B61FB6803F48033002B0DD00B
:10242C00384A7B69B2FBF3F23B6902FB03F3FB61B5
:10243C0004E03B69344A02FB03F3FB612E4B5B68FF
:10244C0003F48003B3F5800F02D1FB69BB614AE052
:10245C00FB695B002D4AA2FB03235B08BB6142E0D6
:10246C00254B1B6AFB60FB6803F44073B3F5807F5C
:10247C0008D1FB6803F00203002B03D04FF4004398
:10248C00BB611FE0FB6803F44073B3F5007F09D117
:10249C00194B5B6A03F00203002B03D049F640434F
:1024AC00BB610FE0FB6803F44073B3F5407F1CD1B4
:1024BC00114B1B6803F40033002B16D04FF224434E
:1024CC00BB6112E011E0FFF785FE02460A4B5B6828
:1024DC009B0B03F0030301335B00B2FBF3F3BB6113
:1024EC0004E000BF02E000BF00E000BFBB6918467B
:1024FC002037BD4680BD00BF00100240643100088B
:10250C007431000800127A0000093D00ABAAAAAA97
:10251C0080B582B000AF78607B68002B01D10123BD
:10252C0041E07B6893F83D30DBB2002B06D17B6831
:10253C00002283F83C207868FEF7ECF87B680222D6
:10254C0083F83D207B681A687B6804331946104673
:10255C0000F07CFA7B68012283F846207B6801221C
:10256C0083F83E207B68012283F83F207B680122A0
:10257C0083F840207B68012283F841207B6801228C
:10258C0083F842207B68012283F843207B68012278
:10259C0083F844207B68012283F845207B68012264
:1025AC0083F83D20002318460837BD4680BD000047
:1025BC0080B485B000AF78607B6893F83D30DBB2B7
:1025CC00012B01D001233AE07B68022283F83D20E5
:1025DC007B681B68DA687B681B6842F00102DA6072
:1025EC007B681B68184A93420ED07B681B68B3F15A
:1025FC00804F09D07B681B68144A934204D07B68D7
:10260C001B68134A934211D17B681B689B6803F0CB
:10261C000703FB60FB68062B10D07B681B681A68ED
:10262C007B681B6842F001021A6007E07B681B683C
:10263C001A687B681B6842F001021A600023184676
:10264C001437BD4680BC7047002C0140000400408C
:10265C000008004080B582B000AF78607B681B68D2
:10266C001B6903F00203022B22D17B681B68DB6819
:10267C0003F00203022B1BD17B681B686FF0020274
:10268C001A617B6801221A777B681B689B6903F0CF
:10269C000303002B03D0786800F0BDF905E07868DF
:1026AC0000F0B0F9786800F0BFF97B6800221A7767
:1026BC007B681B681B6903F00403042B22D17B6825
:1026CC001B68DB6803F00403042B1BD17B681B68BD
:1026DC006FF004021A617B6802221A777B681B6810
:1026EC009B6903F44073002B03D0786800F093F9D6
:1026FC0005E0786800F086F9786800F095F97B6859
:10270C0000221A777B681B681B6903F00803082BEF
:10271C0022D17B681B68DB6803F00803082B1BD1F4
:10272C007B681B686FF008021A617B6804221A77B9
:10273C007B681B68DB6903F00303002B03D078680C
:10274C0000F069F905E0786800F05CF9786800F051
:10275C006BF97B6800221A777B681B681B6903F096
:10276C001003102B22D17B681B68DB6803F010036D
:10277C00102B1BD17B681B686FF010021A617B68F1
:10278C0008221A777B681B68DB6903F44073002B03
:10279C0003D0786800F03FF905E0786800F032F972
:1027AC00786800F041F97B6800221A777B681B6817
:1027BC001B6903F00103012B0ED17B681B68DB68DE
:1027CC0003F00103012B07D17B681B686FF001023A
:1027DC001A61786800F00DF97B681B681B6903F0BF
:1027EC008003802B0ED17B681B68DB6803F08003B1
:1027FC00802B07D17B681B686FF080021A617868A8
:10280C0000F083FA7B681B681B6903F04003402BC4
:10281C000ED17B681B68DB6803F04003402B07D1AB
:10282C007B681B686FF040021A61786800F005F94C
:10283C007B681B681B6903F02003202B0ED17B687F
:10284C001B68DB6803F02003202B07D17B681B6817
:10285C006FF020021A61786800F04EFA00BF08375A
:10286C00BD4680BD80B584B000AF78603960002370
:10287C00FB737B6893F83C30012B01D10223B4E04D
:10288C007B68012283F83C207B68022283F83D2080
:10289C007B681B689B68BB60BB6823F07703BB60DD
:1028AC00BB6823F47F43BB607B681B68BA689A6083
:1028BC003B681B68B3F5005F3ED0B3F5005F00F2D8
:1028CC008780B3F5805F00F08680B3F5805F7FD89A
:1028DC00702B1AD0702B7BD8602B50D0602B77D8F4
:1028EC00502B3CD0502B73D8402B58D0402B6FD84A
:1028FC00302B64D0302B6BD8202B60D0202B67D89A
:10290C00002B5CD0102B5AD062E07B6818683B68B7
:10291C0099683B685A683B68DB6800F070F97B6823
:10292C001B689B68BB60BB6843F07703BB607B682C
:10293C001B68BA689A604FE07B6818683B689968B6
:10294C003B685A683B68DB6800F059F97B681B6888
:10295C009A687B681B6842F480429A603CE07B6812
:10296C0018683B6859683B68DB681A4600F0D0F879
:10297C007B681B685021184600F027F92CE07B6817
:10298C0018683B6859683B68DB681A4600F0EEF83B
:10299C007B681B686021184600F017F91CE07B6807
:1029AC0018683B6859683B68DB681A4600F0B0F859
:1029BC007B681B684021184600F007F90CE07B6827
:1029CC001A683B681B681946104600F0FEF803E0D5
:1029DC000123FB7300E000BF7B68012283F83D20DC
:1029EC007B68002283F83C20FB7B18461037BD46E1
:1029FC0080BD80B483B000AF786000BF0C37BD469B
:102A0C0080BC704780B483B000AF786000BF0C37D7
:102A1C00BD4680BC704780B483B000AF786000BF07
:102A2C000C37BD4680BC704780B483B000AF786073
:102A3C0000BF0C37BD4680BC704780B483B000AF7C
:102A4C00786000BF0C37BD4680BC704780B485B041
:102A5C0000AF786039607B681B68FB607B68294A33
:102A6C0093420BD07B68B3F1804F07D07B68264A2A
:102A7C00934203D07B68254A934208D1FB6823F02C
:102A8C007003FB603B685B68FA681343FB607B6810
:102A9C001C4A93420BD07B68B3F1804F07D07B6804
:102AAC00194A934203D07B68184A934208D1FB68B9
:102ABC0023F44073FB603B68DB68FA681343FB60EC
:102ACC00FB6823F080023B685B691343FB607B6807
:102ADC00FA681A603B689A687B68DA623B681A6825
:102AEC007B689A627B68074A934203D13B681A69F8
:102AFC007B681A637B6801225A6100BF1437BD469C
:102B0C0080BC7047002C01400004004000080040CD
:102B1C0080B487B000AFF860B9607A60FB681B6A5C
:102B2C007B61FB681B6A23F00102FB681A62FB687D
:102B3C009B693B613B6923F0F0033B617B681B01A4
:102B4C003A6913433B617B6923F00A037B617A6921
:102B5C00BB6813437B61FB683A699A61FB687A69CD
:102B6C001A6200BF1C37BD4680BC704780B487B06A
:102B7C0000AFF860B9607A60FB681B6A7B61FB6828
:102B8C001B6A23F01002FB681A62FB689B693B61AD
:102B9C003B6923F470433B617B681B033A69134325
:102BAC003B617B6923F0A0037B61BB681B017A69E5
:102BBC0013437B61FB683A699A61FB687A691A6214
:102BCC0000BF1C37BD4680BC704780B485B000AFD9
:102BDC00786039607B689B68FB60FB6823F070034E
:102BEC00FB603A68FB68134343F00703FB607B68A8
:102BFC00FA689A6000BF1437BD4680BC704780B439
:102C0C0087B000AFF860B9607A603B60FB689B6886
:102C1C007B617B6923F47F437B613B681A027B6891
:102C2C001A43BB6813437A6913437B61FB687A6967
:102C3C009A6000BF1C37BD4680BC704780B485B01D
:102C4C0000AF786039607B6893F83C30012B01D180
:102C5C00022346E07B68012283F83C207B68022239
:102C6C0083F83D207B681B685B68FB607B681B6896
:102C7C009B68BB60FB6823F07003FB603B681B68C0
:102C8C00FA681343FB607B681B68FA685A607B68C0
:102C9C001B68164A93420ED07B681B68B3F1804FB9
:102CAC0009D07B681B68124A934204D07B681B686E
:102CBC00104A93420CD1BB6823F08003BB603B6885
:102CCC005B68BA681343BB607B681B68BA689A6020
:102CDC007B68012283F83D207B68002283F83C202E
:102CEC00002318461437BD4680BC7047002C0140A9
:102CFC00000400400008004080B483B000AF78604E
:102D0C0000BF0C37BD4680BC704780B483B000AFA9
:102D1C00786000BF0C37BD4680BC704780B582B070
:102D2C0000AF78607B68002B01D1012342E07B6807
:102D3C0093F84130DBB2002B06D17B68002283F87C
:102D4C0040207868FDF734FD7B68242283F841200D
:102D5C007B681B68DA687B681B6822F40052DA60B7
:102D6C00786800F01DF97B681B681A697B681B6822
:102D7C0022F490421A617B681B685A697B681B6855
:102D8C0022F02A025A617B681B68DA687B681B6830
:102D9C0042F40052DA607B6800225A647B6820227D
:102DAC0083F841207B68202283F842207B68002234
:102DBC005A63002318460837BD4680BD80B58AB0DB
:102DCC0002AFF860B9603B601346FB8000237B6167
:102DDC00FB6893F84130DBB2202B6DD1BB68002B24
:102DEC0002D0FB88002B01D1012366E0FB68002296
:102DFC005A64FB68212283F84120FDF7CDFD7861F0
:102E0C00FB68FA889A84FB68FA88DA84FB689B680A
:102E1C00B3F5805F08D1FB681B69002B04D100233C
:102E2C00FB61BB68BB6103E0BB68FB610023BB615A
:102E3C002AE03B6800937B6900228021F86800F04F
:102E4C0040F80346002B01D0032336E0FB69002B2E
:102E5C000BD1BB691B881A46FB681B68C2F30802BE
:102E6C005A60BB690233BB6107E0FB691A78FB68E7
:102E7C001B685A60FB690133FB61FB68DB8C9BB2FE
:102E8C00013B9AB2FB68DA84FB68DB8C9BB2002BAB
:102E9C00CFD13B6800937B6900224021F86800F099
:102EAC0010F80346002B01D0032306E0FB68202218
:102EBC0083F84120002300E0022318462037BD464A
:102ECC0080BD80B590B000AFF860B9603B60134630
:102EDC00FB7150E0BB6CB3F1FF3F4CD0BB6C002BD3
:102EEC0007D0FDF759FD02463B68D31ABA6C9A42DB
:102EFC0041D2FB681B680C33BB62BB6A53E8003FD2
:102F0C007B627B6A23F4D073FB63FB681B680C3316
:102F1C00FA6B7A633B63396B7A6B41E80023FB6293
:102F2C00FB6A002BE5D1FB681B6814337B617B6962
:102F3C0053E8003F3B613B6923F00103BB63FB6833
:102F4C001B681433BA6B3A62FB61F9693A6A41E85F
:102F5C000023BB61BB69002BE5D1FB68202283F801
:102F6C004120FB68202283F84220FB68002283F872
:102F7C00402003230FE0FB681B681A68BB681340F2
:102F8C00BA689A420CBF01230023DBB21A46FB79C4
:102F9C009A429FD0002318464037BD4680BD0000A2
:102FAC0080B584B000AF78607B681B681B6923F424
:102FBC0040517B68DA687B681B680A431A617B683E
:102FCC009A687B681B691A437B685B691343BB6017
:102FDC007B681B68DB6823F4B05323F00C037A681E
:102FEC001268B9680B43D3607B681B685B6923F478
:102FFC0040717B689A697B681B680A435A617B68DD
:10300C001B682C4A934203D1FFF7E4F8F86002E006
:10301C00FFF7CCF8F860FA6813469B0013449A004B
:10302C001A447B685B689B00B2FBF3F3224AA2FB59
:10303C0003235B091901FA6813469B0013449A0099
:10304C001A447B685B689B00B2FBF3F21A4BA3FB40
:10305C0002035B09642000FB03F3D31A1B01323318
:10306C00154AA2FB03235B0903F0F0031944FA6829
:10307C0013469B0013449A001A447B685B689B00C0
:10308C00B2FBF3F20C4BA3FB02035B09642000FBC5
:10309C0003F3D31A1B013233074AA2FB03235B0948
:1030AC0003F00F027B681B680A449A6000BF10375C
:1030BC00BD4680BD003801401F85EB5103460244DC
:1030CC00934200D1704703F8011BF9E770B5002655
:1030DC000C4D0D4C641BA410A64209D100F01AF83B
:1030EC0000260A4D0A4C641BA410A64205D170BDE3
:1030FC0055F8043B98470136EEE755F8043B9847E2
:10310C000136F2E778310008783100087831000890
:10311C007C310008F8B500BFF8BC08BC9E4670476F
:0C312C00F8B500BFF8BC08BC9E46704718
:10313800000000000000000001020304060708095F
:103148000000000001020304020304050607080941
:103158000A0B0C0D0E0F10100102000002030405EB
:10316800060708090A0B0C0D0E0F101001020000CB
:043178003101000819
:04317C000D01000839
:10318000010100000024F400100000000100000014
:04000005080008A93E
:00000001FF
