:020000040800F2
:100000000050002075120008D90D0008DF0D00080F
:10001000E50D0008EB0D0008F10D000800000000E0
:10002000000000000000000000000000F70D0008C4
:10003000030E0008000000000F0E00081B0E000851
:10004000BD120008BD120008BD120008BD12000854
:10005000BD120008BD120008BD120008BD12000844
:10006000BD120008BD120008BD120008BD12000834
:10007000BD120008BD120008290E0008BD120008BC
:10008000BD120008BD120008BD120008BD12000814
:10009000BD120008BD120008BD120008BD12000804
:1000A000BD120008BD120008BD120008BD120008F4
:1000B0003D0E0008BD120008BD120008BD12000868
:1000C000BD120008BD120008BD120008BD120008D4
:1000D000BD120008510E0008BD120008BD12000834
:1000E000BD120008BD120008BD120008000000008B
:1000F0000000000000000000000000000000000000
:0C01000000000000000000005FF808F1A3
:10010C0010B5054C237833B9044B13B10448AFF345
:10011C0000800123237010BD10000020000000009F
:10012C00A44E000808B5034B1BB103490348AFF3B9
:10013C00008008BD0000000014000020A44E000840
:10014C0080F0004002E000BF81F0004142001FBF80
:10015C005FEA410392EA030F7FEA226C7FEA236C89
:10016C006AD04FEA1262D2EB1363C1BFD21841407E
:10017C0048404140B8BF5B42192B88BF704710F014
:10018C00004F40F4000020F07F4018BF404211F0B7
:10019C00004F41F4000121F07F4118BF494292EA1F
:1001AC00030F3FD0A2F1010241FA03FC10EB0C004B
:1001BC00C3F1200301FA03F100F0004302D54942D8
:1001CC0060EB4000B0F5000F13D3B0F1807F06D385
:1001DC0040084FEA310102F10102FE2A51D2B1F17D
:1001EC00004F40EBC25008BF20F0010040EA030072
:1001FC007047490040EB0000013A28BFB0F5000FF2
:10020C00EDD2B0FA80FCACF1080CB2EB0C0200FAA7
:10021C000CF0AABF00EBC25052421843BCBFD040F6
:10022C001843704792F0000F81F4000106BF80F470
:10023C0000000132013BB5E74FEA41037FEA226C33
:10024C0018BF7FEA236C21D092EA030F04D092F0FE
:10025C00000F08BF0846704790EA010F1CBF002032
:10026C00704712F07F4F04D1400028BF40F000408F
:10027C00704712F100723CBF00F50000704700F0AF
:10028C00004343F0FE4040F4000070477FEA2262D6
:10029C0016BF08467FEA23630146420206BF5FEAA7
:1002AC00412390EA010F40F4800070474FF00003A7
:1002BC0004E000BF10F0004348BF40425FEA000C6E
:1002CC0008BF704743F0964301464FF000001CE016
:1002DC0050EA010208BF70474FF000030AE000BF6C
:1002EC0050EA010208BF704711F0004302D54042AA
:1002FC0061EB41015FEA010C02BF8446014600201C
:10030C0043F0B64308BFA3F18053A3F50003BCFA36
:10031C008CF2083AA3EBC25310DB01FA02FC6344E3
:10032C0000FA02FCC2F12002BCF1004F20FA02F2EA
:10033C0043EB020008BF20F00100704702F12002DD
:10034C0001FA02FCC2F1200250EA4C0021FA02F23E
:10035C0043EB020008BF20EADC7070474FF0FF0C43
:10036C001CEAD0521EBF1CEAD15392EA0C0F93EA3E
:10037C000C0F6FD01A4480EA010C400218BF5FEAE0
:10038C0041211ED04FF0006343EA501043EA511153
:10039C00A0FB01310CF00040B1F5000F3EBF49004D
:1003AC0041EAD3715B0040EA010062F17F02FD2A51
:1003BC001DD8B3F1004F40EBC25008BF20F0010034
:1003CC00704790F0000F0CF0004C08BF49024CEA4B
:1003DC00502040EA51207F3AC2BFD2F1FF0340EADD
:1003EC00C250704740F400004FF00003013A5DDC4E
:1003FC0012F1190FDCBF00F000407047C2F100028F
:10040C00410021FA02F1C2F1200200FA02FC5FEA7B
:10041C00310040F1000053EA4C0308BF20EADC70C5
:10042C00704792F0000F00F0004C02BF400010F437
:10043C00000F013AF9D040EA0C0093F0000F01F0E4
:10044C00004C02BF490011F4000F013BF9D041EA06
:10045C000C018FE70CEAD15392EA0C0F18BF93EA08
:10046C000C0F0AD030F0004C18BF31F0004CD8D132
:10047C0080EA010000F00040704790F0000F17BFB9
:10048C0090F0004F084691F0000F91F0004F14D0FF
:10049C0092EA0C0F01D142020FD193EA0C0F03D157
:1004AC004B0218BF084608D180EA010000F000405A
:1004BC0040F0FE4040F40000704740F0FE4040F435
:1004CC00400070474FF0FF0C1CEAD0521EBF1CEAD4
:1004DC00D15392EA0C0F93EA0C0F69D0A2EB0302F2
:1004EC0080EA010C49024FEA402037D04FF080538C
:1004FC0043EA111143EA10130CF000408B4238BF51
:10050C005B0042F17D024FF4000C8B4224BF5B1A5E
:10051C0040EA0C00B3EB510F24BFA3EB510340EAAC
:10052C005C00B3EB910F24BFA3EB910340EA9C005A
:10053C00B3EBD10F24BFA3EBD10340EADC001B01CA
:10054C0018BF5FEA1C1CE0D1FD2A3FF650AF8B426E
:10055C0040EBC25008BF20F0010070470CF0004C7B
:10056C004CEA50207F32C2BFD2F1FF0340EAC250A6
:10057C00704740F400004FF00003013A37E792F067
:10058C00000F00F0004C02BF400010F4000F013AC5
:10059C00F9D040EA0C0093F0000F01F0004C02BFC0
:1005AC00490011F4000F013BF9D041EA0C0195E729
:1005BC000CEAD15392EA0C0F08D142027FF47DAFC2
:1005CC0093EA0C0F7FF470AF084676E793EA0C0FB2
:1005DC0004D14B023FF44CAF08466EE730F0004CB0
:1005EC0018BF31F0004CCAD130F000427FF45CAF40
:1005FC0031F000437FF43CAF5FE700BF42000ED206
:10060C00B2F1FE4F0BD34FF09E03B3EB126209D441
:10061C004FEA002343F0004323FA02F070474FF0F7
:10062C000000704712F1610F01D1420202D14FF06C
:10063C00FF3070474FF00000704700BF80B582B0AC
:10064C0000AF78600B467B807B881946786802F097
:10065C00FFFD00BF0837BD4680BD000090B583B0DC
:10066C0000AF78600B46FB70FB781846FFF722FE54
:10067C0004460D4BDB6A1846FFF718FE0346194675
:10068C002046FFF76BFE034608491846FFF71AFF92
:10069C0003461846FFF7B2FF02467B681A6000BF9C
:1006AC000C37BD4690BD00BF000400400000C8429E
:1006BC0080B500AF064800F037FF0121044800F078
:1006CC00E1FF034801F0E4F803469BB2184680BDF5
:1006DC002C00002080B584B000AF3B1D00221A60B6
:1006EC005A609A60184B194A1A60174B00229A608C
:1006FC00154B00221A73144B00221A75124B4FF42F
:10070C006022DA61104B00225A600F4B01221A61F1
:10071C000D4800F031FE0346002B01D000F02FFBFA
:10072C0000237B600123BB600023FB603B1D19464B
:10073C00054801F0B9F80346002B01D000F01FFB6F
:10074C0000BF1037BD4680BD2C00002000240140A6
:10075C0080B588B000AF786007F1100300221A60F2
:10076C005A609A60DA607B681B68144A934221D104
:10077C00134B9B69124A43F400739361104B9B69B2
:10078C0003F40073FB60FB680D4B9B690C4A43F050
:10079C00040393610A4B9B6903F00403BB60BB68C1
:1007AC0001233B6103237B6107F1100319460548C4
:1007BC0001F03CFD00BF2037BD4680BD0024014048
:1007CC00001002400008014080B582B000AF0C4B15
:1007DC005B690B4A43F001035361094B5B6903F0FE
:1007EC0001037B607B68002200210E2001F0C7FA18
:1007FC000E2001F0E0FA00BF0837BD4680BD00BFF7
:10080C000010024080B588B000AF07F11003002241
:10081C001A605A609A60DA60344B9B69334A43F031
:10082C0020039361314B9B6903F02003FB60FB6851
:10083C002E4B9B692D4A43F0040393612B4B9B6910
:10084C0003F00403BB60BB68284B9B69274A43F049
:10085C0008039361254B9B6903F008037B607B685D
:10086C000022FC21224801F065FE002240F60741DF
:10087C00204801F05FFEFC233B6101237B610023D8
:10088C00BB610223FB6107F110031946184801F004
:10089C00CDFC40F607433B6101237B610023BB6128
:1008AC000223FB6107F110031946124801F0BEFC4C
:1008BC004FF470433B6100237B610023BB6107F164
:1008CC00100319460B4801F0B1FC4FF470633B6107
:1008DC0000237B610023BB6107F110031946044818
:1008EC0001F0A4FC00BF2037BD4680BD00100240C3
:1008FC0000080140000C014080B500AF00F0DAFCAC
:10090C0000F0E2F9FFF77EFFFFF7E4FE00F0F6FBE4
:10091C0000F0A8FA00F0F2FAFFF756FF094802F0CF
:10092C00EDFB06220849094803F0D9FB00210848D1
:10093C00FFF784FE04210648FFF780FE00F00AF85A
:10094C00FCE700BF840000205C00002014010020A4
:10095C00CC00002080B500AF82E0FFF7A9FE034673
:10096C001A46464B1A80464B1B78013B072B6BD81B
:10097C0001A252F823F000BFA5090008AF09000836
:10098C00B9090008C3090008CD090008D7090008F7
:10099C00E1090008EB090008384B1A88394B5A80DA
:1009AC0052E0364B1A88374B9A804DE0334B1A88FD
:1009BC00344BDA8048E0314B1A88324B1A8143E0D1
:1009CC002E4B1A882F4B5A813EE02C4B1A882D4BFC
:1009DC009A8139E0294B1A882A4BDA8134E0274B6B
:1009EC001A88284B1A82284B1B780133DAB2264B13
:1009FC001A70244B1B221A70234B1A78214B5A70F5
:100A0C00224B9B789AB21F4B5A82204BDB789AB2BE
:100A1C001C4B9A821B4BB5229A751C4B1A79194B9D
:100A2C00DA751821174800F015F903461A46154BCC
:100A3C001A764FF6FF731A221249154803F0CCFAB6
:100A4C00134803F071FB00BF124800F025F8034671
:100A5C00002B05D00A4B1B780133DAB2084B1A7005
:100A6C00074B1B78082B7FF678AF054B1B78092BAF
:100A7C0002D1034B01221A7000BF80BD7E00002002
:100A8C000000002064000020800000205C0000209A
:100A9C00140100208400002080B582B000AF786083
:100AAC007B681B68B3F1804F27D1164B1B7803F082
:100ABC000103DBB21A460421134801F03BFD114B34
:100ACC001B785B10DBB203F00103DBB21A46082182
:100ADC000D4801F02FFD0B4B1B789B10DBB203F084
:100AEC000103DBB21A461021074801F023FD054B28
:100AFC001B780133DAB2034B1A70012318460837FE
:100B0C00BD4680BD010000200008014080B584B0C6
:100B1C0000AF78607B681B68154A934223D105218E
:100B2C00144800F097F80346FB73124B5B79FA7B81
:100B3C009A4210D10F4B1B79184600F023F80D4B3D
:100B4C009B7819460C48FFF789FD0A4BDB78194650
:100B5C000A48FFF783FD0A4803F04EFB06220549BD
:100B6C00074803F0BCFA00BF1037BD4680BD00BF7C
:100B7C00003801405C000020340400403804004080
:100B8C001401002080B483B000AF0346FB712F4BDF
:100B9C00DB6823F02002FB799B0203F480632B4972
:100BAC001343CB60294BDB6823F04002FB791B011C
:100BBC0003F0200325491343CB60244BDB6823F05F
:100BCC008002FB799B0003F0100320491343CB6098
:100BDC001F4BDB6823F00102FB79DB0103F480631C
:100BEC001B491343CB601A4BDB6823F00202FB79E1
:100BFC001B0103F4807316491343CB60144BDB6861
:100C0C0023F00402FB791B0103F400731049134316
:100C1C00CB600F4BDB6823F48062FB795B0003F045
:100C2C0080030B491343CB60094BDB6823F4006250
:100C3C0097F907305B105BB203F040030449134390
:100C4C00CB6000BF0C37BD4680BC7047000801402C
:100C5C00000C014080B485B000AF78600B46FB708F
:100C6C0007233B730023FB730023BB7322E0BB7B86
:100C7C007A6813441A78FB7B5340FB7300237B7315
:100C8C0012E097F90F30002B08DAFB7B5B005AB2AD
:100C9C0097F90C3053405BB2FB7302E0FB7B5B00BB
:100CAC00FB737B7B01337B737B7B072BE9D9BB7B92
:100CBC000133BB73BA7BFB789A42D8D3FB7B1846C3
:100CCC001437BD4680BC704780B594B000AF07F1B7
:100CDC00280328220021184604F0B2F807F1140367
:100CEC0000221A605A609A60DA601A613B1D002279
:100CFC001A605A609A60DA600123BB624FF4803349
:100D0C00FB6200233B630123BB6302237B644FF430
:100D1C008033BB644FF4E013FB6407F128031846DF
:100D2C0001F020FC0346002B01D000F028F80F2323
:100D3C007B610223BB610023FB614FF480633B6248
:100D4C0000237B6207F114030221184601F08CFE8C
:100D5C000346002B01D000F012F802237B604FF405
:100D6C000043FB603B1D184602F00CF80346002BB9
:100D7C0001D000F004F800BF5037BD4680BD80B4F0
:100D8C0000AF72B600BFFEE780B483B000AF0E4B6D
:100D9C009B690D4A43F0010393610B4B9B6903F074
:100DAC0001037B607B68084BDB69074A43F0805387
:100DBC00D361054BDB6903F080533B603B6800BF9C
:100DCC000C37BD4680BC70470010024080B400AFA9
:100DDC00FEE780B400AFFEE780B400AFFEE780B45E
:100DEC0000AFFEE780B400AFFEE780B400AF00BFF9
:100DFC00BD4680BC704780B400AF00BFBD4680BC10
:100E0C00704780B400AF00BFBD4680BC704780B552
:100E1C0000AF00F095FA00BF80BD000080B500AFB8
:100E2C00024801F0F1F800BF80BD00BF5C0100205A
:100E3C0080B500AF024802F0ADFA00BF80BD00BF24
:100E4C008400002080B500AF024803F079FA00BF9F
:100E5C0080BD00BF1401002080B400AF00BFBD46B0
:100E6C0080BC704780B586B000AF07F10803002244
:100E7C001A605A609A60DA603B4600221A605A6027
:100E8C001D4B4FF080421A601B4B47225A601A4B85
:100E9C0000229A60184B40F2E732DA60164B0022BF
:100EAC001A61154B80229A61134802F0D7F8034659
:100EBC00002B01D0FFF763FF4FF48053BB6007F1A9
:100ECC00080319460C4802F02FFC0346002B01D0F6
:100EDC00FFF755FF00233B6000237B603B46194620
:100EEC00054802F0B9FF0346002B01D0FFF747FF7E
:100EFC0000BF1837BD4680BD8400002080B58EB081
:100F0C0000AF07F1280300221A605A609A60DA6079
:100F1C0007F1200300221A605A603B1D00221A6060
:100F2C005A609A60DA601A615A619A61324B334A9C
:100F3C001A60314B47225A602F4B10229A602E4B6D
:100F4C0040F2E732DA602C4B00221A612A4B8022E5
:100F5C009A61294802F082F80346002B01D0FFF772
:100F6C000EFF4FF48053BB6207F128031946224849
:100F7C0002F0DAFB0346002B01D0FFF700FF1E48FE
:100F8C0002F00EF90346002B01D0FFF7F8FE002308
:100F9C003B6200237B6207F120031946164802F0DE
:100FAC005BFF0346002B01D0FFF7E9FE60237B605B
:100FBC000023BB600023FB6000237B613B1D0022F0
:100FCC0019460D4802F0EEFA0346002B01D0FFF74C
:100FDC00D6FE3B1D04221946074802F0E3FA0346ED
:100FEC00002B01D0FFF7CBFE034800F041F800BF07
:100FFC003837BD4680BD00BFCC0000200004004047
:10100C0080B584B000AF78607B681B68B3F1804F0B
:10101C0014D1154BDB69144A43F00103D361124B15
:10102C00DB6903F00103FB60FB68002200211C203C
:10103C0000F0A5FE1C2000F0BEFE10E07B681B68D3
:10104C000A4A93420BD1084BDB69074A43F002036F
:10105C00D361054BDB6903F00203BB60BB6800BFC7
:10106C001037BD4680BD00BF001002400004004098
:10107C0080B588B000AF786007F10C0300221A60CD
:10108C005A609A60DA607B681B68184A934229D1CF
:10109C00174B9B69164A43F008039361144B9B69E9
:1010AC0003F00803BB60BB683023FB6002233B6189
:1010BC000223BB6107F10C0319460E4801F0B6F888
:1010CC000D4B5B68FB61FB6923F44063FB61FB69BF
:1010DC0043F0E063FB61FB6943F40063FB61064A88
:1010EC00FB69536000BF2037BD4680BD0004004043
:1010FC0000100240000C01400000014080B500AF20
:10110C00114B124A1A60104B4FF416525A600E4B88
:10111C0000229A600C4B0022DA600B4B00221A6101
:10112C00094B0C225A61084B00229A61064B002293
:10113C00DA61054802F000FF0346002B01D0FFF7EF
:10114C001EFE00BF80BD00BF14010020003801400E
:10115C0080B58AB000AF786007F1140300221A60E2
:10116C005A609A60DA607B681B68394A93426BD18B
:10117C00384B9B69374A43F480439361354B9B69E9
:10118C0003F480433B613B69324B9B69314A43F02A
:10119C00080393612F4B9B6903F00803FB60FB680A
:1011AC0040237B610223BB6103233B6207F11403E1
:1011BC001946294801F03AF880237B610023BB6172
:1011CC000023FB6107F114031946234801F02EF8A4
:1011DC00224B5B687B627B6A43F0E0637B627B6AD9
:1011EC0043F004037B621D4A7B6A53601C4B1D4A0F
:1011FC001A601B4B10225A60194B00229A60184B34
:10120C008022DA60164B00221A61154B00225A61BB
:10121C00134B20229A61124B0022DA61104800F025
:10122C00E5FD0346002B01D0FFF7A9FD7B680C4AB6
:10123C009A630B4A7B68536200220021252000F040
:10124C009EFD252000F0B7FD00BF2837BD4680BDB0
:10125C000038014000100240000C01400000014029
:10126C005C01002044000240FFF7F6FD0B480C49DE
:10127C000C4A002302E0D458C4500433C4188C42E6
:10128C00F9D3094A094C002301E013600432A2424D
:10129C00FBD303F0DDFDFFF72FFB704700000020B0
:1012AC0010000020044F000810000020A4010020B2
:1012BC00FEE7000080B500AF084B1B68074A43F0FF
:1012CC0010031360032000F04FFD0F2000F008F80E
:1012DC00FFF75AFD0023184680BD00BF00200240D6
:1012EC0080B582B000AF7860124B1A68124B1B7835
:1012FC0019464FF47A73B3FBF1F3B2FBF3F31846D0
:10130C0000F067FD0346002B01D001230EE07B6843
:10131C000F2B0AD8002279684FF0FF3000F02FFD18
:10132C00064A7B681360002300E001231846083747
:10133C00BD4680BD040000200C00002008000020E9
:10134C0080B400AF054B1B781A46054B1B68134441
:10135C00034A136000BFBD4680BC70470C000020E0
:10136C00A001002080B400AF024B1B681846BD469C
:10137C0080BC7047A001002080B586B000AF7860BB
:10138C000023FB7500233B610023BB600023FB6043
:10139C007B68002B01D10123BEE07B689B68002B8E
:1013AC007B689B6A002B09D17B680022DA627B6820
:1013BC00002283F824207868FFF7CAF9786800F0D7
:1013CC00C5FB0346FB757B689B6A03F01003002B7F
:1013DC0040F09980FB7D002B40F095807B689B6AE8
:1013EC0023F4885323F0020343F002027B689A62D1
:1013FC007B685A687B68DB691A437B681B7B5B00E4
:10140C001343BA681343BB607B689B68B3F5807F5A
:10141C0003D07B689B68012B02D14FF4807300E0F2
:10142C0000233A6913433B617B681B7D012B19D167
:10143C007B681B7B002B09D17B689B69013B5A03A2
:10144C003B69134343F400633B610BE07B689B6A8D
:10145C0043F020027B689A627B68DB6A43F00102EE
:10146C007B68DA627B681B685B6823F469417B6884
:10147C001B683A690A435A607B681B689A68284B58
:10148C0013407A681268B9680B4393607B689B6859
:10149C00B3F5807F03D07B689B68012B04D17B68FC
:1014AC001B69013B1B05FB607B681B68DB6A23F433
:1014BC0070017B681B68FA680A43DA627B681B68F8
:1014CC009A68184B1340BA689A420BD17B68002279
:1014DC00DA627B689B6A23F0030343F001027B68AA
:1014EC009A6218E07B689B6A23F0120343F01002A7
:1014FC007B689A627B68DB6A43F001027B68DA6284
:10150C000123FB7507E07B689B6A43F010027B6844
:10151C009A620123FB75FB7D18461837BD4680BDCA
:10152C00FDF7E1FFFE0E1FFF80B584B000AF7860C1
:10153C000023FB737B6893F82430012B01D1022329
:10154C0098E07B68012283F82420786800F0A4FAE4
:10155C000346FB73FB7B002B40F087807B689B6A08
:10156C0023F4407323F0010343F480727B689A6286
:10157C007B681B68414A934205D1414B5B6803F47D
:10158C007023002B15D17B689B6A23F480127B6837
:10159C009A627B681B685B6803F48063002B26D01F
:1015AC007B689B6A23F4405343F480527B689A62B5
:1015BC001DE07B689B6A43F480127B689A627B68AF
:1015CC001B682F4A934204D07B681B682B4A9342BA
:1015DC000DD12B4B5B6803F48063002B07D07B6829
:1015EC009B6A23F4405343F480527B689A627B6875
:1015FC009B6A03F48053002B06D07B68DB6A23F0D4
:10160C0006027B68DA6202E07B680022DA627B68A1
:10161C00002283F824207B681B686FF002021A609A
:10162C007B681B689B6803F46023B3F5602F13D1B0
:10163C007B681B68114A934205D1114B5B6803F41C
:10164C007023002B08D17B681B689A687B681B6829
:10165C0042F4A0029A600CE07B681B689A687B6875
:10166C001B6842F480129A6003E07B68002283F8C6
:10167C002420FB7B18461037BD4680BD0028014056
:10168C000024014090B587B000AF7860396000232A
:10169C007B610023FB6000233B61FFF763FE7861F5
:1016AC007B681B689B6803F48073002B0BD07B68F2
:1016BC009B6A43F020027B689A627B68002283F865
:1016CC0024200123D3E07B681B685B6803F48073E0
:1016DC00002B31D17B681B68DB6A03F47003002B91
:1016EC002AD121E03B68B3F1FF3F1DD03B68002BB2
:1016FC0007D0FFF737FE02467B69D31A3A689A4245
:10170C0012D27B681B681B6803F00203002B0BD101
:10171C007B689B6A43F004027B689A627B680022B8
:10172C0083F824200323A2E07B681B681B6803F06A
:10173C000203002BD6D070E04F4B1C68022001F046
:10174C00D7FB0346B4FBF3F27B681B6819694B4B60
:10175C000B40002B18D17B681B68D968484B0B4099
:10176C00002B11D17B681B681969464B0B40002B71
:10177C0008D17B681B68D968434B0B40002B01D107
:10178C00142320E029231EE07B681B6819693D4B5C
:10179C000B40002B06D17B681B68D9683A4B0B4079
:1017AC00002B0DD07B681B681969384B0B40002B44
:1017BC0008D17B681B68D968344B0B40002B01D1D6
:1017CC00542300E0FC2302FB03F33B6121E03B6864
:1017DC00B3F1FF3F1AD03B68002B07D0FFF7C2FDD7
:1017EC0002467B69D31A3A689A420FD2FB683A696F
:1017FC009A420BD97B689B6A43F004027B689A621D
:10180C007B68002283F82420032330E0FB6801333B
:10181C00FB60FB683A699A42D9D87B681B686FF009
:10182C0012021A607B689B6A43F400727B689A62AE
:10183C007B681B689B6803F46023B3F5602F15D19C
:10184C007B681B7B002B11D17B689B6A23F4807215
:10185C007B689A627B689B6A03F48053002B05D1EA
:10186C007B689B6A43F001027B689A6200231846EE
:10187C001C37BD4690BD00BF0400002024499224B3
:10188C00244992009224491292244900499224003E
:10189C0080B483B000AF78607B681B68DB6C184643
:1018AC000C37BD4680BC704780B485B000AF786003
:1018BC0039600023FB730023BB607B6893F82430F2
:1018CC00012B01D10223DCE07B68012283F8242068
:1018DC003B685B68062B1CD87B681B68596B3B68A4
:1018EC005A6813469B001344053B1F2202FA03F36C
:1018FC00DB4319403B6818683B685A6813469B00E9
:10190C001344053B00FA03F27B681B680A435A63D5
:10191C003CE03B685B680C2B1CD87B681B68196B24
:10192C003B685A6813469B001344233B1F2202FA60
:10193C0003F3DB4319403B6818683B685A6813464D
:10194C009B001344233B00FA03F27B681B680A4399
:10195C001A631BE07B681B68D96A3B685A6813469C
:10196C009B001344413B1F2202FA03F3DB43194053
:10197C003B6818683B685A6813469B001344413B0C
:10198C0000FA03F27B681B680A43DA623B681B6847
:10199C00092B1CD97B681B68D9683B681A681346ED
:1019AC005B0013441E3B072202FA03F3DB4319408E
:1019BC003B6898683B681A6813465B0013441E3BEF
:1019CC0000FA03F27B681B680A43DA6019E07B6853
:1019DC001B6819693B681A6813465B00134407229D
:1019EC0002FA03F3DB4319403B6898683B681A68BA
:1019FC0013465B00134400FA03F27B681B680A432E
:101A0C001A613B681B68102B03D03B681B68112BB9
:101A1C0032D17B681B681D4A934225D17B681B68B9
:101A2C009B6803F40003002B26D17B681B689A6823
:101A3C007B681B6842F400029A603B681B68102BA1
:101A4C001AD1134B1B68134AA2FB03239A0C13469F
:101A5C009B0013445B00BB6002E0BB68013BBB60B6
:101A6C00BB68002BF9D107E07B689B6A43F020022E
:101A7C007B689A620123FB737B68002283F8242025
:101A8C00FB7B18461437BD4680BC704700240140D0
:101A9C000400002083DE1B4380B584B000AF786067
:101AAC000023FB600023BB607B681B689B6803F012
:101ABC000103012B40D07B681B689A687B681B680C
:101ACC0042F001029A601F4B1B681F4AA2FB0323C2
:101ADC009B0CBB6002E0BB68013BBB60BB68002B8E
:101AEC00F9D1FFF73FFCF8601FE0FFF73BFC024623
:101AFC00FB68D31A022B18D97B681B689B6803F010
:101B0C000103012B11D07B689B6A43F010027B68A8
:101B1C009A627B68DB6A43F001027B68DA627B685D
:101B2C00002283F82420012307E07B681B689B6854
:101B3C0003F00103012BD8D1002318461037BD4602
:101B4C0080BD00BF0400002083DE1B4380B584B041
:101B5C0000AF78600023FB607B681B689B6803F018
:101B6C000103012B2ED17B681B689A687B681B686C
:101B7C0022F001029A60FFF7F5FBF8601BE0FFF71B
:101B8C00F1FB0246FB68D31A022B14D97B681B6845
:101B9C009B6803F00103012B0DD17B689B6A43F01A
:101BAC0010027B689A627B68DB6A43F001027B68F7
:101BBC00DA62012307E07B681B689B6803F0010372
:101BCC00012BDCD0002318461037BD4680BD000029
:101BDC0080B485B000AF78607B6803F00703FB60CE
:101BEC000C4BDB68BB60BA684FF6FF031340BB605D
:101BFC00FB681A02BB68134343F0BF6343F4003322
:101C0C00BB60044ABB68D36000BF1437BD4680BCC0
:101C1C00704700BF00ED00E080B400AF044BDB6800
:101C2C001B0A03F007031846BD4680BC704700BF73
:101C3C0000ED00E080B483B000AF0346FB7197F970
:101C4C000730002B0BDBFB7903F01F02064997F9D9
:101C5C0007305B09012000FA02F241F8232000BF93
:101C6C000C37BD4680BC704700E100E080B483B007
:101C7C0000AF03463960FB7197F90730002B0ADB84
:101C8C003B68DAB20C4997F907301201D2B20B4417
:101C9C0083F800230AE03B68DAB20849FB7903F0C9
:101CAC000F03043B1201D2B20B441A7600BF0C375F
:101CBC00BD4680BC704700BF00E100E000ED00E0D5
:101CCC0080B489B000AFF860B9607A60FB6803F04B
:101CDC000703FB61FB69C3F10703042B28BF042333
:101CEC00BB61FB690433062B02D9FB69033B00E0A3
:101CFC0000237B614FF0FF32BB6902FA03F3DA4336
:101D0C00BB681A407B699A404FF0FF317B6901FA3E
:101D1C0003F3D9437B680B40134318462437BD4665
:101D2C0080BC704780B582B000AF78607B68013BA7
:101D3C00B3F1807F01D301230FE00A4A7B68013B9A
:101D4C0053600F214FF0FF30FFF790FF054B00223F
:101D5C009A60044B07221A60002318460837BD46C8
:101D6C0080BD00BF10E000E080B582B000AF7860AD
:101D7C007868FFF72DFF00BF0837BD4680BD80B5E2
:101D8C0086B000AF0346B9607A60FB7300237B61B9
:101D9C00FFF742FF78617A68B9687869FFF790FFBE
:101DAC00024697F90F3011461846FFF75FFF00BF48
:101DBC001837BD4680BD80B582B000AF0346FB71BD
:101DCC0097F907301846FFF735FF00BF0837BD46B7
:101DDC0080BD80B582B000AF78607868FFF7A2FF55
:101DEC00034618460837BD4680BD000080B485B058
:101DFC0000AF78600023FB607B68002B01D10123CE
:101E0C0043E07B681B681A46224B1344224AA2FB10
:101E1C0003231B099A007B681A647B681F4ADA63E8
:101E2C007B68022283F821207B681B681B68FB609F
:101E3C00FB6823F47F5323F03003FB607B685A6804
:101E4C007B689B681A437B68DB681A437B681B6959
:101E5C001A437B685B691A437B689B691A437B68EE
:101E6C00DB691343FA681343FB607B681B68FA68F1
:101E7C001A607B6800229A637B68012283F8212018
:101E8C007B68002283F82020002318461437BD46B7
:101E9C0080BC7047F8FFFDBFCDCCCCCC000002401D
:101EAC0080B485B000AF78600023FB737B6893F837
:101EBC002130DBB2022B08D07B6804229A637B684A
:101ECC00002283F82020012320E07B681B681A681D
:101EDC007B681B6822F00E021A607B681B681A680C
:101EEC007B681B6822F001021A607B681A6C7B68A5
:101EFC00DB6B012101FA02F25A607B68012283F844
:101F0C0021207B68002283F82020FB7B18461437A5
:101F1C00BD4680BC7047000080B584B000AF7860CF
:101F2C000023FB737B6893F82130DBB2022B05D0C6
:101F3C007B6804229A630123FB7351E07B681B6866
:101F4C001A687B681B6822F00E021A607B681B689B
:101F5C001A687B681B6822F001021A607B681B6898
:101F6C00224A934229D07B681B68214A934222D093
:101F7C007B681B681F4A93421AD07B681B681E4AF9
:101F8C00934212D07B681B681C4A93420AD07B6830
:101F9C001B681B4A934202D14FF480130EE04FF0A2
:101FAC0080730BE04FF4803308E04FF4805305E06E
:101FBC004FF4807302E0102300E00123114A5360B8
:101FCC007B68012283F821207B68002283F8202083
:101FDC007B685B6B002B03D07B685B6B78689847E6
:101FEC00FB7B18461037BD4680BD00BF0800024081
:101FFC001C000240300002404400024058000240E5
:10200C006C0002400000024080B584B000AF7860E4
:10201C007B68DB6B1B68FB607B681B681B68BB60A9
:10202C007B681B6C04229A40FB681340002B4FD03A
:10203C00BB6803F00403002B4AD07B681B681B6849
:10204C0003F02003002B07D17B681B681A687B68A0
:10205C001B6822F004021A607B681B68664A934274
:10206C0029D07B681B68654A934222D07B681B6829
:10207C00634A93421AD07B681B68624A934212D01F
:10208C007B681B68604A93420AD07B681B685F4A76
:10209C00934202D14FF480030EE04FF080630BE0CB
:1020AC004FF4802308E04FF4804305E04FF4806345
:1020BC0002E0402300E00423554A53607B68DB6A4E
:1020CC00002B00F094807B68DB6A786898478EE080
:1020DC007B681B6C02229A40FB681340002B56D085
:1020EC00BB6803F00203002B51D07B681B681B6894
:1020FC0003F02003002B0BD17B681B681A687B68EC
:10210C001B6822F00A021A607B68012283F82120E6
:10211C007B681B68384A934229D07B681B68374A16
:10212C00934222D07B681B68354A93421AD07B6855
:10213C001B68344A934212D07B681B68324A934224
:10214C000AD07B681B68314A934202D14FF40013CA
:10215C000EE04FF000730BE04FF4003308E04FF447
:10216C00005305E04FF4007302E0202300E002234B
:10217C00274A53607B68002283F820207B689B6A87
:10218C00002B34D07B689B6A786898472FE07B687B
:10219C001B6C08229A40FB681340002B28D0BB68AC
:1021AC0003F00803002B23D07B681B681A687B683C
:1021BC001B6822F00E021A607B681A6C7B68DB6B62
:1021CC00012101FA02F25A607B6801229A637B6852
:1021DC00012283F821207B68002283F820207B6871
:1021EC001B6B002B04D07B681B6B7868984700BF77
:1021FC0000BF1037BD4680BD080002401C000240E5
:10220C003000024044000240580002406C00024082
:10221C000000024080B483B000AF78607B689B6B99
:10222C0018460C37BD4680BC7047000080B48BB09C
:10223C0000AF7860396000237B6200233B6269E168
:10224C0001227B6A02FA03F3FB613B681B68FA69A3
:10225C001340BB61BA69FB699A4240F058813B68F4
:10226C005B689A4A93425ED0984A934275D8984AD2
:10227C00934258D0964A93426FD8964A934252D082
:10228C00944A934269D8944A93424CD0924A9342CE
:10229C0063D8924A934246D0904A93425DD8122B0F
:1022AC002AD8122B59D801A252F823F03323000854
:1022BC000D2300081F230008612300086723000872
:1022CC0067230008672300086723000867230008BA
:1022DC0067230008672300086723000867230008AA
:1022EC00672300086723000867230008672300089A
:1022FC001523000829230008794A934213D02CE0B7
:10230C003B68DB683B6229E03B68DB6804333B627B
:10231C0024E03B68DB6808333B621FE03B68DB680A
:10232C000C333B621AE03B689B68002B02D1042300
:10233C003B6213E03B689B68012B05D108233B6291
:10234C007B68FA691A6109E008233B627B68FA69C9
:10235C005A6103E000233B6200E000BFBB69FF2B26
:10236C0001D87B6801E07B6804337B61BB69FF2B80
:10237C0002D87B6A9B0002E07B6A083B9B003B61B6
:10238C007B691A680F213B6901FA03F3DB431A409E
:10239C00396A3B6901FA03F31A437B691A603B689B
:1023AC005B6803F08053002B00F0B1804D4B9B69B0
:1023BC004C4A43F0010393614A4B9B6903F00103C0
:1023CC00BB60BB68484A7B6A9B08023352F82330D7
:1023DC00FB607B6A03F003039B000F2202FA03F3FA
:1023EC00DB43FA681340FB607B68404A934213D08E
:1023FC007B683F4A93420DD07B683E4A934207D09C
:10240C007B683D4A934201D1032306E0042304E098
:10241C00022302E0012300E000237A6A02F00302A7
:10242C0092009340FA681343FB602F497B6A9B0828
:10243C000233FA6841F823203B685B6803F480138D
:10244C00002B06D02D4B9A682C49BB6913438B602B
:10245C0006E02A4B9A68BB69DB43284913408B6022
:10246C003B685B6803F40013002B06D0234BDA683F
:10247C002249BB691343CB6006E0204BDA68BB6989
:10248C00DB431E491340CB603B685B6803F40033AD
:10249C00002B06D0194B5A681849BB6913434B6083
:1024AC0006E0164B5A68BB69DB43144913404B607A
:1024BC003B685B6803F48033002B21D00F4B1A6808
:1024CC000E49BB6913430B6021E000BF00003210C2
:1024DC00000031100000221000002110000012102A
:1024EC0000001110001002400000014000080140E3
:1024FC00000C014000100140001401400004014098
:10250C000B4B1A68BB69DB43094913400B607B6AB0
:10251C0001337B623B681A687B6A22FA03F3002B57
:10252C007FF48EAE00BF00BF2C37BD4680BC704719
:10253C000004014080B483B000AF78600B467B8010
:10254C0013467B707B78002B03D07A887B681A61EA
:10255C0003E07B881A047B681A6100BF0C37BD4608
:10256C0080BC704780B586B000AF78607B68002B6C
:10257C0001D1012372E27B681B6803F00103002B7D
:10258C0000F08780924B5B6803F00C03042B0CD09B
:10259C008F4B5B6803F00C03082B12D18C4B5B68E0
:1025AC0003F48033B3F5803F0BD1894B1B6803F4E4
:1025BC000033002B6CD07B685B68002B68D1012347
:1025CC004CE27B685B68B3F5803F06D1804B1B689F
:1025DC007F4A43F4803313602EE07B685B68002BEA
:1025EC000CD17B4B1B687A4A23F480331360784BF5
:1025FC001B68774A23F4802313601DE07B685B68BB
:10260C00B3F5A02F0CD1724B1B68714A43F4802395
:10261C0013606F4B1B686E4A43F4803313600BE0FE
:10262C006B4B1B686A4A23F480331360684B1B683E
:10263C00674A23F4802313607B685B68002B13D0FC
:10264C00FEF790FE386108E0FEF78CFE02463B690F
:10265C00D31A642B01D9032300E25D4B1B6803F4EE
:10266C000033002BF0D014E0FEF77CFE386108E05C
:10267C00FEF778FE02463B69D31A642B01D903237B
:10268C00ECE1534B1B6803F40033002BF0D100E05A
:10269C0000BF7B681B6803F00203002B63D04C4B1C
:1026AC005B6803F00C03002B0BD0494B5B6803F009
:1026BC000C03082B1CD1464B5B6803F48033002BB6
:1026CC0016D1434B1B6803F00203002B05D07B682B
:1026DC001B69012B01D00123C0E13D4B1B6823F08A
:1026EC00F8027B685B69DB00394913430B603AE005
:1026FC007B681B69002B20D0364B01221A60FEF739
:10270C0031FE386108E0FEF72DFE02463B69D31A14
:10271C00022B01D90323A1E12D4B1B6803F002030B
:10272C00002BF0D02A4B1B6823F0F8027B685B6906
:10273C00DB00274913430B6015E0264B00221A607F
:10274C00FEF710FE386108E0FEF70CFE02463B690E
:10275C00D31A022B01D9032380E11D4B1B6803F014
:10276C000203002BF0D17B681B6803F00803002BDD
:10277C003AD07B689B69002B19D0174B01221A6049
:10278C00FEF7F0FD386108E0FEF7ECFD02463B6910
:10279C00D31A022B01D9032360E10D4B5B6A03F0C2
:1027AC000203002BF0D0012000F0CEFA1CE00A4B03
:1027BC0000221A60FEF7D6FD38610FE0FEF7D2FD5D
:1027CC0002463B69D31A022B08D9032346E100BF0A
:1027DC00001002400000424280044242924B5B6A6D
:1027EC0003F00203002BE9D17B681B6803F00403A0
:1027FC00002B00F0A6800023FB758B4BDB6903F0EC
:10280C008053002B0DD1884BDB69874A43F08053F2
:10281C00D361854BDB6903F08053BB60BB6801233C
:10282C00FB75824B1B6803F48073002B18D17F4B14
:10283C001B687E4A43F480731360FEF793FD386186
:10284C0008E0FEF78FFD02463B69D31A642B01D9D1
:10285C00032303E1754B1B6803F48073002BF0D04A
:10286C007B68DB68012B06D16F4B1B6A6E4A43F009
:10287C00010313622DE07B68DB68002B0CD16A4BE3
:10288C001B6A694A23F001031362674B1B6A664A91
:10289C0023F0040313621CE07B68DB68052B0CD16E
:1028AC00614B1B6A604A43F0040313625E4B1B6A64
:1028BC005D4A43F0010313620BE05B4B1B6A5A4AFF
:1028CC0023F001031362584B1B6A574A23F004038D
:1028DC0013627B68DB68002B15D0FEF743FD386173
:1028EC000AE0FEF73FFD02463B69D31A41F28832FB
:1028FC00934201D90323B1E04B4B1B6A03F0020353
:10290C00002BEED014E0FEF72DFD38610AE0FEF747
:10291C0029FD02463B69D31A41F28832934201D910
:10292C0003239BE0404B1B6A03F00203002BEED108
:10293C00FB7D012B05D13C4BDB693B4A23F08053DB
:10294C00D3617B68DB69002B00F08780364B5B68BA
:10295C0003F00C03082B61D07B68DB69022B46D19A
:10296C00334B00221A60FEF7FDFC386108E0FEF7DD
:10297C00F9FC02463B69D31A022B01D903236DE003
:10298C00294B1B6803F00073002BF0D17B681B6A8A
:10299C00B3F5803F08D1244B5B6823F400327B688D
:1029AC009B68214913434B601F4B5B6823F47412E3
:1029BC007B68196A7B685B6A0B431B4913434B604A
:1029CC001B4B01221A60FEF7CDFC386108E0FEF7C4
:1029DC00C9FC02463B69D31A022B01D903233DE003
:1029EC00114B1B6803F00073002BF0D035E0104B3B
:1029FC0000221A60FEF7B6FC386108E0FEF7B2FC64
:102A0C0002463B69D31A022B01D9032326E0064B5D
:102A1C001B6803F00073002BF0D11EE07B68DB69B0
:102A2C00012B07D1012319E0001002400070004077
:102A3C00600042420B4B5B68FB60FB6803F4803226
:102A4C007B681B6A9A4206D1FB6803F470127B68A0
:102A5C005B6A9A4201D0012300E000231846183724
:102A6C00BD4680BD0010024080B584B000AF7860D8
:102A7C0039607B68002B01D10123D0E06A4B1B68C5
:102A8C0003F007033A689A4210D9674B1B6823F08E
:102A9C00070265493B6813430B60634B1B6803F0EB
:102AAC0007033A689A4201D00123B8E07B681B689F
:102ABC0003F00203002B20D07B681B6803F0040397
:102ACC00002B05D0594B5B68584A43F4E0635360C4
:102ADC007B681B6803F00803002B05D0534B5B6825
:102AEC00524A43F460535360504B5B6823F0F0023E
:102AFC007B689B684D4913434B607B681B6803F0F4
:102B0C000103002B40D07B685B68012B07D1474B3E
:102B1C001B6803F40033002B15D101237FE07B6885
:102B2C005B68022B07D1414B1B6803F00073002B31
:102B3C0009D1012373E03D4B1B6803F00203002B0A
:102B4C0001D101236BE0394B5B6823F003027B68F6
:102B5C005B68364913434B60FEF704FCF8600AE0EF
:102B6C00FEF700FC0246FB68D31A41F2883293420E
:102B7C0001D9032353E02D4B5B6803F00C027B68F7
:102B8C005B689B009A42EBD1274B1B6803F0070351
:102B9C003A689A4210D2244B1B6823F00702224950
:102BAC003B6813430B60204B1B6803F007033A6828
:102BBC009A4201D0012332E07B681B6803F00403C6
:102BCC00002B08D0194B5B6823F4E0627B68DB6850
:102BDC00164913434B607B681B6803F00803002BFA
:102BEC0009D0124B5B6823F460527B681B69DB00D5
:102BFC000E4913434B6000F021F802460B4B5B6807
:102C0C001B0903F00F030A49CB5C22FA03F3094AB0
:102C1C001360094B1B681846FEF762FB002318462D
:102C2C001037BD4680BD00BF00200240001002409E
:102C3C00BC4E0008040000200800002080B487B0BF
:102C4C0000AF0023FB600023BB6000237B610023EB
:102C5C007B6000233B611E4B5B68FB60FB6803F0F1
:102C6C000C03042B02D0082B03D027E0194B3B613B
:102C7C0027E0FB689B0C03F00F03174AD35C7B60C7
:102C8C00FB6803F48033002B10D0114B5B685B0C9A
:102C9C0003F00103114AD35CBB607B680D4A03FB54
:102CAC0002F2BB68B2FBF3F37B6104E07B680C4A75
:102CBC0002FB03F37B617B693B6102E0054B3B61EB
:102CCC0000BF3B6918461C37BD4680BC704700BF2F
:102CDC000010024000127A00D44E0008E44E0008A6
:102CEC0000093D0080B400AF024B1B681846BD467E
:102CFC0080BC70470400002080B500AFFFF7F2FFE6
:102D0C000246054B5B681B0A03F007030349CB5CC7
:102D1C0022FA03F3184680BD00100240CC4E000886
:102D2C0080B500AFFFF7DEFF0246054B5B68DB0AA0
:102D3C0003F007030349CB5C22FA03F3184680BD6A
:102D4C0000100240CC4E000880B485B000AF786013
:102D5C000A4B1B680A4AA2FB03235B0A7A6802FB34
:102D6C0003F3FB6000BFFB685A1EFA60002BF9D11D
:102D7C0000BF00BF1437BD4680BC70470400002064
:102D8C00D34D621080B586B000AF786000233B61F4
:102D9C000023FB607B681B6803F00103002B7DD0D4
:102DAC000023FB754F4BDB6903F08053002B0DD1D7
:102DBC004C4BDB694B4A43F08053D361494BDB6985
:102DCC0003F08053BB60BB680123FB75464B1B684B
:102DDC0003F48073002B18D1434B1B68424A43F415
:102DEC0080731360FEF7BEFA386108E0FEF7BAFA9A
:102DFC0002463B69D31A642B01D903236DE03A4B8D
:102E0C001B6803F48073002BF0D0364B1B6A03F461
:102E1C004073FB60FB68002B2ED07B685B6803F46F
:102E2C004073FA689A4227D02E4B1B6A23F44073E6
:102E3C00FB602E4B01221A602C4B00221A60294A8F
:102E4C00FB681362FB6803F00103002B14D0FEF740
:102E5C0089FA38610AE0FEF785FA02463B69D31A13
:102E6C0041F28832934201D9032336E01D4B1B6A91
:102E7C0003F00203002BEED01A4B1B6A23F44072B2
:102E8C007B685B68174913430B62FB7D012B05D1F3
:102E9C00144BDB69134A23F08053D3617B681B68A6
:102EAC0003F00203002B08D00E4B5B6823F4404266
:102EBC007B689B680B4913434B607B681B6803F072
:102ECC001003002B08D0074B5B6823F480027B684F
:102EDC00DB68044913434B60002318461837BD4682
:102EEC0080BD00BF00100240007000404004424210
:102EFC0080B588B000AF786000237B610023FB6154
:102F0C0000233B610023FB600023BB617B68102B1B
:102F1C000AD07B68102B00F28A807B68012B45D08D
:102F2C007B68022B75D082E0464B5B68FB60454B9F
:102F3C001B6803F08073002B7BD0FB689B0C03F0A9
:102F4C000F03414AD35C3B61FB6803F48033002BD5
:102F5C0015D03C4B5B685B0C03F001033B4AD35C24
:102F6C007B61FB6803F48033002B0DD0384A7B69FE
:102F7C00B2FBF3F23B6902FB03F3FB6104E03B6938
:102F8C00344A02FB03F3FB612E4B5B6803F48003B2
:102F9C00B3F5800F02D1FB69BB614AE0FB695B00B2
:102FAC002D4AA2FB03235B08BB6142E0254B1B6A45
:102FBC00FB60FB6803F44073B3F5807F08D1FB68BA
:102FCC0003F00203002B03D04FF40043BB611FE05E
:102FDC00FB6803F44073B3F5007F09D1194B5B6AAE
:102FEC0003F00203002B03D049F64043BB610FE012
:102FFC00FB6803F44073B3F5407F1CD1114B1B6885
:10300C0003F40033002B16D04FF22443BB6112E0C3
:10301C0011E0FFF785FE02460A4B5B689B0B03F041
:10302C00030301335B00B2FBF3F3BB6104E000BFAD
:10303C0002E000BF00E000BFBB6918462037BD4668
:10304C0080BD00BF00100240E84E0008F84E00089A
:10305C0000127A0000093D00ABAAAAAA80B582B082
:10306C0000AF78607B68002B01D1012341E07B68C5
:10307C0093F83D30DBB2002B06D17B68002283F83D
:10308C003C207868FDF7BCFF7B68022283F83D206A
:10309C007B681A687B6804331946104600F038FCCC
:1030AC007B68012283F846207B68012283F83E204E
:1030BC007B68012283F83F207B68012283F8402043
:1030CC007B68012283F841207B68012283F842202F
:1030DC007B68012283F843207B68012283F844201B
:1030EC007B68012283F845207B68012283F83D2010
:1030FC00002318460837BD4680BD000080B485B05B
:10310C0000AF78607B6893F83D30DBB2012B01D0C7
:10311C0001233AE07B68022283F83D207B681B6820
:10312C00DA687B681B6842F00102DA607B681B6816
:10313C00184A93420ED07B681B68B3F1804F09D0BC
:10314C007B681B68144A934204D07B681B68134A43
:10315C00934211D17B681B689B6803F00703FB60EB
:10316C00FB68062B10D07B681B681A687B681B6891
:10317C0042F001021A6007E07B681B681A687B68E2
:10318C001B6842F001021A60002318461437BD4632
:10319C0080BC7047002C0140000400400008004037
:1031AC0080B582B000AF78607B68002B01D1012321
:1031BC0041E07B6893F83D30DBB2002B06D17B6895
:1031CC00002283F83C20786800F039F87B680222F2
:1031DC0083F83D207B681A687B68043319461046D7
:1031EC0000F096FB7B68012283F846207B68012265
:1031FC0083F83E207B68012283F83F207B68012204
:10320C0083F840207B68012283F841207B680122EF
:10321C0083F842207B68012283F843207B680122DB
:10322C0083F844207B68012283F845207B680122C7
:10323C0083F83D20002318460837BD4680BD80B476
:10324C0083B000AF786000BF0C37BD4680BC7047C0
:10325C0080B584B000AF786039603B68002B09D131
:10326C007B6893F83E30DBB2012B14BF01230023A3
:10327C00DBB222E03B68042B09D17B6893F83F302A
:10328C00DBB2012B14BF01230023DBB215E03B683A
:10329C00082B09D17B6893F84030DBB2012B14BFAB
:1032AC0001230023DBB208E07B6893F84130DBB2EA
:1032BC00012B14BF01230023DBB2002B01D001230F
:1032CC005EE03B68002B04D17B68022283F83E2031
:1032DC0013E03B68042B04D17B68022283F83F2067
:1032EC000BE03B68082B04D17B68022283F840205A
:1032FC0003E07B68022283F841207B681B68012273
:10330C003968184600F084FD7B681B681E4A93429E
:10331C0007D17B681B685A6C7B681B6842F40042BF
:10332C005A647B681B68184A93420ED07B681B68F2
:10333C00B3F1804F09D07B681B68144A934204D0C8
:10334C007B681B68124A934211D17B681B689B688F
:10335C0003F00703FB60FB68062B10D07B681B682F
:10336C001A687B681B6842F001021A6007E07B68F0
:10337C001B681A687B681B6842F001021A60002304
:10338C0018461037BD4680BD002C0140000400409B
:10339C000008004080B582B000AF78607B681B6885
:1033AC001B6903F00203022B22D17B681B68DB68CC
:1033BC0003F00203022B1BD17B681B686FF0020227
:1033CC001A617B6801221A777B681B689B6903F082
:1033DC000303002B03D0786800F07FFA05E07868CF
:1033EC0000F072FA786800F081FA7B6800221A7794
:1033FC007B681B681B6903F00403042B22D17B68D8
:10340C001B68DB6803F00403042B1BD17B681B686F
:10341C006FF004021A617B6802221A777B681B68C2
:10342C009B6903F44073002B03D0786800F055FAC5
:10343C0005E0786800F048FA786800F057FA7B6885
:10344C0000221A777B681B681B6903F00803082BA2
:10345C0022D17B681B68DB6803F00803082B1BD1A7
:10346C007B681B686FF008021A617B6804221A776C
:10347C007B681B68DB6903F00303002B03D07868BF
:10348C0000F02BFA05E0786800F01EFA786800F07E
:10349C002DFA7B6800221A777B681B681B6903F086
:1034AC001003102B22D17B681B68DB6803F0100320
:1034BC00102B1BD17B681B686FF010021A617B68A4
:1034CC0008221A777B681B68DB6903F44073002BB6
:1034DC0003D0786800F001FA05E0786800F0F4F9A0
:1034EC00786800F003FA7B6800221A777B681B6807
:1034FC001B6903F00103012B0ED17B681B68DB6891
:10350C0003F00103012B07D17B681B686FF00102EC
:10351C001A61786800F0CFF97B681B681B6903F0AF
:10352C008003802B0ED17B681B68DB6803F0800363
:10353C00802B07D17B681B686FF080021A6178685A
:10354C0000F0F1FC7B681B681B6903F04003402B07
:10355C000ED17B681B68DB6803F04003402B07D15E
:10356C007B681B686FF040021A61786800F0C7F93D
:10357C007B681B681B6903F02003202B0ED17B6832
:10358C001B68DB6803F02003202B07D17B681B68CA
:10359C006FF020021A61786800F0BCFC00BF08379D
:1035AC00BD4680BD80B586B000AFF860B9607A606A
:1035BC000023FB75FB6893F83C30012B01D10223EF
:1035CC00AEE0FB68012283F83C207B680C2B00F2F8
:1035DC009F8001A252F823F0193600081D3700080D
:1035EC001D3700081D370008593600081D37000824
:1035FC001D3700081D3700089B3600081D370008D2
:10360C001D3700081D370008DB360008FB681B68F7
:10361C00B968184600F0DEF9FB681B689A69FB680C
:10362C001B6842F008029A61FB681B689A69FB6888
:10363C001B6822F004029A61FB681B689969BB68DD
:10364C001A69FB681B680A439A6164E0FB681B6893
:10365C00B968184600F024FAFB681B689A69FB6885
:10366C001B6842F400629A61FB681B689A69FB68EC
:10367C001B6822F480629A61FB681B689969BB68BD
:10368C001B691A02FB681B680A439A6143E0FB68DA
:10369C001B68B968184600F06DFAFB681B68DA699C
:1036AC00FB681B6842F00802DA61FB681B68DA6988
:1036BC00FB681B6822F00402DA61FB681B68D9699D
:1036CC00BB681A69FB681B680A43DA6123E0FB6874
:1036DC001B68B968184600F0B7FAFB681B68DA6912
:1036EC00FB681B6842F40062DA61FB681B68DA69EC
:1036FC00FB681B6822F48062DA61FB681B68D9697D
:10370C00BB681B691A02FB681B680A43DA6102E09A
:10371C000123FB7500BFFB68002283F83C20FB7D76
:10372C0018461837BD4680BD80B584B000AF7860B0
:10373C0039600023FB737B6893F83C30012B01D17B
:10374C000223B4E07B68012283F83C207B680222D0
:10375C0083F83D207B681B689B68BB60BB6823F0CB
:10376C007703BB60BB6823F47F43BB607B681B683B
:10377C00BA689A603B681B68B3F5005F3ED0B3F53E
:10378C00005F00F28780B3F5805F00F08680B3F5B0
:10379C00805F7FD8702B1AD0702B7BD8602B50D0C9
:1037AC00602B77D8502B3CD0502B73D8402B58D053
:1037BC00402B6FD8302B64D0302B6BD8202B60D0A3
:1037CC00202B67D8002B5CD0102B5AD062E07B6882
:1037DC0018683B6899683B685A683B68DB6800F07E
:1037EC00F8FA7B681B689B68BB60BB6843F0770387
:1037FC00BB607B681B68BA689A604FE07B6818688E
:10380C003B6899683B685A683B68DB6800F0E1FAF2
:10381C007B681B689A687B681B6842F480429A60DC
:10382C003CE07B6818683B6859683B68DB681A4663
:10383C0000F058FA7B681B685021184600F0AFFA6C
:10384C002CE07B6818683B6859683B68DB681A4653
:10385C0000F076FA7B681B686021184600F09FFA2E
:10386C001CE07B6818683B6859683B68DB681A4643
:10387C0000F038FA7B681B684021184600F08FFA7C
:10388C000CE07B681A683B681B681946104600F010
:10389C0086FA03E00123FB7300E000BF7B68012282
:1038AC0083F83D207B68002283F83C20FB7B184684
:1038BC001037BD4680BD80B483B000AF786000BFC8
:1038CC000C37BD4680BC704780B483B000AF7860C5
:1038DC0000BF0C37BD4680BC704780B483B000AFCE
:1038EC00786000BF0C37BD4680BC704780B483B095
:1038FC0000AF786000BF0C37BD4680BC704780B409
:10390C0083B000AF786000BF0C37BD4680BC7047F9
:10391C0080B485B000AF786039607B681B68FB6051
:10392C007B68294A93420BD07B68B3F1804F07D058
:10393C007B68264A934203D07B68254A934208D180
:10394C00FB6823F07003FB603B685B68FA68134309
:10395C00FB607B681C4A93420BD07B68B3F1804FB1
:10396C0007D07B68194A934203D07B68184A93426C
:10397C0008D1FB6823F44073FB603B68DB68FA6892
:10398C001343FB60FB6823F080023B685B691343C5
:10399C00FB607B68FA681A603B689A687B68DA623D
:1039AC003B681A687B689A627B68074A934203D12A
:1039BC003B681A697B681A637B6801225A6100BFF5
:1039CC001437BD4680BC7047002C014000040040F9
:1039DC000008004080B487B000AF786039607B6825
:1039EC001B6A7B617B681B6A23F001027B681A628D
:1039FC007B685B683B617B689B69FB60FB6823F0C1
:103A0C007003FB60FB6823F00303FB603B681B68DF
:103A1C00FA681343FB607B6923F002037B613B680C
:103A2C009B687A6913437B617B681C4A93420CD177
:103A3C007B6923F008037B613B68DB687A6913437D
:103A4C007B617B6923F004037B617B68134A93429F
:103A5C0011D13B6923F480733B613B6923F4007300
:103A6C003B613B685B693A6913433B613B689B690B
:103A7C003A6913433B617B683A695A607B68FA6820
:103A8C009A613B685A687B685A637B687A691A62E8
:103A9C0000BF1C37BD4680BC704700BF002C0140E6
:103AAC0080B487B000AF786039607B681B6A7B613B
:103ABC007B681B6A23F010027B681A627B685B6868
:103ACC003B617B689B69FB60FB6823F4E043FB6014
:103ADC00FB6823F44073FB603B681B681B02FA68AD
:103AEC001343FB607B6923F020037B613B689B687D
:103AFC001B017A6913437B617B681D4A93420DD18C
:103B0C007B6923F080037B613B68DB681B017A696E
:103B1C0013437B617B6923F040037B617B68144A10
:103B2C00934213D13B6923F480633B613B6923F4DB
:103B3C0000633B613B685B699B003A6913433B61E3
:103B4C003B689B699B003A6913433B617B683A690C
:103B5C005A607B68FA689A613B685A687B689A631A
:103B6C007B687A691A6200BF1C37BD4680BC7047FF
:103B7C00002C014080B487B000AF786039607B685E
:103B8C001B6A7B617B681B6A23F480727B681A62F8
:103B9C007B685B683B617B68DB69FB60FB6823F0DF
:103BAC007003FB60FB6823F00303FB603B681B683E
:103BBC00FA681343FB607B6923F400737B613B68F9
:103BCC009B681B027A6913437B617B681D4A934295
:103BDC000DD17B6923F400637B613B68DB681B02BE
:103BEC007A6913437B617B6923F480637B617B6817
:103BFC00144A934213D13B6923F480533B613B69D4
:103C0C0023F400533B613B685B691B013A69134326
:103C1C003B613B689B691B013A6913433B617B68C1
:103C2C003A695A607B68FA68DA613B685A687B6863
:103C3C00DA637B687A691A6200BF1C37BD4680BCA8
:103C4C00704700BF002C014080B487B000AF786093
:103C5C0039607B681B6A3B617B681B6A23F480526A
:103C6C007B681A627B685B687B617B68DB69FB60E5
:103C7C00FB6823F4E043FB60FB6823F44073FB60B8
:103C8C003B681B681B02FA681343FB603B6923F417
:103C9C0000533B613B689B681B033A6913433B61D0
:103CAC007B680F4A934209D17B6923F480437B6183
:103CBC003B685B699B017A6913437B617B687A691A
:103CCC005A607B68FA68DA613B685A687B681A64E8
:103CDC007B683A691A6200BF1C37BD4680BC7047CE
:103CEC00002C014080B487B000AFF860B9607A60F6
:103CFC00FB681B6A7B61FB681B6A23F00102FB6893
:103D0C001A62FB689B693B613B6923F0F0033B61E2
:103D1C007B681B013A6913433B617B6923F00A03FF
:103D2C007B617A69BB6813437B61FB683A699A6172
:103D3C00FB687A691A6200BF1C37BD4680BC7047AD
:103D4C0080B487B000AFF860B9607A60FB681B6A1A
:103D5C007B61FB681B6A23F01002FB681A62FB682C
:103D6C009B693B613B6923F470433B617B681B039C
:103D7C003A6913433B617B6923F0A0037B61BB6809
:103D8C001B017A6913437B61FB683A699A61FB6892
:103D9C007A691A6200BF1C37BD4680BC704780B47C
:103DAC0085B000AF786039607B689B68FB60FB680E
:103DBC0023F07003FB603A68FB68134343F007037E
:103DCC00FB607B68FA689A6000BF1437BD4680BC04
:103DDC00704780B487B000AFF860B9607A603B6020
:103DEC00FB689B687B617B6923F47F437B613B6849
:103DFC001A027B681A43BB6813437A6913437B61CD
:103E0C00FB687A699A6000BF1C37BD4680BC70475E
:103E1C0080B487B000AFF860B9607A60BB6803F01B
:103E2C001F03012202FA03F37B61FB681A6A7B69A8
:103E3C00DB431A40FB681A62FB681A6ABB6803F022
:103E4C001F03796801FA03F31A43FB681A6200BF77
:103E5C001C37BD4680BC704780B485B000AF78601D
:103E6C0039607B6893F83C30012B01D1022346E08A
:103E7C007B68012283F83C207B68022283F83D207A
:103E8C007B681B685B68FB607B681B689B68BB601E
:103E9C00FB6823F07003FB603B681B68FA681343F4
:103EAC00FB607B681B68FA685A607B681B68164A63
:103EBC0093420ED07B681B68B3F1804F09D07B68AE
:103ECC001B68124A934204D07B681B68104A9342C9
:103EDC000CD1BB6823F08003BB603B685B68BA689D
:103EEC001343BB607B681B68BA689A607B680122CD
:103EFC0083F83D207B68002283F83C200023184681
:103F0C001437BD4680BC7047002C014000040040B3
:103F1C000008004080B483B000AF786000BF0C375D
:103F2C00BD4680BC704780B483B000AF786000BFE2
:103F3C000C37BD4680BC704780B582B000AF78604E
:103F4C007B68002B01D1012342E07B6893F8413060
:103F5C00DBB2002B06D17B68002283F84020786806
:103F6C00FDF7F6F87B68242283F841207B681B68F8
:103F7C00DA687B681B6822F40052DA60786800F01B
:103F8C00D1FE7B681B681A697B681B6822F490421F
:103F9C001A617B681B685A697B681B6822F02A02CD
:103FAC005A617B681B68DA687B681B6842F40052B4
:103FBC00DA607B6800225A647B68202283F84120F7
:103FCC007B68202283F842207B6800225A630023FE
:103FDC0018460837BD4680BD80B58AB002AFF86080
:103FEC00B9603B601346FB8000237B61FB6893F850
:103FFC004130DBB2202B6DD1BB68002B02D0FB888B
:10400C00002B01D1012366E0FB6800225A64FB6897
:10401C00212283F84120FDF7A5F97861FB68FA8825
:10402C009A84FB68FA88DA84FB689B68B3F5805F36
:10403C0008D1FB681B69002B04D10023FB61BB6812
:10404C00BB6103E0BB68FB610023BB612AE03B68FA
:10405C0000937B6900228021F86800F020FC034665
:10406C00002B01D0032336E0FB69002B0BD1BB697D
:10407C001B881A46FB681B68C2F308025A60BB69AE
:10408C000233BB6107E0FB691A78FB681B685A6056
:10409C00FB690133FB61FB68DB8C9BB2013B9AB281
:1040AC00FB68DA84FB68DB8C9BB2002BCFD13B68BE
:1040BC0000937B6900224021F86800F0F0FB034676
:1040CC00002B01D0032306E0FB68202283F841205B
:1040DC00002300E0022318462037BD4680BD80B582
:1040EC0084B000AFF860B9601346FB80FB6893F8AE
:1040FC004230DBB2202B12D1BB68002B02D0FB88E4
:10410C00002B01D101230BE0FB6800221A63FB8812
:10411C001A46B968F86800F030FC034600E0022348
:10412C0018461037BD4680BD80B58EB000AF7860A4
:10413C007B681B680C333B623B6A53E8003FFB61B6
:10414C00FB6923F0C0037B637B681B680C337A6BC1
:10415C00FA62BB62B96AFA6A41E800237B627B6A45
:10416C00002BE5D17B681B685B6903F08003002B97
:10417C0036D07B681B681433FB60FB6853E8003F48
:10418C00BB60BB6823F080033B637B681B68143304
:10419C003A6BBA617B617969BA6941E800233B618A
:1041AC003B69002BE5D17B689B6B002B18D07B689F
:1041BC009B6B00225A637B689B6B1846FDF770FE65
:1041CC000346002B0CD07B689B6B1846FEF722F83D
:1041DC000346202B04D17B6810225A64032307E08A
:1041EC007B680022DA847B68202283F8412000233C
:1041FC0018463837BD4680BD80B59AB000AF7860A0
:10420C007B681B680C33BB64BB6C53E8003F7B645E
:10421C007B6C23F490737B667B681B680C337A6E23
:10422C007A653B65396D7A6D41E80023FB64FB6C64
:10423C00002BE5D17B681B6814337B637B6B53E8E5
:10424C00003F3B633B6B23F001033B667B681B68C1
:10425C0014333A6E3A64FB63F96B3A6C41E8002311
:10426C00BB63BB6B002BE5D17B681B6B012B19D19E
:10427C007B681B680C333B623B6A53E8003FFB6175
:10428C00FB6923F01003FB657B681B680C33FA6D2C
:10429C00FA62BB62B96AFA6A41E800237B627B6A04
:1042AC00002BE5D17B681B685B6903F04003002B96
:1042BC0036D07B681B681433FB60FB6853E8003F07
:1042CC00BB60BB6823F04003BB657B681B68143381
:1042DC00BA6DBA617B617969BA6941E800233B61C7
:1042EC003B69002BE5D17B68DB6B002B18D07B681E
:1042FC00DB6B00225A637B68DB6B1846FDF7D0FD45
:10430C000346002B0CD07B68DB6B1846FDF782FF55
:10431C000346202B04D17B6810225A6403230AE045
:10432C007B680022DA857B68202283F842207B6838
:10433C0000221A63002318466837BD4680BD000072
:10434C0080B5BAB000AF78607B681B681B68C7F893
:10435C00E4307B681B68DB68C7F8E0307B681B685F
:10436C005B69C7F8DC300023C7F8D8300023C7F8E6
:10437C00D430D7F8E43003F00F03C7F8D830D7F8AF
:10438C00D830002B0FD1D7F8E43003F02003002BEA
:10439C0009D0D7F8E03003F02003002B03D0786865
:1043AC0000F001FC5BE2D7F8D830002B00F0DE8087
:1043BC00D7F8DC3003F00103002B06D1D7F8E0303E
:1043CC0003F49073002B00F0D180D7F8E43003F0A5
:1043DC000103002B0BD0D7F8E03003F48073002BD3
:1043EC0005D07B685B6C43F001027B685A64D7F89C
:1043FC00E43003F00403002B0BD0D7F8DC3003F0CF
:10440C000103002B05D07B685B6C43F002027B68D8
:10441C005A64D7F8E43003F00203002B0BD0D7F822
:10442C00DC3003F00103002B05D07B685B6C43F0A0
:10443C0004027B685A64D7F8E43003F00803002BBD
:10444C0011D0D7F8E03003F02003002B05D1D7F8BA
:10445C00DC3003F00103002B05D07B685B6C43F070
:10446C0008027B685A647B685B6C002B00F0F2815D
:10447C00D7F8E43003F02003002B08D0D7F8E03055
:10448C0003F02003002B02D0786800F08CFB7B68D3
:10449C001B685B6903F04003002B14BF012300234E
:1044AC00DBB2C7F8D4307B685B6C03F00803002BDD
:1044BC0003D1D7F8D430002B4FD0786800F096FA9F
:1044CC007B681B685B6903F04003002B41D07B6861
:1044DC001B681433C7F89C30D7F89C3053E8003F66
:1044EC00C7F89830D7F8983023F04003C7F8D0308D
:1044FC007B681B681433D7F8D020C7F8A820C7F8FE
:10450C00A430D7F8A410D7F8A82041E80023C7F8A6
:10451C00A030D7F8A030002BD9D17B68DB6B002BF7
:10452C0013D07B68DB6B7E4A5A637B68DB6B184667
:10453C00FDF7F2FC0346002B16D07B68DB6B5B6B44
:10454C007A68D26B104698470EE0786800F093F9C1
:10455C000AE0786800F08FF906E0786800F08BF9D3
:10456C007B6800225A6475E100BF73E17B681B6BAA
:10457C00012B40F04F81D7F8E43003F01003002BEF
:10458C0000F04881D7F8E03003F01003002B00F066
:10459C0041810023BB607B681B681B68BB607B6828
:1045AC001B685B68BB60BB687B681B685B6903F05E
:1045BC004003002B00F0B6807B68DB6B1B685B68EC
:1045CC00A7F8BE30B7F8BE30002B00F045817B68F1
:1045DC009B8DB7F8BE209A4280F03E817B68B7F87D
:1045EC00BE20DA857B68DB6B9B69202B00F0888012
:1045FC007B681B680C33C7F88830D7F8883053E8D1
:10460C00003FC7F88430D7F8843023F48073C7F8A0
:10461C00B8307B681B680C33D7F8B820C7F89420E7
:10462C00C7F89030D7F89010D7F8942041E80023C1
:10463C00C7F88C30D7F88C30002BD9D17B681B682D
:10464C0014337B677B6F53E8003F3B673B6F23F072
:10465C000103C7F8B4307B681B681433D7F8B42057
:10466C00C7F88020FB67F96FD7F8802041E800235A
:10467C00BB67BB6F002BE1D17B681B6814333B66B7
:10468C003B6E53E8003FFB65FB6D23F04003C7F81E
:10469C00B0307B681B681433D7F8B020FA66BB6661
:1046AC00B96EFA6E41E800237B667B6E002BE3D17A
:1046BC007B68202283F842207B6800221A637B6887
:1046CC001B680C33FB64FB6C53E8003FBB64BB6C96
:1046DC0023F01003C7F8AC307B681B680C33D7F899
:1046EC00AC20BA657B65796DBA6D41E800233B65FA
:1046FC003B6D002BE3D17B68DB6B1846FDF7D0FBE1
:10470C007B6802225A637B689A8D7B68DB8D9BB237
:10471C00D31A9BB21946786800F0B6F89CE000BF3B
:10472C00BD4A00087B689A8D7B68DB8D9BB2D31ADF
:10473C00A7F8CE307B68DB8D9BB2002B00F08E800F
:10474C00B7F8CE30002B00F089807B681B680C33E7
:10475C00BB63BB6B53E8003F7B637B6B23F49073B1
:10476C00C7F8C8307B681B680C33D7F8C8207A644C
:10477C003B64396C7A6C41E80023FB63FB6B002BC8
:10478C00E3D17B681B6814337B627B6A53E8003F80
:10479C003B623B6A23F00103C7F8C4307B681B689B
:1047AC001433D7F8C4203A63FB62F96A3A6B41E8D8
:1047BC000023BB62BB6A002BE3D17B68202283F809
:1047CC0042207B6800221A637B681B680C333B61B8
:1047DC003B6953E8003FFB60FB6823F01003C7F80C
:1047EC00C0307B681B680C33D7F8C020FA61BB6102
:1047FC00B969FA6941E800237B617B69002BE3D13D
:10480C007B6802225A63B7F8CE301946786800F0FC
:10481C003BF823E0D7F8E43003F08003002B09D0F9
:10482C00D7F8E03003F08003002B03D0786800F059
:10483C0053F914E0D7F8E43003F04003002B0ED00A
:10484C00D7F8E03003F04003002B08D0786800F074
:10485C0092F904E000BF02E000BF00E000BFE837BF
:10486C00BD4680BD80B483B000AF786000BF0C370C
:10487C00BD4680BC704780B483B000AF786000BF89
:10488C000C37BD4680BC704780B483B000AF7860F5
:10489C000B467B8000BF0C37BD4680BC704780B593
:1048AC0090B000AFF860B9603B601346FB7150E00C
:1048BC00BB6CB3F1FF3F4CD0BB6C002B07D0FCF7AB
:1048CC0051FD02463B68D31ABA6C9A4241D2FB683E
:1048DC001B680C33BB62BB6A53E8003F7B627B6A8C
:1048EC0023F4D073FB63FB681B680C33FA6B7A639D
:1048FC003B63396B7A6B41E80023FB62FB6A002B4C
:10490C00E5D1FB681B6814337B617B6953E8003F7E
:10491C003B613B6923F00103BB63FB681B681433E9
:10492C00BA6B3A62FB61F9693A6A41E80023BB61F0
:10493C00BB69002BE5D1FB68202283F84120FB6882
:10494C00202283F84220FB68002283F840200323B6
:10495C000FE0FB681B681A68BB681340BA689A4280
:10496C000CBF01230023DBB21A46FB799A429FD07D
:10497C00002318464037BD4680BD80B485B000AFDB
:10498C00F860B9601346FB80FB68BA689A62FB68F2
:10499C00FA889A85FB68FA88DA85FB6800225A64E3
:1049AC00FB68222283F84220FB681B69002B07D08E
:1049BC00FB681B68DA68FB681B6842F48072DA607B
:1049CC00FB681B685A69FB681B6842F001025A615C
:1049DC00FB681B68DA68FB681B6842F02002DA602F
:1049EC00002318461437BD4680BC704780B495B080
:1049FC0000AF78607B681B680C337B637B6B53E880
:104A0C00003F3B633B6B23F49073FB647B681B6838
:104A1C000C33FA6C3A64FB63F96B3A6C41E8002393
:104A2C00BB63BB6B002BE5D17B681B6814333B620B
:104A3C003B6A53E8003FFB61FB6923F00103BB6455
:104A4C007B681B681433BA6CFA62BB62B96AFA6A87
:104A5C0041E800237B627B6A002BE5D17B681B6BF2
:104A6C00012B19D17B681B680C33FB60FB6853E886
:104A7C00003FBB60BB6823F010037B647B681B6842
:104A8C000C337A6CBA617B617969BA6941E80023AD
:104A9C003B613B69002BE5D17B68202283F84220E7
:104AAC007B6800221A6300BF5437BD4680BC704738
:104ABC0080B584B000AF78607B685B6AFB60FB6894
:104ACC000022DA85FB680022DA84F868FFF7D3FE4F
:104ADC0000BF1037BD4680BD80B485B000AF786094
:104AEC007B6893F84130DBB2212B3ED17B689B680D
:104AFC00B3F5805F14D17B681B69002B10D17B68E8
:104B0C001B6AFB60FB681B881A467B681B68C2F338
:104B1C0008025A607B681B6A9A1C7B681A6208E060
:104B2C007B681B6A591C7A6811621A787B681B684F
:104B3C005A607B68DB8C9BB2013B9BB27A6819464E
:104B4C00D184002B0FD17B681B68DA687B681B68EB
:104B5C0022F08002DA607B681B68DA687B681B686D
:104B6C0042F04002DA60002300E0022318461437BA
:104B7C00BD4680BC704780B582B000AF78607B6862
:104B8C001B68DA687B681B6822F04002DA607B687D
:104B9C00202283F841207868FFF764FE0023184632
:104BAC000837BD4680BD80B58CB000AF78607B689F
:104BBC0093F84230DBB2222B40F0AE807B689B68CE
:104BCC00B3F5805F17D17B681B69002B13D10023D1
:104BDC00FB627B689B6ABB627B681B685B689BB2F1
:104BEC00C3F308039AB2BB6A1A807B689B6A9A1C4F
:104BFC007B689A6226E07B689B6AFB620023BB623F
:104C0C007B689B68B3F5805F07D07B689B68002B43
:104C1C000AD17B681B69002B06D17B681B685B681B
:104C2C00DAB2FB6A1A7008E07B681B685B68DBB25F
:104C3C0003F07F03DAB2FB6A1A707B689B6A5A1C1A
:104C4C007B689A627B68DB8D9BB2013B9BB27A6876
:104C5C001946D185002B5DD17B681B68DA687B68AF
:104C6C001B6822F02002DA607B681B68DA687B68BC
:104C7C001B6822F48072DA607B681B685A697B6857
:104C8C001B6822F001025A617B68202283F84220C3
:104C9C007B6800225A637B681B6B012B35D17B68C8
:104CAC0000221A637B681B680C337B617B6953E8B9
:104CBC00003F3B613B6923F010037B627B681B6800
:104CCC000C337A6A3A62FB61F9693A6A41E800236B
:104CDC00BB61BB69002BE5D17B681B681B6803F0CB
:104CEC001003102B0AD10023FB607B681B681B6828
:104CFC00FB607B681B685B68FB60FB687B689B8D5B
:104D0C0019467868FFF7C0FD02E07868FBF7FEFEF5
:104D1C00002302E0002300E0022318463037BD4692
:104D2C0080BD000080B584B000AF78607B681B68E4
:104D3C001B6923F440517B68DA687B681B680A4363
:104D4C001A617B689A687B681B691A437B685B698C
:104D5C001343BB607B681B68DB6823F4B05323F000
:104D6C000C037A681268B9680B43D3607B681B68C4
:104D7C005B6923F440717B689A697B681B680A4302
:104D8C005A617B681B682C4A934203D1FDF7C8FF1C
:104D9C00F86002E0FDF7B0FFF860FA6813469B007C
:104DAC0013449A001A447B685B689B00B2FBF3F3D4
:104DBC00224AA2FB03235B091901FA6813469B00E4
:104DCC0013449A001A447B685B689B00B2FBF3F2B5
:104DDC001A4BA3FB02035B09642000FB03F3D31AF9
:104DEC001B013233154AA2FB03235B0903F0F003CA
:104DFC001944FA6813469B0013449A001A447B68C2
:104E0C005B689B00B2FBF3F20C4BA3FB02035B0948
:104E1C00642000FB03F3D31A1B013233074AA2FBB5
:104E2C0003235B0903F00F027B681B680A449A603A
:104E3C0000BF1037BD4680BD003801401F85EB51C7
:104E4C0003460244934200D1704703F8011BF9E773
:104E5C0070B500260C4D0D4C641BA410A64209D154
:104E6C0000F01AF800260A4D0A4C641BA410A64246
:104E7C0005D170BD55F8043B98470136EEE755F85F
:104E8C00043B98470136F2E7FC4E0008FC4E000844
:104E9C00FC4E0008004F0008F8B500BFF8BC08BC79
:104EAC009E467047F8B500BFF8BC08BC9E467047DC
:104EBC0000000000000000000102030406070809BE
:104ECC0000000000010203040203040506070809A0
:104EDC000A0B0C0D0E0F101001020000020304054A
:104EEC00060708090A0B0C0D0E0F1010010200002A
:044EFC003101000878
:044F00000D01000897
:104F0400010100000024F400100000000100000072
:040000050800127568
:00000001FF
